{
	"data": {
		"bytecode": {
			"linkReferences": {},
			"object": "6101206040523073ffffffffffffffffffffffffffffffffffffffff1660a09073ffffffffffffffffffffffffffffffffffffffff1681525034801562000044575f80fd5b5060405162005b8938038062005b8983398181016040528101906200006a9190620002e6565b82828181875f73ffffffffffffffffffffffffffffffffffffffff168173ffffffffffffffffffffffffffffffffffffffff1603620000d5576040517f2039d3c900000000000000000000000000000000000000000000000000000000815260040160405180910390fd5b8073ffffffffffffffffffffffffffffffffffffffff1660808173ffffffffffffffffffffffffffffffffffffffff1681525050505f73ffffffffffffffffffffffffffffffffffffffff168173ffffffffffffffffffffffffffffffffffffffff160362000170576040517f46a2950000000000000000000000000000000000000000000000000000000000815260040160405180910390fd5b8073ffffffffffffffffffffffffffffffffffffffff1660c08173ffffffffffffffffffffffffffffffffffffffff1681525050508073ffffffffffffffffffffffffffffffffffffffff1660e08173ffffffffffffffffffffffffffffffffffffffff1681525050505f73ffffffffffffffffffffffffffffffffffffffff168273ffffffffffffffffffffffffffffffffffffffff160362000240576040517fea98ea6600000000000000000000000000000000000000000000000000000000815260040160405180910390fd5b50508073ffffffffffffffffffffffffffffffffffffffff166101008173ffffffffffffffffffffffffffffffffffffffff16815250505050505062000355565b5f80fd5b5f73ffffffffffffffffffffffffffffffffffffffff82169050919050565b5f620002b08262000285565b9050919050565b620002c281620002a4565b8114620002cd575f80fd5b50565b5f81519050620002e081620002b7565b92915050565b5f805f806080858703121562000301576200030062000281565b5b5f6200031087828801620002d0565b94505060206200032387828801620002d0565b93505060406200033687828801620002d0565b92505060606200034987828801620002d0565b91505092959194509250565b60805160a05160c05160e051610100516157e1620003a85f395f6124bd01525f611b8301525f8181610cb801528181610e450152612f1e01525f8181610e660152612efd01525f611bd901526157e15ff3fe6080604052600436106101d0575f3560e01c806357d39e70116100f6578063bc197c8111610094578063dd46706411610063578063dd46706414610725578063ee9c60541461074d578063f23a6e6114610789578063fc0c546a146107c5576101df565b8063bc197c811461066b578063c19d93fb146106a7578063ce0617ec146106d1578063d087d288146106fb576101df565b80638da5cb5b116100d05780638da5cb5b146105b1578063a4e2d634146105db578063b0d691fe14610605578063b709467c1461062f576101df565b806357d39e70146105235780637a8f73561461055f5780637da0a87714610587576101df565b80631fb1ecf01161016e57806345a24e3e1161013d57806345a24e3e1461043f578063519454471461047b578063523e3260146104ab578063572b6c05146104e7576101df565b80631fb1ecf01461036757806334715fb1146103975780633a871cdd146103d357806343629a731461040f576101df565b8063150b7a02116101aa578063150b7a02146102775780631626ba7e146102b35780631e2eaeaf146102ef5780631f9838b51461032b576101df565b806301ffc9a7146101e9578063039721b114610225578063056d5afe1461024d576101df565b366101df576101dd6107f1565b005b6101e76107f1565b005b3480156101f4575f80fd5b5061020f600480360381019061020a9190613b1d565b6109ca565b60405161021c9190613b62565b60405180910390f35b348015610230575f80fd5b5061024b60048036038101906102469190613c31565b6109f9565b005b348015610258575f80fd5b50610261610cb6565b60405161026e9190613cee565b60405180910390f35b348015610282575f80fd5b5061029d60048036038101906102989190613e9c565b610cda565b6040516102aa9190613f2b565b60405180910390f35b3480156102be575f80fd5b506102d960048036038101906102d49190613fcc565b610d85565b6040516102e69190613f2b565b60405180910390f35b3480156102fa575f80fd5b5061031560048036038101906103109190614029565b610db3565b6040516103229190614063565b60405180910390f35b348015610336575f80fd5b50610351600480360381019061034c919061407c565b610dbd565b60405161035e9190613b62565b60405180910390f35b610381600480360381019061037c9190614145565b610de7565b60405161038e9190614276565b60405180910390f35b3480156103a2575f80fd5b506103bd60048036038101906103b89190614296565b61112e565b6040516103ca9190613cee565b60405180910390f35b3480156103de575f80fd5b506103f960048036038101906103f4919061432a565b61114d565b60405161040691906143a5565b60405180910390f35b61042960048036038101906104249190614413565b61117f565b6040516104369190614561565b60405180910390f35b34801561044a575f80fd5b5061046560048036038101906104609190614581565b61133a565b6040516104729190613cee565b60405180910390f35b610495600480360381019061049091906145de565b611399565b6040516104a29190614276565b60405180910390f35b3480156104b6575f80fd5b506104d160048036038101906104cc9190614662565b611401565b6040516104de9190613f2b565b60405180910390f35b3480156104f2575f80fd5b5061050d600480360381019061050891906146bf565b611471565b60405161051a9190613b62565b60405180910390f35b34801561052e575f80fd5b50610549600480360381019061054491906146ea565b6114af565b60405161055691906143a5565b60405180910390f35b34801561056a575f80fd5b50610585600480360381019061058091906147b6565b611855565b005b348015610592575f80fd5b5061059b611b80565b6040516105a89190613cee565b60405180910390f35b3480156105bc575f80fd5b506105c5611ba7565b6040516105d29190613cee565b60405180910390f35b3480156105e6575f80fd5b506105ef611bcc565b6040516105fc9190613b62565b60405180910390f35b348015610610575f80fd5b50610619611bd6565b604051610626919061488f565b60405180910390f35b34801561063a575f80fd5b50610655600480360381019061065091906148a8565b611bfd565b6040516106629190614276565b60405180910390f35b348015610676575f80fd5b50610691600480360381019061068c91906149d9565b611c5f565b60405161069e9190613f2b565b60405180910390f35b3480156106b2575f80fd5b506106bb611c7b565b6040516106c891906143a5565b60405180910390f35b3480156106dc575f80fd5b506106e5611c84565b6040516106f291906143a5565b60405180910390f35b348015610706575f80fd5b5061070f611c89565b60405161071c91906143a5565b60405180910390f35b348015610730575f80fd5b5061074b60048036038101906107469190614aa4565b611d10565b005b348015610758575f80fd5b50610773600480360381019061076e9190614acf565b611e8e565b6040516107809190613cee565b60405180910390f35b348015610794575f80fd5b506107af60048036038101906107aa9190614b0d565b611ecb565b6040516107bc9190613f2b565b60405180910390f35b3480156107d0575f80fd5b506107d9611ee7565b6040516107e893929190614ba0565b60405180910390f35b5f805f6107fc611efd565b9250925092505f61080e848484611f14565b90505f60015f8373ffffffffffffffffffffffffffffffffffffffff1673ffffffffffffffffffffffffffffffffffffffff1681526020019081526020015f205f80357fffffffff00000000000000000000000000000000000000000000000000000000167bffffffffffffffffffffffffffffffffffffffffffffffffffffffff19167bffffffffffffffffffffffffffffffffffffffffffffffffffffffff191681526020019081526020015f205f9054906101000a900473ffffffffffffffffffffffffffffffffffffffff1690505f73ffffffffffffffffffffffffffffffffffffffff168173ffffffffffffffffffffffffffffffffffffffff16146109c3575f61091d30611f39565b90505f808273ffffffffffffffffffffffffffffffffffffffff16845f363360405160200161094f9493929190614c48565b60405160208183030381529060405260405161096b9190614cb2565b5f604051808303815f865af19150503d805f81146109a4576040519150601f19603f3d011682016040523d82523d5f602084013e6109a9565b606091505b5091509150816109bb57805160208201fd5b805160208201f35b5050505050565b5f806109d583611f7a565b905080156109e75760019150506109f4565b6109ef611ff3565b5f9150505b919050565b5f805f610a04611efd565b9250925092505f610a16848484611f14565b90505f73ffffffffffffffffffffffffffffffffffffffff168173ffffffffffffffffffffffffffffffffffffffff1603610a7d576040517fea8e4eb500000000000000000000000000000000000000000000000000000000815260040160405180910390fd5b8073ffffffffffffffffffffffffffffffffffffffff163373ffffffffffffffffffffffffffffffffffffffff1614610ae2576040517fea8e4eb500000000000000000000000000000000000000000000000000000000815260040160405180910390fd5b610aea61219c565b5f888890509050808787905014610b2d576040517fb4fa3fb300000000000000000000000000000000000000000000000000000000815260040160405180910390fd5b5f5b81811015610caa57878782818110610b4a57610b49614cc8565b5b9050602002016020810190610b5f9190614d1f565b60025f8573ffffffffffffffffffffffffffffffffffffffff1673ffffffffffffffffffffffffffffffffffffffff1681526020019081526020015f205f8c8c85818110610bb057610baf614cc8565b5b9050602002016020810190610bc591906146bf565b73ffffffffffffffffffffffffffffffffffffffff1673ffffffffffffffffffffffffffffffffffffffff1681526020019081526020015f205f6101000a81548160ff0219169083151502179055507f394777a58092892d136a90c4bb7e4350c72ac50fba6a0208128677f36527dcf5838b8b84818110610c4957610c48614cc8565b5b9050602002016020810190610c5e91906146bf565b8a8a85818110610c7157610c70614cc8565b5b9050602002016020810190610c869190614d1f565b604051610c9593929190614d4a565b60405180910390a18080600101915050610b2f565b50505050505050505050565b7f000000000000000000000000000000000000000000000000000000000000000081565b5f805f80610ce6611efd565b9250925092508173ffffffffffffffffffffffffffffffffffffffff163373ffffffffffffffffffffffffffffffffffffffff16148015610d2657508086145b8015610d3157504683145b15610d68576040517fb79e3f3f00000000000000000000000000000000000000000000000000000000815260040160405180910390fd5b610d706107f1565b63150b7a0260e01b9350505050949350505050565b5f610d918484846121e5565b15610da557631626ba7e60e01b9050610dac565b5f60e01b90505b9392505050565b5f81549050919050565b6002602052815f5260405f20602052805f5260405f205f915091509054906101000a900460ff1681565b60605f8383905090505f610df96123d3565b9050365f5b838110156110c957868682818110610e1957610e18614cc8565b5b90506060020191505f826020016020810190610e3591906146bf565b90505f836040013590505f610e917f00000000000000000000000000000000000000000000000000000000000000007f0000000000000000000000000000000000000000000000000000000000000000875f01354687876123e1565b90505f8373ffffffffffffffffffffffffffffffffffffffff163b03610ee3576040517f414b749400000000000000000000000000000000000000000000000000000000815260040160405180910390fd5b5f8173ffffffffffffffffffffffffffffffffffffffff163b1115610fa7578073ffffffffffffffffffffffffffffffffffffffff1663a4e2d6346040518163ffffffff1660e01b8152600401602060405180830381865afa158015610f4b573d5f803e3d5ffd5b505050506040513d601f19601f82011682018060405250810190610f6f9190614d93565b15610fa6576040517f6315bfbb00000000000000000000000000000000000000000000000000000000815260040160405180910390fd5b5b8273ffffffffffffffffffffffffffffffffffffffff16636352211e836040518263ffffffff1660e01b8152600401610fe091906143a5565b602060405180830381865afa92505050801561101a57506040513d601f19601f820116820180604052508101906110179190614dd2565b60015b611050576040517f414b749400000000000000000000000000000000000000000000000000000000815260040160405180910390fd5b8673ffffffffffffffffffffffffffffffffffffffff168173ffffffffffffffffffffffffffffffffffffffff16146110b5576040517f414b749400000000000000000000000000000000000000000000000000000000815260040160405180910390fd5b819650505050508080600101915050610dfe565b506110d382612411565b611109576040517fea8e4eb500000000000000000000000000000000000000000000000000000000815260040160405180910390fd5b61111161262e565b61111e8b8b8b8b8b612677565b9350505050979650505050505050565b5f61113761288c565b611143858585856128fb565b9050949350505050565b5f6111566129bc565b6111608484612a33565b905061116f8460200135612a6f565b61117882612a72565b9392505050565b606061119161118c6123d3565b612411565b6111c7576040517fea8e4eb500000000000000000000000000000000000000000000000000000000815260040160405180910390fd5b6111cf61262e565b5f8383905090505f8167ffffffffffffffff8111156111f1576111f0613d78565b5b60405190808252806020026020018201604052801561122457816020015b606081526020019060019003908161120f5790505b5090505f5b8281101561132e5761130386868381811061124757611246614cc8565b5b90506020028101906112599190614e09565b5f01602081019061126a91906146bf565b87878481811061127d5761127c614cc8565b5b905060200281019061128f9190614e09565b602001358888858181106112a6576112a5614cc8565b5b90506020028101906112b89190614e09565b80604001906112c79190614e30565b8a8a878181106112da576112d9614cc8565b5b90506020028101906112ec9190614e09565b60600160208101906112fe9190614e92565b612677565b82828151811061131657611315614cc8565b5b60200260200101819052508080600101915050611229565b50809250505092915050565b5f61134361288c565b6113908484848080601f0160208091040260200160405190810160405280939291908181526020018383808284375f81840152601f19601f82011690508083019250505050505050612b09565b90509392505050565b60606113ab6113a66123d3565b612411565b6113e1576040517fea8e4eb500000000000000000000000000000000000000000000000000000000815260040160405180910390fd5b6113e961262e565b6113f68686868686612677565b905095945050505050565b5f61144f8484848080601f0160208091040260200160405190810160405280939291908181526020018383808284375f81840152601f19601f82011690508083019250505050505050612b84565b156114635763523e326060e01b905061146a565b5f60e01b90505b9392505050565b5f61147a611b80565b73ffffffffffffffffffffffffffffffffffffffff168273ffffffffffffffffffffffffffffffffffffffff16149050919050565b5f73a28cd3034f9ceb2c56bcd2c7dffd400fe83b522c73ffffffffffffffffffffffffffffffffffffffff163373ffffffffffffffffffffffffffffffffffffffff1614611532576040517f08c379a000000000000000000000000000000000000000000000000000000000815260040161152990614f17565b60405180910390fd5b5f8690505f73e592427a0aece92de3edee1f18e0157c058615649050858273ffffffffffffffffffffffffffffffffffffffff166370a08231306040518263ffffffff1660e01b81526004016115889190613cee565b602060405180830381865afa1580156115a3573d5f803e3d5ffd5b505050506040513d601f19601f820116820180604052508101906115c79190614f49565b1015611608576040517f08c379a00000000000000000000000000000000000000000000000000000000081526004016115ff90614fbe565b60405180910390fd5b5f84866116159190615009565b90505f6116228883612c4c565b90508373ffffffffffffffffffffffffffffffffffffffff1663095ea7b3848a6040518363ffffffff1660e01b815260040161165f92919061503c565b6020604051808303815f875af115801561167b573d5f803e3d5ffd5b505050506040513d601f19601f8201168201806040525081019061169f9190614d93565b508373ffffffffffffffffffffffffffffffffffffffff1663a9059cbb73449f07dc7616c43b47dbe8cf57dc1f6e34ef82f8846040518363ffffffff1660e01b81526004016116ef92919061503c565b6020604051808303815f875af115801561170b573d5f803e3d5ffd5b505050506040513d601f19601f8201168201806040525081019061172f9190614d93565b505f6040518061010001604052808c73ffffffffffffffffffffffffffffffffffffffff1681526020018b73ffffffffffffffffffffffffffffffffffffffff168152602001610bb862ffffff1681526020013073ffffffffffffffffffffffffffffffffffffffff1681526020014281526020018381526020015f81526020015f73ffffffffffffffffffffffffffffffffffffffff1681525090508373ffffffffffffffffffffffffffffffffffffffff1663414bf389826040518263ffffffff1660e01b8152600401611805919061514d565b6020604051808303815f875af1158015611821573d5f803e3d5ffd5b505050506040513d601f19601f820116820180604052508101906118459190614f49565b9550505050505095945050505050565b5f805f611860611efd565b9250925092505f611872848484611f14565b90505f73ffffffffffffffffffffffffffffffffffffffff168173ffffffffffffffffffffffffffffffffffffffff16036118d9576040517fea8e4eb500000000000000000000000000000000000000000000000000000000815260040160405180910390fd5b8073ffffffffffffffffffffffffffffffffffffffff163373ffffffffffffffffffffffffffffffffffffffff161461193e576040517fea8e4eb500000000000000000000000000000000000000000000000000000000815260040160405180910390fd5b611946612c61565b5f61195030611f39565b90505f8173ffffffffffffffffffffffffffffffffffffffff163b0361197a5761197930612caa565b5b5f8989905090508088889050146119bd576040517fb4fa3fb300000000000000000000000000000000000000000000000000000000815260040160405180910390fd5b5f5b81811015611b73578888828181106119da576119d9614cc8565b5b90506020020160208101906119ef91906146bf565b60015f8673ffffffffffffffffffffffffffffffffffffffff1673ffffffffffffffffffffffffffffffffffffffff1681526020019081526020015f205f8d8d85818110611a4057611a3f614cc8565b5b9050602002016020810190611a559190613b1d565b7bffffffffffffffffffffffffffffffffffffffffffffffffffffffff19167bffffffffffffffffffffffffffffffffffffffffffffffffffffffff191681526020019081526020015f205f6101000a81548173ffffffffffffffffffffffffffffffffffffffff021916908373ffffffffffffffffffffffffffffffffffffffff1602179055507f2c722487e90aca38ec1b074c3403210bd2bfb769b4da7f12f7bf0b9e37517c18848c8c84818110611b1257611b11614cc8565b5b9050602002016020810190611b279190613b1d565b8b8b85818110611b3a57611b39614cc8565b5b9050602002016020810190611b4f91906146bf565b604051611b5e93929190615167565b60405180910390a180806001019150506119bf565b5050505050505050505050565b5f7f0000000000000000000000000000000000000000000000000000000000000000905090565b5f805f80611bb3611efd565b925092509250611bc4838383612ce1565b935050505090565b5f425f5411905090565b5f7f0000000000000000000000000000000000000000000000000000000000000000905090565b6060611c0761288c565b611c55858585858080601f0160208091040260200160405190810160405280939291908181526020018383808284375f81840152601f19601f82011690508083019250505050505050612da2565b9050949350505050565b5f611c686107f1565b63bc197c8160e01b905095945050505050565b5f600354905090565b5f5481565b5f611c92611bd6565b73ffffffffffffffffffffffffffffffffffffffff166335567e1a305f6040518363ffffffff1660e01b8152600401611ccc9291906151f8565b602060405180830381865afa158015611ce7573d5f803e3d5ffd5b505050506040513d601f19601f82011682018060405250810190611d0b9190614f49565b905090565b5f805f611d1b611efd565b9250925092505f611d2d848484611f14565b90505f73ffffffffffffffffffffffffffffffffffffffff168173ffffffffffffffffffffffffffffffffffffffff1603611d94576040517fea8e4eb500000000000000000000000000000000000000000000000000000000815260040160405180910390fd5b8073ffffffffffffffffffffffffffffffffffffffff163373ffffffffffffffffffffffffffffffffffffffff1614611df9576040517fea8e4eb500000000000000000000000000000000000000000000000000000000815260040160405180910390fd5b6301e1338042611e099190615009565b851115611e42576040517f0c0a7be800000000000000000000000000000000000000000000000000000000815260040160405180910390fd5b611e4a612e28565b845f819055507fa7b24c66dd3269a292a60b3facdbb8f3e7557d1e19e64d99e0d6ee7250be63ad85604051611e7f91906143a5565b60405180910390a15050505050565b6001602052815f5260405f20602052805f5260405f205f915091509054906101000a900473ffffffffffffffffffffffffffffffffffffffff1681565b5f611ed46107f1565b63f23a6e6160e01b905095945050505050565b5f805f611ef2611efd565b925092509250909192565b5f805f611f0930612e71565b925092509250909192565b5f80611f21858585612ce1565b9050611f2f81868686612ef1565b9150509392505050565b5f611f737f97f795a08410e77dc9dbbaba3915f17c601e45642518dd578bd440d8775bfee4611f6784612fde565b80519060200120613058565b9050919050565b5f7f51945447000000000000000000000000000000000000000000000000000000007bffffffffffffffffffffffffffffffffffffffffffffffffffffffff1916827bffffffffffffffffffffffffffffffffffffffffffffffffffffffff19161480611fec5750611feb8261306c565b5b9050919050565b5f805f611ffe611efd565b9250925092505f612010848484611f14565b90505f60015f8373ffffffffffffffffffffffffffffffffffffffff1673ffffffffffffffffffffffffffffffffffffffff1681526020019081526020015f205f80357fffffffff00000000000000000000000000000000000000000000000000000000167bffffffffffffffffffffffffffffffffffffffffffffffffffffffff19167bffffffffffffffffffffffffffffffffffffffffffffffffffffffff191681526020019081526020015f205f9054906101000a900473ffffffffffffffffffffffffffffffffffffffff1690505f73ffffffffffffffffffffffffffffffffffffffff168173ffffffffffffffffffffffffffffffffffffffff1614612195575f808273ffffffffffffffffffffffffffffffffffffffff165f3660405161213e92919061521f565b5f60405180830381855afa9150503d805f8114612176576040519150601f19603f3d011682016040523d82523d5f602084013e61217b565b606091505b50915091508161218d57805160208201fd5b805160208201f35b5050505050565b6121a4611bcc565b156121db576040517f6315bfbb00000000000000000000000000000000000000000000000000000000815260040160405180910390fd5b6121e36130e5565b565b5f80838360408181106121fb576121fa614cc8565b5b9050013560f81c60f81b60f81c90505f808260ff16036123285784845f906020926122289392919061523f565b90612233919061528f565b5f1c905061224f8160405180602001604052805f815250612b84565b15801561228857503073ffffffffffffffffffffffffffffffffffffffff168173ffffffffffffffffffffffffffffffffffffffff1614155b15612297575f925050506123cc565b365f868688886020906040926122af9392919061523f565b906122ba919061528f565b5f1c9080926122cb9392919061523f565b9150915061231d838984848080601f0160208091040260200160405190810160405280939291908181526020018383808284375f81840152601f19601f82011690508083019250505050505050613122565b9450505050506123cc565b5f6123768787878080601f0160208091040260200160405190810160405280939291908181526020018383808284375f81840152601f19601f82011690508083019250505050505050613241565b91505f600381111561238b5761238a6152ed565b5b81600381111561239e5761239d6152ed565b5b146123ae575f93505050506123cc565b6123c68260405180602001604052805f815250612b84565b93505050505b9392505050565b5f6123dc61326b565b905090565b5f806123f087878787876132ac565b80519060200120905061240486828a61331a565b9150509695505050505050565b5f61241a611bd6565b73ffffffffffffffffffffffffffffffffffffffff168273ffffffffffffffffffffffffffffffffffffffff16036124555760019050612629565b5f805f612460611efd565b925092509250468314612565573073ffffffffffffffffffffffffffffffffffffffff1661249461248f6123d3565b613344565b73ffffffffffffffffffffffffffffffffffffffff16036124bb5760019350505050612629565b7f000000000000000000000000000000000000000000000000000000000000000073ffffffffffffffffffffffffffffffffffffffff1663672657ca866040518263ffffffff1660e01b81526004016125149190613cee565b602060405180830381865afa15801561252f573d5f803e3d5ffd5b505050506040513d601f19601f820116820180604052508101906125539190614d93565b156125645760019350505050612629565b5b5f612571848484612ce1565b90508073ffffffffffffffffffffffffffffffffffffffff168673ffffffffffffffffffffffffffffffffffffffff16036125b3576001945050505050612629565b5f6125c082868686612ef1565b90508073ffffffffffffffffffffffffffffffffffffffff168773ffffffffffffffffffffffffffffffffffffffff160361260357600195505050505050612629565b61260d8782613363565b1561262057600195505050505050612629565b5f955050505050505b919050565b612636611bcc565b1561266d576040517f6315bfbb00000000000000000000000000000000000000000000000000000000815260040160405180910390fd5b6126756130e5565b565b60605f60ff168260ff16036126db576126d4868686868080601f0160208091040260200160405190810160405280939291908181526020018383808284375f81840152601f19601f82011690508083019250505050505050612da2565b9050612883565b600160ff168260ff1603612753575f6126f330611f39565b90505f8173ffffffffffffffffffffffffffffffffffffffff163b0361271d5761271c30612caa565b5b61274b81878988886040516020016127379392919061531a565b604051602081830303815290604052612da2565b915050612883565b600260ff168260ff16036127d4576127ae8585858080601f0160208091040260200160405190810160405280939291908181526020018383808284375f81840152601f19601f82011690508083019250505050505050612b09565b6040516020016127be9190615343565b6040516020818303038152906040529050612883565b600360ff168260ff1603612851575f84845f906020926127f69392919061523f565b90612801919061528f565b9050365f868660209080926128189392919061523f565b91509150612828888484846128fb565b6040516020016128389190615343565b6040516020818303038152906040529350505050612883565b6040517f398d4d3200000000000000000000000000000000000000000000000000000000815260040160405180910390fd5b95945050505050565b61289530611f39565b73ffffffffffffffffffffffffffffffffffffffff163373ffffffffffffffffffffffffffffffffffffffff16146128f9576040517fea8e4eb500000000000000000000000000000000000000000000000000000000815260040160405180910390fd5b565b5f8083838080601f0160208091040260200160405190810160405280939291908181526020018383808284375f81840152601f19601f8201169050808301925050505050505090508481516020830188f591505f73ffffffffffffffffffffffffffffffffffffffff168273ffffffffffffffffffffffffffffffffffffffff16036129b3576040517fa28c247300000000000000000000000000000000000000000000000000000000815260040160405180910390fd5b50949350505050565b6129c4611bd6565b73ffffffffffffffffffffffffffffffffffffffff163373ffffffffffffffffffffffffffffffffffffffff1614612a31576040517f08c379a0000000000000000000000000000000000000000000000000000000008152600401612a28906153a7565b60405180910390fd5b565b5f612a57612a4184846133f1565b84806101400190612a529190614e30565b6121e5565b15612a64575f9050612a69565b600190505b92915050565b50565b5f8114612b06575f3373ffffffffffffffffffffffffffffffffffffffff16827fffffffffffffffffffffffffffffffffffffffffffffffffffffffffffffffff90604051612ac0906153e8565b5f60405180830381858888f193505050503d805f8114612afb576040519150601f19603f3d011682016040523d82523d5f602084013e612b00565b606091505b50509050505b50565b5f8082905080516020820185f091505f73ffffffffffffffffffffffffffffffffffffffff168273ffffffffffffffffffffffffffffffffffffffff1603612b7d576040517fa28c247300000000000000000000000000000000000000000000000000000000815260040160405180910390fd5b5092915050565b5f805f80612b90611efd565b9250925092505f612ba2848484612ce1565b90508073ffffffffffffffffffffffffffffffffffffffff168773ffffffffffffffffffffffffffffffffffffffff1603612be4576001945050505050612c46565b5f612bf182868686612ef1565b90508073ffffffffffffffffffffffffffffffffffffffff168873ffffffffffffffffffffffffffffffffffffffff1603612c3457600195505050505050612c46565b612c3e8882613363565b955050505050505b92915050565b5f8183612c5991906153fc565b905092915050565b612c69611bcc565b15612ca0576040517f6315bfbb00000000000000000000000000000000000000000000000000000000815260040160405180910390fd5b612ca86130e5565b565b612cdd5f7f97f795a08410e77dc9dbbaba3915f17c601e45642518dd578bd440d8775bfee4612cd884612fde565b613403565b5050565b5f468414612cf1575f9050612d9b565b5f8373ffffffffffffffffffffffffffffffffffffffff163b03612d17575f9050612d9b565b8273ffffffffffffffffffffffffffffffffffffffff16636352211e836040518263ffffffff1660e01b8152600401612d5091906143a5565b602060405180830381865afa925050508015612d8a57506040513d601f19601f82011682018060405250810190612d879190614dd2565b60015b612d96575f9050612d9b565b809150505b9392505050565b60605f8473ffffffffffffffffffffffffffffffffffffffff168484604051612dcb9190614cb2565b5f6040518083038185875af1925050503d805f8114612e05576040519150601f19603f3d011682016040523d82523d5f602084013e612e0a565b606091505b50809350819250505080612e2057815160208301fd5b509392505050565b612e30611bcc565b15612e67576040517f6315bfbb00000000000000000000000000000000000000000000000000000000815260040160405180910390fd5b612e6f6130e5565b565b5f805f80606067ffffffffffffffff811115612e9057612e8f613d78565b5b6040519080825280601f01601f191660200182016040528015612ec25781602001600182028036833780820191505090505b5090506060604d60208301873c80806020019051810190612ee3919061546a565b935093509350509193909250565b5f808590505b612f42817f00000000000000000000000000000000000000000000000000000000000000007f00000000000000000000000000000000000000000000000000000000000000006134fc565b15612fd2578073ffffffffffffffffffffffffffffffffffffffff1663fc0c546a6040518163ffffffff1660e01b8152600401606060405180830381865afa158015612f90573d5f803e3d5ffd5b505050506040513d601f19601f82011682018060405250810190612fb491906154ba565b809550819650829750505050612fcb858585612ce1565b9050612ef7565b80915050949350505050565b60606040518060400160405280600e81526020017f604380600d600039806000f3fe73000000000000000000000000000000000000815250826040518060600160405280602e815260200161577e602e91396040516020016130429392919061550a565b6040516020818303038152906040529050919050565b5f61306483833061331a565b905092915050565b5f7f6faff5f1000000000000000000000000000000000000000000000000000000007bffffffffffffffffffffffffffffffffffffffffffffffffffffffff1916827bffffffffffffffffffffffffffffffffffffffffffffffffffffffff191614806130de57506130dd826135f3565b5b9050919050565b6003546130f061366c565b6040516020016131029392919061556a565b604051602081830303815290604052805190602001205f1c600381905550565b5f805f8573ffffffffffffffffffffffffffffffffffffffff16858560405160240161314f92919061559a565b604051602081830303815290604052631626ba7e60e01b6020820180517bffffffffffffffffffffffffffffffffffffffffffffffffffffffff83818316178352505050506040516131a19190614cb2565b5f60405180830381855afa9150503d805f81146131d9576040519150601f19603f3d011682016040523d82523d5f602084013e6131de565b606091505b50915091508180156131f257506020815110155b80156132365750631626ba7e60e01b7bffffffffffffffffffffffffffffffffffffffffffffffffffffffff19168180602001905181019061323491906155dc565b145b925050509392505050565b5f805f8061324f868661367e565b92509250925061325f82826136d3565b82935050505092915050565b5f61327533611471565b8015613285575060145f36905010155b1561329957601436033560601c90506132a8565b6132a1613835565b90506132a9565b5b90565b606060405190508160b78201528260601b60601c60978201528360778201528460578201526e5af43d82803e903d91602b57fd5bf36037820152856028820152733d60ad80600a3d3981f3363d3d373d3d3d363d73601482015260b7815260d7810160405295945050505050565b5f604051836040820152846020820152828152600b810160ff815360558120925050509392505050565b5f73111100000000000000000000000000000000111182039050919050565b5f60025f8373ffffffffffffffffffffffffffffffffffffffff1673ffffffffffffffffffffffffffffffffffffffff1681526020019081526020015f205f8473ffffffffffffffffffffffffffffffffffffffff1673ffffffffffffffffffffffffffffffffffffffff1681526020019081526020015f205f9054906101000a900460ff16905092915050565b5f6133fb8261383c565b905092915050565b5f8347101561344b5747846040517fe4bbecac000000000000000000000000000000000000000000000000000000008152600401613442929190615607565b60405180910390fd5b5f825103613485576040517f4ca249dc00000000000000000000000000000000000000000000000000000000815260040160405180910390fd5b8282516020840186f590505f73ffffffffffffffffffffffffffffffffffffffff168173ffffffffffffffffffffffffffffffffffffffff16036134f5576040517f741752c200000000000000000000000000000000000000000000000000000000815260040160405180910390fd5b9392505050565b5f60ad8473ffffffffffffffffffffffffffffffffffffffff163b14613524575f90506135ec565b5f61352e8561386b565b90505f8173ffffffffffffffffffffffffffffffffffffffff163b03613557575f9150506135ec565b8373ffffffffffffffffffffffffffffffffffffffff168173ffffffffffffffffffffffffffffffffffffffff1614613593575f9150506135ec565b5f805f806135a08961387d565b93509350935093506135b68786868686866123e1565b73ffffffffffffffffffffffffffffffffffffffff168973ffffffffffffffffffffffffffffffffffffffff1614955050505050505b9392505050565b5f7f4e2312e0000000000000000000000000000000000000000000000000000000007bffffffffffffffffffffffffffffffffffffffffffffffffffffffff1916827bffffffffffffffffffffffffffffffffffffffffffffffffffffffff19161480613665575061366482613900565b5b9050919050565b365f613676613969565b915091509091565b5f805f60418451036136be575f805f602087015192506040870151915060608701515f1a90506136b0888285856139c4565b9550955095505050506136cc565b5f600285515f1b9250925092505b9250925092565b5f60038111156136e6576136e56152ed565b5b8260038111156136f9576136f86152ed565b5b03156138315760016003811115613713576137126152ed565b5b826003811115613726576137256152ed565b5b0361375d576040517ff645eedf00000000000000000000000000000000000000000000000000000000815260040160405180910390fd5b60026003811115613771576137706152ed565b5b826003811115613784576137836152ed565b5b036137c857805f1c6040517ffce698f70000000000000000000000000000000000000000000000000000000081526004016137bf91906143a5565b60405180910390fd5b6003808111156137db576137da6152ed565b5b8260038111156137ee576137ed6152ed565b5b0361383057806040517fd78bce0c0000000000000000000000000000000000000000000000000000000081526004016138279190614063565b60405180910390fd5b5b5050565b5f33905090565b5f8160405160200161384e91906156a2565b604051602081830303815290604052805190602001209050919050565b5f6014600a600c843c5f519050919050565b5f805f805f608067ffffffffffffffff81111561389d5761389c613d78565b5b6040519080825280601f01601f1916602001820160405280156138cf5781602001600182028036833780820191505090505b5090506080602d60208301883c808060200190518101906138f091906156c7565b9450945094509450509193509193565b5f7f01ffc9a7000000000000000000000000000000000000000000000000000000007bffffffffffffffffffffffffffffffffffffffffffffffffffffffff1916827bffffffffffffffffffffffffffffffffffffffffffffffffffffffff1916149050919050565b365f61397433611471565b8015613984575060145f36905010155b156139b3575f365f9060145f36905061399d91906153fc565b926139aa9392919061523f565b915091506139c0565b6139bb613aab565b915091505b9091565b5f805f7f7fffffffffffffffffffffffffffffff5d576e7357a4501ddfe92f46681b20a0845f1c1115613a00575f600385925092509250613aa1565b5f6001888888886040515f8152602001604052604051613a23949392919061573a565b6020604051602081039080840390855afa158015613a43573d5f803e3d5ffd5b5050506020604051035190505f73ffffffffffffffffffffffffffffffffffffffff168173ffffffffffffffffffffffffffffffffffffffff1603613a94575f60015f801b93509350935050613aa1565b805f805f1b935093509350505b9450945094915050565b365f8036915091509091565b5f604051905090565b5f80fd5b5f80fd5b5f7fffffffff0000000000000000000000000000000000000000000000000000000082169050919050565b613afc81613ac8565b8114613b06575f80fd5b50565b5f81359050613b1781613af3565b92915050565b5f60208284031215613b3257613b31613ac0565b5b5f613b3f84828501613b09565b91505092915050565b5f8115159050919050565b613b5c81613b48565b82525050565b5f602082019050613b755f830184613b53565b92915050565b5f80fd5b5f80fd5b5f80fd5b5f8083601f840112613b9c57613b9b613b7b565b5b8235905067ffffffffffffffff811115613bb957613bb8613b7f565b5b602083019150836020820283011115613bd557613bd4613b83565b5b9250929050565b5f8083601f840112613bf157613bf0613b7b565b5b8235905067ffffffffffffffff811115613c0e57613c0d613b7f565b5b602083019150836020820283011115613c2a57613c29613b83565b5b9250929050565b5f805f8060408587031215613c4957613c48613ac0565b5b5f85013567ffffffffffffffff811115613c6657613c65613ac4565b5b613c7287828801613b87565b9450945050602085013567ffffffffffffffff811115613c9557613c94613ac4565b5b613ca187828801613bdc565b925092505092959194509250565b5f73ffffffffffffffffffffffffffffffffffffffff82169050919050565b5f613cd882613caf565b9050919050565b613ce881613cce565b82525050565b5f602082019050613d015f830184613cdf565b92915050565b613d1081613cce565b8114613d1a575f80fd5b50565b5f81359050613d2b81613d07565b92915050565b5f819050919050565b613d4381613d31565b8114613d4d575f80fd5b50565b5f81359050613d5e81613d3a565b92915050565b5f80fd5b5f601f19601f8301169050919050565b7f4e487b71000000000000000000000000000000000000000000000000000000005f52604160045260245ffd5b613dae82613d68565b810181811067ffffffffffffffff82111715613dcd57613dcc613d78565b5b80604052505050565b5f613ddf613ab7565b9050613deb8282613da5565b919050565b5f67ffffffffffffffff821115613e0a57613e09613d78565b5b613e1382613d68565b9050602081019050919050565b828183375f83830152505050565b5f613e40613e3b84613df0565b613dd6565b905082815260208101848484011115613e5c57613e5b613d64565b5b613e67848285613e20565b509392505050565b5f82601f830112613e8357613e82613b7b565b5b8135613e93848260208601613e2e565b91505092915050565b5f805f8060808587031215613eb457613eb3613ac0565b5b5f613ec187828801613d1d565b9450506020613ed287828801613d1d565b9350506040613ee387828801613d50565b925050606085013567ffffffffffffffff811115613f0457613f03613ac4565b5b613f1087828801613e6f565b91505092959194509250565b613f2581613ac8565b82525050565b5f602082019050613f3e5f830184613f1c565b92915050565b5f819050919050565b613f5681613f44565b8114613f60575f80fd5b50565b5f81359050613f7181613f4d565b92915050565b5f8083601f840112613f8c57613f8b613b7b565b5b8235905067ffffffffffffffff811115613fa957613fa8613b7f565b5b602083019150836001820283011115613fc557613fc4613b83565b5b9250929050565b5f805f60408486031215613fe357613fe2613ac0565b5b5f613ff086828701613f63565b935050602084013567ffffffffffffffff81111561401157614010613ac4565b5b61401d86828701613f77565b92509250509250925092565b5f6020828403121561403e5761403d613ac0565b5b5f61404b84828501613f63565b91505092915050565b61405d81613f44565b82525050565b5f6020820190506140765f830184614054565b92915050565b5f806040838503121561409257614091613ac0565b5b5f61409f85828601613d1d565b92505060206140b085828601613d1d565b9150509250929050565b5f60ff82169050919050565b6140cf816140ba565b81146140d9575f80fd5b50565b5f813590506140ea816140c6565b92915050565b5f8083601f84011261410557614104613b7b565b5b8235905067ffffffffffffffff81111561412257614121613b7f565b5b60208301915083606082028301111561413e5761413d613b83565b5b9250929050565b5f805f805f805f60a0888a0312156141605761415f613ac0565b5b5f61416d8a828b01613d1d565b975050602061417e8a828b01613d50565b965050604088013567ffffffffffffffff81111561419f5761419e613ac4565b5b6141ab8a828b01613f77565b955095505060606141be8a828b016140dc565b935050608088013567ffffffffffffffff8111156141df576141de613ac4565b5b6141eb8a828b016140f0565b925092505092959891949750929550565b5f81519050919050565b5f82825260208201905092915050565b5f5b83811015614233578082015181840152602081019050614218565b5f8484015250505050565b5f614248826141fc565b6142528185614206565b9350614262818560208601614216565b61426b81613d68565b840191505092915050565b5f6020820190508181035f83015261428e818461423e565b905092915050565b5f805f80606085870312156142ae576142ad613ac0565b5b5f6142bb87828801613d50565b94505060206142cc87828801613f63565b935050604085013567ffffffffffffffff8111156142ed576142ec613ac4565b5b6142f987828801613f77565b925092505092959194509250565b5f80fd5b5f610160828403121561432157614320614307565b5b81905092915050565b5f805f6060848603121561434157614340613ac0565b5b5f84013567ffffffffffffffff81111561435e5761435d613ac4565b5b61436a8682870161430b565b935050602061437b86828701613f63565b925050604061438c86828701613d50565b9150509250925092565b61439f81613d31565b82525050565b5f6020820190506143b85f830184614396565b92915050565b5f8083601f8401126143d3576143d2613b7b565b5b8235905067ffffffffffffffff8111156143f0576143ef613b7f565b5b60208301915083602082028301111561440c5761440b613b83565b5b9250929050565b5f806020838503121561442957614428613ac0565b5b5f83013567ffffffffffffffff81111561444657614445613ac4565b5b614452858286016143be565b92509250509250929050565b5f81519050919050565b5f82825260208201905092915050565b5f819050602082019050919050565b5f82825260208201905092915050565b5f6144a1826141fc565b6144ab8185614487565b93506144bb818560208601614216565b6144c481613d68565b840191505092915050565b5f6144da8383614497565b905092915050565b5f602082019050919050565b5f6144f88261445e565b6145028185614468565b93508360208202850161451485614478565b805f5b8581101561454f578484038952815161453085826144cf565b945061453b836144e2565b925060208a01995050600181019050614517565b50829750879550505050505092915050565b5f6020820190508181035f83015261457981846144ee565b905092915050565b5f805f6040848603121561459857614597613ac0565b5b5f6145a586828701613d50565b935050602084013567ffffffffffffffff8111156145c6576145c5613ac4565b5b6145d286828701613f77565b92509250509250925092565b5f805f805f608086880312156145f7576145f6613ac0565b5b5f61460488828901613d1d565b955050602061461588828901613d50565b945050604086013567ffffffffffffffff81111561463657614635613ac4565b5b61464288828901613f77565b93509350506060614655888289016140dc565b9150509295509295909350565b5f805f6040848603121561467957614678613ac0565b5b5f61468686828701613d1d565b935050602084013567ffffffffffffffff8111156146a7576146a6613ac4565b5b6146b386828701613f77565b92509250509250925092565b5f602082840312156146d4576146d3613ac0565b5b5f6146e184828501613d1d565b91505092915050565b5f805f805f60a0868803121561470357614702613ac0565b5b5f61471088828901613d1d565b955050602061472188828901613d1d565b945050604061473288828901613d50565b935050606061474388828901613d50565b925050608061475488828901613d50565b9150509295509295909350565b5f8083601f84011261477657614775613b7b565b5b8235905067ffffffffffffffff81111561479357614792613b7f565b5b6020830191508360208202830111156147af576147ae613b83565b5b9250929050565b5f805f80604085870312156147ce576147cd613ac0565b5b5f85013567ffffffffffffffff8111156147eb576147ea613ac4565b5b6147f787828801614761565b9450945050602085013567ffffffffffffffff81111561481a57614819613ac4565b5b61482687828801613b87565b925092505092959194509250565b5f819050919050565b5f61485761485261484d84613caf565b614834565b613caf565b9050919050565b5f6148688261483d565b9050919050565b5f6148798261485e565b9050919050565b6148898161486f565b82525050565b5f6020820190506148a25f830184614880565b92915050565b5f805f80606085870312156148c0576148bf613ac0565b5b5f6148cd87828801613d1d565b94505060206148de87828801613d50565b935050604085013567ffffffffffffffff8111156148ff576148fe613ac4565b5b61490b87828801613f77565b925092505092959194509250565b5f67ffffffffffffffff82111561493357614932613d78565b5b602082029050602081019050919050565b5f61495661495184614919565b613dd6565b9050808382526020820190506020840283018581111561497957614978613b83565b5b835b818110156149a2578061498e8882613d50565b84526020840193505060208101905061497b565b5050509392505050565b5f82601f8301126149c0576149bf613b7b565b5b81356149d0848260208601614944565b91505092915050565b5f805f805f60a086880312156149f2576149f1613ac0565b5b5f6149ff88828901613d1d565b9550506020614a1088828901613d1d565b945050604086013567ffffffffffffffff811115614a3157614a30613ac4565b5b614a3d888289016149ac565b935050606086013567ffffffffffffffff811115614a5e57614a5d613ac4565b5b614a6a888289016149ac565b925050608086013567ffffffffffffffff811115614a8b57614a8a613ac4565b5b614a9788828901613e6f565b9150509295509295909350565b5f60208284031215614ab957614ab8613ac0565b5b5f614ac684828501613d50565b91505092915050565b5f8060408385031215614ae557614ae4613ac0565b5b5f614af285828601613d1d565b9250506020614b0385828601613b09565b9150509250929050565b5f805f805f60a08688031215614b2657614b25613ac0565b5b5f614b3388828901613d1d565b9550506020614b4488828901613d1d565b9450506040614b5588828901613d50565b9350506060614b6688828901613d50565b925050608086013567ffffffffffffffff811115614b8757614b86613ac4565b5b614b9388828901613e6f565b9150509295509295909350565b5f606082019050614bb35f830186614396565b614bc06020830185613cdf565b614bcd6040830184614396565b949350505050565b5f8160601b9050919050565b5f614beb82614bd5565b9050919050565b5f614bfc82614be1565b9050919050565b614c14614c0f82613cce565b614bf2565b82525050565b5f81905092915050565b5f614c2f8385614c1a565b9350614c3c838584613e20565b82840190509392505050565b5f614c538287614c03565b601482019150614c64828587614c24565b9150614c708284614c03565b60148201915081905095945050505050565b5f614c8c826141fc565b614c968185614c1a565b9350614ca6818560208601614216565b80840191505092915050565b5f614cbd8284614c82565b915081905092915050565b7f4e487b71000000000000000000000000000000000000000000000000000000005f52603260045260245ffd5b614cfe81613b48565b8114614d08575f80fd5b50565b5f81359050614d1981614cf5565b92915050565b5f60208284031215614d3457614d33613ac0565b5b5f614d4184828501614d0b565b91505092915050565b5f606082019050614d5d5f830186613cdf565b614d6a6020830185613cdf565b614d776040830184613b53565b949350505050565b5f81519050614d8d81614cf5565b92915050565b5f60208284031215614da857614da7613ac0565b5b5f614db584828501614d7f565b91505092915050565b5f81519050614dcc81613d07565b92915050565b5f60208284031215614de757614de6613ac0565b5b5f614df484828501614dbe565b91505092915050565b5f80fd5b5f80fd5b5f80fd5b5f82356001608003833603038112614e2457614e23614dfd565b5b80830191505092915050565b5f8083356001602003843603038112614e4c57614e4b614dfd565b5b80840192508235915067ffffffffffffffff821115614e6e57614e6d614e01565b5b602083019250600182023603831315614e8a57614e89614e05565b5b509250929050565b5f60208284031215614ea757614ea6613ac0565b5b5f614eb4848285016140dc565b91505092915050565b5f82825260208201905092915050565b7f4e6f7420426f742057616c6c65740000000000000000000000000000000000005f82015250565b5f614f01600e83614ebd565b9150614f0c82614ecd565b602082019050919050565b5f6020820190508181035f830152614f2e81614ef5565b9050919050565b5f81519050614f4381613d3a565b92915050565b5f60208284031215614f5e57614f5d613ac0565b5b5f614f6b84828501614f35565b91505092915050565b7f4e6f7420656e6f756768205553444300000000000000000000000000000000005f82015250565b5f614fa8600f83614ebd565b9150614fb382614f74565b602082019050919050565b5f6020820190508181035f830152614fd581614f9c565b9050919050565b7f4e487b71000000000000000000000000000000000000000000000000000000005f52601160045260245ffd5b5f61501382613d31565b915061501e83613d31565b925082820190508082111561503657615035614fdc565b5b92915050565b5f60408201905061504f5f830185613cdf565b61505c6020830184614396565b9392505050565b61506c81613cce565b82525050565b5f62ffffff82169050919050565b61508981615072565b82525050565b61509881613d31565b82525050565b6150a781613caf565b82525050565b61010082015f8201516150c25f850182615063565b5060208201516150d56020850182615063565b5060408201516150e86040850182615080565b5060608201516150fb6060850182615063565b50608082015161510e608085018261508f565b5060a082015161512160a085018261508f565b5060c082015161513460c085018261508f565b5060e082015161514760e085018261509e565b50505050565b5f610100820190506151615f8301846150ad565b92915050565b5f60608201905061517a5f830186613cdf565b6151876020830185613f1c565b6151946040830184613cdf565b949350505050565b5f819050919050565b5f77ffffffffffffffffffffffffffffffffffffffffffffffff82169050919050565b5f6151e26151dd6151d88461519c565b614834565b6151a5565b9050919050565b6151f2816151c8565b82525050565b5f60408201905061520b5f830185613cdf565b61521860208301846151e9565b9392505050565b5f61522b828486614c24565b91508190509392505050565b5f80fd5b5f80fd5b5f808585111561525257615251615237565b5b838611156152635761526261523b565b5b6001850283019150848603905094509492505050565b5f82905092915050565b5f82821b905092915050565b5f61529a8383615279565b826152a58135613f44565b925060208210156152e5576152e07fffffffffffffffffffffffffffffffffffffffffffffffffffffffffffffffff83602003600802615283565b831692505b505092915050565b7f4e487b71000000000000000000000000000000000000000000000000000000005f52602160045260245ffd5b5f6153258286614c03565b601482019150615336828486614c24565b9150819050949350505050565b5f61534e8284614c03565b60148201915081905092915050565b7f6163636f756e743a206e6f742066726f6d20456e747279506f696e74000000005f82015250565b5f615391601c83614ebd565b915061539c8261535d565b602082019050919050565b5f6020820190508181035f8301526153be81615385565b9050919050565b50565b5f6153d35f83614c1a565b91506153de826153c5565b5f82019050919050565b5f6153f2826153c8565b9150819050919050565b5f61540682613d31565b915061541183613d31565b925082820390508181111561542957615428614fdc565b5b92915050565b5f61543982613caf565b9050919050565b6154498161542f565b8114615453575f80fd5b50565b5f8151905061546481615440565b92915050565b5f805f6060848603121561548157615480613ac0565b5b5f61548e86828701614f35565b935050602061549f86828701615456565b92505060406154b086828701614f35565b9150509250925092565b5f805f606084860312156154d1576154d0613ac0565b5b5f6154de86828701614f35565b93505060206154ef86828701614dbe565b925050604061550086828701614f35565b9150509250925092565b5f6155158286614c82565b91506155218285614c03565b6014820191506155318284614c82565b9150819050949350505050565b5f6155498385614206565b9350615556838584613e20565b61555f83613d68565b840190509392505050565b5f60408201905061557d5f830186614396565b818103602083015261559081848661553e565b9050949350505050565b5f6040820190506155ad5f830185614054565b81810360208301526155bf818461423e565b90509392505050565b5f815190506155d681613f4d565b92915050565b5f602082840312156155f1576155f0613ac0565b5b5f6155fe848285016155c8565b91505092915050565b5f60408201905061561a5f830185614396565b6156276020830184614396565b9392505050565b5f81905092915050565b7f19457468657265756d205369676e6564204d6573736167653a0a3332000000005f82015250565b5f61566c601c8361562e565b915061567782615638565b601c82019050919050565b5f819050919050565b61569c61569782613f44565b615682565b82525050565b5f6156ac82615660565b91506156b8828461568b565b60208201915081905092915050565b5f805f80608085870312156156df576156de613ac0565b5b5f6156ec878288016155c8565b94505060206156fd87828801614f35565b935050604061570e87828801615456565b925050606061571f87828801614f35565b91505092959194509250565b615734816140ba565b82525050565b5f60808201905061574d5f830187614054565b61575a602083018661572b565b6157676040830185614054565b6157746060830184614054565b9594505050505056fe3314601d573d3dfd5b363d3d373d3d6014360360143d5160601c5af43d6000803e80603e573d6000fd5b3d6000f3a2646970667358221220cf4c725a3ac4bcdb56200d6d0363b919e64b55f47027ab83b635f09c1ba0ba6d64736f6c63430008170033",
			"opcodes": "PUSH2 0x120 PUSH1 0x40 MSTORE ADDRESS PUSH20 0xFFFFFFFFFFFFFFFFFFFFFFFFFFFFFFFFFFFFFFFF AND PUSH1 0xA0 SWAP1 PUSH20 0xFFFFFFFFFFFFFFFFFFFFFFFFFFFFFFFFFFFFFFFF AND DUP2 MSTORE POP CALLVALUE DUP1 ISZERO PUSH3 0x44 JUMPI PUSH0 DUP1 REVERT JUMPDEST POP PUSH1 0x40 MLOAD PUSH3 0x5B89 CODESIZE SUB DUP1 PUSH3 0x5B89 DUP4 CODECOPY DUP2 DUP2 ADD PUSH1 0x40 MSTORE DUP2 ADD SWAP1 PUSH3 0x6A SWAP2 SWAP1 PUSH3 0x2E6 JUMP JUMPDEST DUP3 DUP3 DUP2 DUP2 DUP8 PUSH0 PUSH20 0xFFFFFFFFFFFFFFFFFFFFFFFFFFFFFFFFFFFFFFFF AND DUP2 PUSH20 0xFFFFFFFFFFFFFFFFFFFFFFFFFFFFFFFFFFFFFFFF AND SUB PUSH3 0xD5 JUMPI PUSH1 0x40 MLOAD PUSH32 0x2039D3C900000000000000000000000000000000000000000000000000000000 DUP2 MSTORE PUSH1 0x4 ADD PUSH1 0x40 MLOAD DUP1 SWAP2 SUB SWAP1 REVERT JUMPDEST DUP1 PUSH20 0xFFFFFFFFFFFFFFFFFFFFFFFFFFFFFFFFFFFFFFFF AND PUSH1 0x80 DUP2 PUSH20 0xFFFFFFFFFFFFFFFFFFFFFFFFFFFFFFFFFFFFFFFF AND DUP2 MSTORE POP POP POP PUSH0 PUSH20 0xFFFFFFFFFFFFFFFFFFFFFFFFFFFFFFFFFFFFFFFF AND DUP2 PUSH20 0xFFFFFFFFFFFFFFFFFFFFFFFFFFFFFFFFFFFFFFFF AND SUB PUSH3 0x170 JUMPI PUSH1 0x40 MLOAD PUSH32 0x46A2950000000000000000000000000000000000000000000000000000000000 DUP2 MSTORE PUSH1 0x4 ADD PUSH1 0x40 MLOAD DUP1 SWAP2 SUB SWAP1 REVERT JUMPDEST DUP1 PUSH20 0xFFFFFFFFFFFFFFFFFFFFFFFFFFFFFFFFFFFFFFFF AND PUSH1 0xC0 DUP2 PUSH20 0xFFFFFFFFFFFFFFFFFFFFFFFFFFFFFFFFFFFFFFFF AND DUP2 MSTORE POP POP POP DUP1 PUSH20 0xFFFFFFFFFFFFFFFFFFFFFFFFFFFFFFFFFFFFFFFF AND PUSH1 0xE0 DUP2 PUSH20 0xFFFFFFFFFFFFFFFFFFFFFFFFFFFFFFFFFFFFFFFF AND DUP2 MSTORE POP POP POP PUSH0 PUSH20 0xFFFFFFFFFFFFFFFFFFFFFFFFFFFFFFFFFFFFFFFF AND DUP3 PUSH20 0xFFFFFFFFFFFFFFFFFFFFFFFFFFFFFFFFFFFFFFFF AND SUB PUSH3 0x240 JUMPI PUSH1 0x40 MLOAD PUSH32 0xEA98EA6600000000000000000000000000000000000000000000000000000000 DUP2 MSTORE PUSH1 0x4 ADD PUSH1 0x40 MLOAD DUP1 SWAP2 SUB SWAP1 REVERT JUMPDEST POP POP DUP1 PUSH20 0xFFFFFFFFFFFFFFFFFFFFFFFFFFFFFFFFFFFFFFFF AND PUSH2 0x100 DUP2 PUSH20 0xFFFFFFFFFFFFFFFFFFFFFFFFFFFFFFFFFFFFFFFF AND DUP2 MSTORE POP POP POP POP POP POP PUSH3 0x355 JUMP JUMPDEST PUSH0 DUP1 REVERT JUMPDEST PUSH0 PUSH20 0xFFFFFFFFFFFFFFFFFFFFFFFFFFFFFFFFFFFFFFFF DUP3 AND SWAP1 POP SWAP2 SWAP1 POP JUMP JUMPDEST PUSH0 PUSH3 0x2B0 DUP3 PUSH3 0x285 JUMP JUMPDEST SWAP1 POP SWAP2 SWAP1 POP JUMP JUMPDEST PUSH3 0x2C2 DUP2 PUSH3 0x2A4 JUMP JUMPDEST DUP2 EQ PUSH3 0x2CD JUMPI PUSH0 DUP1 REVERT JUMPDEST POP JUMP JUMPDEST PUSH0 DUP2 MLOAD SWAP1 POP PUSH3 0x2E0 DUP2 PUSH3 0x2B7 JUMP JUMPDEST SWAP3 SWAP2 POP POP JUMP JUMPDEST PUSH0 DUP1 PUSH0 DUP1 PUSH1 0x80 DUP6 DUP8 SUB SLT ISZERO PUSH3 0x301 JUMPI PUSH3 0x300 PUSH3 0x281 JUMP JUMPDEST JUMPDEST PUSH0 PUSH3 0x310 DUP8 DUP3 DUP9 ADD PUSH3 0x2D0 JUMP JUMPDEST SWAP5 POP POP PUSH1 0x20 PUSH3 0x323 DUP8 DUP3 DUP9 ADD PUSH3 0x2D0 JUMP JUMPDEST SWAP4 POP POP PUSH1 0x40 PUSH3 0x336 DUP8 DUP3 DUP9 ADD PUSH3 0x2D0 JUMP JUMPDEST SWAP3 POP POP PUSH1 0x60 PUSH3 0x349 DUP8 DUP3 DUP9 ADD PUSH3 0x2D0 JUMP JUMPDEST SWAP2 POP POP SWAP3 SWAP6 SWAP2 SWAP5 POP SWAP3 POP JUMP JUMPDEST PUSH1 0x80 MLOAD PUSH1 0xA0 MLOAD PUSH1 0xC0 MLOAD PUSH1 0xE0 MLOAD PUSH2 0x100 MLOAD PUSH2 0x57E1 PUSH3 0x3A8 PUSH0 CODECOPY PUSH0 PUSH2 0x24BD ADD MSTORE PUSH0 PUSH2 0x1B83 ADD MSTORE PUSH0 DUP2 DUP2 PUSH2 0xCB8 ADD MSTORE DUP2 DUP2 PUSH2 0xE45 ADD MSTORE PUSH2 0x2F1E ADD MSTORE PUSH0 DUP2 DUP2 PUSH2 0xE66 ADD MSTORE PUSH2 0x2EFD ADD MSTORE PUSH0 PUSH2 0x1BD9 ADD MSTORE PUSH2 0x57E1 PUSH0 RETURN INVALID PUSH1 0x80 PUSH1 0x40 MSTORE PUSH1 0x4 CALLDATASIZE LT PUSH2 0x1D0 JUMPI PUSH0 CALLDATALOAD PUSH1 0xE0 SHR DUP1 PUSH4 0x57D39E70 GT PUSH2 0xF6 JUMPI DUP1 PUSH4 0xBC197C81 GT PUSH2 0x94 JUMPI DUP1 PUSH4 0xDD467064 GT PUSH2 0x63 JUMPI DUP1 PUSH4 0xDD467064 EQ PUSH2 0x725 JUMPI DUP1 PUSH4 0xEE9C6054 EQ PUSH2 0x74D JUMPI DUP1 PUSH4 0xF23A6E61 EQ PUSH2 0x789 JUMPI DUP1 PUSH4 0xFC0C546A EQ PUSH2 0x7C5 JUMPI PUSH2 0x1DF JUMP JUMPDEST DUP1 PUSH4 0xBC197C81 EQ PUSH2 0x66B JUMPI DUP1 PUSH4 0xC19D93FB EQ PUSH2 0x6A7 JUMPI DUP1 PUSH4 0xCE0617EC EQ PUSH2 0x6D1 JUMPI DUP1 PUSH4 0xD087D288 EQ PUSH2 0x6FB JUMPI PUSH2 0x1DF JUMP JUMPDEST DUP1 PUSH4 0x8DA5CB5B GT PUSH2 0xD0 JUMPI DUP1 PUSH4 0x8DA5CB5B EQ PUSH2 0x5B1 JUMPI DUP1 PUSH4 0xA4E2D634 EQ PUSH2 0x5DB JUMPI DUP1 PUSH4 0xB0D691FE EQ PUSH2 0x605 JUMPI DUP1 PUSH4 0xB709467C EQ PUSH2 0x62F JUMPI PUSH2 0x1DF JUMP JUMPDEST DUP1 PUSH4 0x57D39E70 EQ PUSH2 0x523 JUMPI DUP1 PUSH4 0x7A8F7356 EQ PUSH2 0x55F JUMPI DUP1 PUSH4 0x7DA0A877 EQ PUSH2 0x587 JUMPI PUSH2 0x1DF JUMP JUMPDEST DUP1 PUSH4 0x1FB1ECF0 GT PUSH2 0x16E JUMPI DUP1 PUSH4 0x45A24E3E GT PUSH2 0x13D JUMPI DUP1 PUSH4 0x45A24E3E EQ PUSH2 0x43F JUMPI DUP1 PUSH4 0x51945447 EQ PUSH2 0x47B JUMPI DUP1 PUSH4 0x523E3260 EQ PUSH2 0x4AB JUMPI DUP1 PUSH4 0x572B6C05 EQ PUSH2 0x4E7 JUMPI PUSH2 0x1DF JUMP JUMPDEST DUP1 PUSH4 0x1FB1ECF0 EQ PUSH2 0x367 JUMPI DUP1 PUSH4 0x34715FB1 EQ PUSH2 0x397 JUMPI DUP1 PUSH4 0x3A871CDD EQ PUSH2 0x3D3 JUMPI DUP1 PUSH4 0x43629A73 EQ PUSH2 0x40F JUMPI PUSH2 0x1DF JUMP JUMPDEST DUP1 PUSH4 0x150B7A02 GT PUSH2 0x1AA JUMPI DUP1 PUSH4 0x150B7A02 EQ PUSH2 0x277 JUMPI DUP1 PUSH4 0x1626BA7E EQ PUSH2 0x2B3 JUMPI DUP1 PUSH4 0x1E2EAEAF EQ PUSH2 0x2EF JUMPI DUP1 PUSH4 0x1F9838B5 EQ PUSH2 0x32B JUMPI PUSH2 0x1DF JUMP JUMPDEST DUP1 PUSH4 0x1FFC9A7 EQ PUSH2 0x1E9 JUMPI DUP1 PUSH4 0x39721B1 EQ PUSH2 0x225 JUMPI DUP1 PUSH4 0x56D5AFE EQ PUSH2 0x24D JUMPI PUSH2 0x1DF JUMP JUMPDEST CALLDATASIZE PUSH2 0x1DF JUMPI PUSH2 0x1DD PUSH2 0x7F1 JUMP JUMPDEST STOP JUMPDEST PUSH2 0x1E7 PUSH2 0x7F1 JUMP JUMPDEST STOP JUMPDEST CALLVALUE DUP1 ISZERO PUSH2 0x1F4 JUMPI PUSH0 DUP1 REVERT JUMPDEST POP PUSH2 0x20F PUSH1 0x4 DUP1 CALLDATASIZE SUB DUP2 ADD SWAP1 PUSH2 0x20A SWAP2 SWAP1 PUSH2 0x3B1D JUMP JUMPDEST PUSH2 0x9CA JUMP JUMPDEST PUSH1 0x40 MLOAD PUSH2 0x21C SWAP2 SWAP1 PUSH2 0x3B62 JUMP JUMPDEST PUSH1 0x40 MLOAD DUP1 SWAP2 SUB SWAP1 RETURN JUMPDEST CALLVALUE DUP1 ISZERO PUSH2 0x230 JUMPI PUSH0 DUP1 REVERT JUMPDEST POP PUSH2 0x24B PUSH1 0x4 DUP1 CALLDATASIZE SUB DUP2 ADD SWAP1 PUSH2 0x246 SWAP2 SWAP1 PUSH2 0x3C31 JUMP JUMPDEST PUSH2 0x9F9 JUMP JUMPDEST STOP JUMPDEST CALLVALUE DUP1 ISZERO PUSH2 0x258 JUMPI PUSH0 DUP1 REVERT JUMPDEST POP PUSH2 0x261 PUSH2 0xCB6 JUMP JUMPDEST PUSH1 0x40 MLOAD PUSH2 0x26E SWAP2 SWAP1 PUSH2 0x3CEE JUMP JUMPDEST PUSH1 0x40 MLOAD DUP1 SWAP2 SUB SWAP1 RETURN JUMPDEST CALLVALUE DUP1 ISZERO PUSH2 0x282 JUMPI PUSH0 DUP1 REVERT JUMPDEST POP PUSH2 0x29D PUSH1 0x4 DUP1 CALLDATASIZE SUB DUP2 ADD SWAP1 PUSH2 0x298 SWAP2 SWAP1 PUSH2 0x3E9C JUMP JUMPDEST PUSH2 0xCDA JUMP JUMPDEST PUSH1 0x40 MLOAD PUSH2 0x2AA SWAP2 SWAP1 PUSH2 0x3F2B JUMP JUMPDEST PUSH1 0x40 MLOAD DUP1 SWAP2 SUB SWAP1 RETURN JUMPDEST CALLVALUE DUP1 ISZERO PUSH2 0x2BE JUMPI PUSH0 DUP1 REVERT JUMPDEST POP PUSH2 0x2D9 PUSH1 0x4 DUP1 CALLDATASIZE SUB DUP2 ADD SWAP1 PUSH2 0x2D4 SWAP2 SWAP1 PUSH2 0x3FCC JUMP JUMPDEST PUSH2 0xD85 JUMP JUMPDEST PUSH1 0x40 MLOAD PUSH2 0x2E6 SWAP2 SWAP1 PUSH2 0x3F2B JUMP JUMPDEST PUSH1 0x40 MLOAD DUP1 SWAP2 SUB SWAP1 RETURN JUMPDEST CALLVALUE DUP1 ISZERO PUSH2 0x2FA JUMPI PUSH0 DUP1 REVERT JUMPDEST POP PUSH2 0x315 PUSH1 0x4 DUP1 CALLDATASIZE SUB DUP2 ADD SWAP1 PUSH2 0x310 SWAP2 SWAP1 PUSH2 0x4029 JUMP JUMPDEST PUSH2 0xDB3 JUMP JUMPDEST PUSH1 0x40 MLOAD PUSH2 0x322 SWAP2 SWAP1 PUSH2 0x4063 JUMP JUMPDEST PUSH1 0x40 MLOAD DUP1 SWAP2 SUB SWAP1 RETURN JUMPDEST CALLVALUE DUP1 ISZERO PUSH2 0x336 JUMPI PUSH0 DUP1 REVERT JUMPDEST POP PUSH2 0x351 PUSH1 0x4 DUP1 CALLDATASIZE SUB DUP2 ADD SWAP1 PUSH2 0x34C SWAP2 SWAP1 PUSH2 0x407C JUMP JUMPDEST PUSH2 0xDBD JUMP JUMPDEST PUSH1 0x40 MLOAD PUSH2 0x35E SWAP2 SWAP1 PUSH2 0x3B62 JUMP JUMPDEST PUSH1 0x40 MLOAD DUP1 SWAP2 SUB SWAP1 RETURN JUMPDEST PUSH2 0x381 PUSH1 0x4 DUP1 CALLDATASIZE SUB DUP2 ADD SWAP1 PUSH2 0x37C SWAP2 SWAP1 PUSH2 0x4145 JUMP JUMPDEST PUSH2 0xDE7 JUMP JUMPDEST PUSH1 0x40 MLOAD PUSH2 0x38E SWAP2 SWAP1 PUSH2 0x4276 JUMP JUMPDEST PUSH1 0x40 MLOAD DUP1 SWAP2 SUB SWAP1 RETURN JUMPDEST CALLVALUE DUP1 ISZERO PUSH2 0x3A2 JUMPI PUSH0 DUP1 REVERT JUMPDEST POP PUSH2 0x3BD PUSH1 0x4 DUP1 CALLDATASIZE SUB DUP2 ADD SWAP1 PUSH2 0x3B8 SWAP2 SWAP1 PUSH2 0x4296 JUMP JUMPDEST PUSH2 0x112E JUMP JUMPDEST PUSH1 0x40 MLOAD PUSH2 0x3CA SWAP2 SWAP1 PUSH2 0x3CEE JUMP JUMPDEST PUSH1 0x40 MLOAD DUP1 SWAP2 SUB SWAP1 RETURN JUMPDEST CALLVALUE DUP1 ISZERO PUSH2 0x3DE JUMPI PUSH0 DUP1 REVERT JUMPDEST POP PUSH2 0x3F9 PUSH1 0x4 DUP1 CALLDATASIZE SUB DUP2 ADD SWAP1 PUSH2 0x3F4 SWAP2 SWAP1 PUSH2 0x432A JUMP JUMPDEST PUSH2 0x114D JUMP JUMPDEST PUSH1 0x40 MLOAD PUSH2 0x406 SWAP2 SWAP1 PUSH2 0x43A5 JUMP JUMPDEST PUSH1 0x40 MLOAD DUP1 SWAP2 SUB SWAP1 RETURN JUMPDEST PUSH2 0x429 PUSH1 0x4 DUP1 CALLDATASIZE SUB DUP2 ADD SWAP1 PUSH2 0x424 SWAP2 SWAP1 PUSH2 0x4413 JUMP JUMPDEST PUSH2 0x117F JUMP JUMPDEST PUSH1 0x40 MLOAD PUSH2 0x436 SWAP2 SWAP1 PUSH2 0x4561 JUMP JUMPDEST PUSH1 0x40 MLOAD DUP1 SWAP2 SUB SWAP1 RETURN JUMPDEST CALLVALUE DUP1 ISZERO PUSH2 0x44A JUMPI PUSH0 DUP1 REVERT JUMPDEST POP PUSH2 0x465 PUSH1 0x4 DUP1 CALLDATASIZE SUB DUP2 ADD SWAP1 PUSH2 0x460 SWAP2 SWAP1 PUSH2 0x4581 JUMP JUMPDEST PUSH2 0x133A JUMP JUMPDEST PUSH1 0x40 MLOAD PUSH2 0x472 SWAP2 SWAP1 PUSH2 0x3CEE JUMP JUMPDEST PUSH1 0x40 MLOAD DUP1 SWAP2 SUB SWAP1 RETURN JUMPDEST PUSH2 0x495 PUSH1 0x4 DUP1 CALLDATASIZE SUB DUP2 ADD SWAP1 PUSH2 0x490 SWAP2 SWAP1 PUSH2 0x45DE JUMP JUMPDEST PUSH2 0x1399 JUMP JUMPDEST PUSH1 0x40 MLOAD PUSH2 0x4A2 SWAP2 SWAP1 PUSH2 0x4276 JUMP JUMPDEST PUSH1 0x40 MLOAD DUP1 SWAP2 SUB SWAP1 RETURN JUMPDEST CALLVALUE DUP1 ISZERO PUSH2 0x4B6 JUMPI PUSH0 DUP1 REVERT JUMPDEST POP PUSH2 0x4D1 PUSH1 0x4 DUP1 CALLDATASIZE SUB DUP2 ADD SWAP1 PUSH2 0x4CC SWAP2 SWAP1 PUSH2 0x4662 JUMP JUMPDEST PUSH2 0x1401 JUMP JUMPDEST PUSH1 0x40 MLOAD PUSH2 0x4DE SWAP2 SWAP1 PUSH2 0x3F2B JUMP JUMPDEST PUSH1 0x40 MLOAD DUP1 SWAP2 SUB SWAP1 RETURN JUMPDEST CALLVALUE DUP1 ISZERO PUSH2 0x4F2 JUMPI PUSH0 DUP1 REVERT JUMPDEST POP PUSH2 0x50D PUSH1 0x4 DUP1 CALLDATASIZE SUB DUP2 ADD SWAP1 PUSH2 0x508 SWAP2 SWAP1 PUSH2 0x46BF JUMP JUMPDEST PUSH2 0x1471 JUMP JUMPDEST PUSH1 0x40 MLOAD PUSH2 0x51A SWAP2 SWAP1 PUSH2 0x3B62 JUMP JUMPDEST PUSH1 0x40 MLOAD DUP1 SWAP2 SUB SWAP1 RETURN JUMPDEST CALLVALUE DUP1 ISZERO PUSH2 0x52E JUMPI PUSH0 DUP1 REVERT JUMPDEST POP PUSH2 0x549 PUSH1 0x4 DUP1 CALLDATASIZE SUB DUP2 ADD SWAP1 PUSH2 0x544 SWAP2 SWAP1 PUSH2 0x46EA JUMP JUMPDEST PUSH2 0x14AF JUMP JUMPDEST PUSH1 0x40 MLOAD PUSH2 0x556 SWAP2 SWAP1 PUSH2 0x43A5 JUMP JUMPDEST PUSH1 0x40 MLOAD DUP1 SWAP2 SUB SWAP1 RETURN JUMPDEST CALLVALUE DUP1 ISZERO PUSH2 0x56A JUMPI PUSH0 DUP1 REVERT JUMPDEST POP PUSH2 0x585 PUSH1 0x4 DUP1 CALLDATASIZE SUB DUP2 ADD SWAP1 PUSH2 0x580 SWAP2 SWAP1 PUSH2 0x47B6 JUMP JUMPDEST PUSH2 0x1855 JUMP JUMPDEST STOP JUMPDEST CALLVALUE DUP1 ISZERO PUSH2 0x592 JUMPI PUSH0 DUP1 REVERT JUMPDEST POP PUSH2 0x59B PUSH2 0x1B80 JUMP JUMPDEST PUSH1 0x40 MLOAD PUSH2 0x5A8 SWAP2 SWAP1 PUSH2 0x3CEE JUMP JUMPDEST PUSH1 0x40 MLOAD DUP1 SWAP2 SUB SWAP1 RETURN JUMPDEST CALLVALUE DUP1 ISZERO PUSH2 0x5BC JUMPI PUSH0 DUP1 REVERT JUMPDEST POP PUSH2 0x5C5 PUSH2 0x1BA7 JUMP JUMPDEST PUSH1 0x40 MLOAD PUSH2 0x5D2 SWAP2 SWAP1 PUSH2 0x3CEE JUMP JUMPDEST PUSH1 0x40 MLOAD DUP1 SWAP2 SUB SWAP1 RETURN JUMPDEST CALLVALUE DUP1 ISZERO PUSH2 0x5E6 JUMPI PUSH0 DUP1 REVERT JUMPDEST POP PUSH2 0x5EF PUSH2 0x1BCC JUMP JUMPDEST PUSH1 0x40 MLOAD PUSH2 0x5FC SWAP2 SWAP1 PUSH2 0x3B62 JUMP JUMPDEST PUSH1 0x40 MLOAD DUP1 SWAP2 SUB SWAP1 RETURN JUMPDEST CALLVALUE DUP1 ISZERO PUSH2 0x610 JUMPI PUSH0 DUP1 REVERT JUMPDEST POP PUSH2 0x619 PUSH2 0x1BD6 JUMP JUMPDEST PUSH1 0x40 MLOAD PUSH2 0x626 SWAP2 SWAP1 PUSH2 0x488F JUMP JUMPDEST PUSH1 0x40 MLOAD DUP1 SWAP2 SUB SWAP1 RETURN JUMPDEST CALLVALUE DUP1 ISZERO PUSH2 0x63A JUMPI PUSH0 DUP1 REVERT JUMPDEST POP PUSH2 0x655 PUSH1 0x4 DUP1 CALLDATASIZE SUB DUP2 ADD SWAP1 PUSH2 0x650 SWAP2 SWAP1 PUSH2 0x48A8 JUMP JUMPDEST PUSH2 0x1BFD JUMP JUMPDEST PUSH1 0x40 MLOAD PUSH2 0x662 SWAP2 SWAP1 PUSH2 0x4276 JUMP JUMPDEST PUSH1 0x40 MLOAD DUP1 SWAP2 SUB SWAP1 RETURN JUMPDEST CALLVALUE DUP1 ISZERO PUSH2 0x676 JUMPI PUSH0 DUP1 REVERT JUMPDEST POP PUSH2 0x691 PUSH1 0x4 DUP1 CALLDATASIZE SUB DUP2 ADD SWAP1 PUSH2 0x68C SWAP2 SWAP1 PUSH2 0x49D9 JUMP JUMPDEST PUSH2 0x1C5F JUMP JUMPDEST PUSH1 0x40 MLOAD PUSH2 0x69E SWAP2 SWAP1 PUSH2 0x3F2B JUMP JUMPDEST PUSH1 0x40 MLOAD DUP1 SWAP2 SUB SWAP1 RETURN JUMPDEST CALLVALUE DUP1 ISZERO PUSH2 0x6B2 JUMPI PUSH0 DUP1 REVERT JUMPDEST POP PUSH2 0x6BB PUSH2 0x1C7B JUMP JUMPDEST PUSH1 0x40 MLOAD PUSH2 0x6C8 SWAP2 SWAP1 PUSH2 0x43A5 JUMP JUMPDEST PUSH1 0x40 MLOAD DUP1 SWAP2 SUB SWAP1 RETURN JUMPDEST CALLVALUE DUP1 ISZERO PUSH2 0x6DC JUMPI PUSH0 DUP1 REVERT JUMPDEST POP PUSH2 0x6E5 PUSH2 0x1C84 JUMP JUMPDEST PUSH1 0x40 MLOAD PUSH2 0x6F2 SWAP2 SWAP1 PUSH2 0x43A5 JUMP JUMPDEST PUSH1 0x40 MLOAD DUP1 SWAP2 SUB SWAP1 RETURN JUMPDEST CALLVALUE DUP1 ISZERO PUSH2 0x706 JUMPI PUSH0 DUP1 REVERT JUMPDEST POP PUSH2 0x70F PUSH2 0x1C89 JUMP JUMPDEST PUSH1 0x40 MLOAD PUSH2 0x71C SWAP2 SWAP1 PUSH2 0x43A5 JUMP JUMPDEST PUSH1 0x40 MLOAD DUP1 SWAP2 SUB SWAP1 RETURN JUMPDEST CALLVALUE DUP1 ISZERO PUSH2 0x730 JUMPI PUSH0 DUP1 REVERT JUMPDEST POP PUSH2 0x74B PUSH1 0x4 DUP1 CALLDATASIZE SUB DUP2 ADD SWAP1 PUSH2 0x746 SWAP2 SWAP1 PUSH2 0x4AA4 JUMP JUMPDEST PUSH2 0x1D10 JUMP JUMPDEST STOP JUMPDEST CALLVALUE DUP1 ISZERO PUSH2 0x758 JUMPI PUSH0 DUP1 REVERT JUMPDEST POP PUSH2 0x773 PUSH1 0x4 DUP1 CALLDATASIZE SUB DUP2 ADD SWAP1 PUSH2 0x76E SWAP2 SWAP1 PUSH2 0x4ACF JUMP JUMPDEST PUSH2 0x1E8E JUMP JUMPDEST PUSH1 0x40 MLOAD PUSH2 0x780 SWAP2 SWAP1 PUSH2 0x3CEE JUMP JUMPDEST PUSH1 0x40 MLOAD DUP1 SWAP2 SUB SWAP1 RETURN JUMPDEST CALLVALUE DUP1 ISZERO PUSH2 0x794 JUMPI PUSH0 DUP1 REVERT JUMPDEST POP PUSH2 0x7AF PUSH1 0x4 DUP1 CALLDATASIZE SUB DUP2 ADD SWAP1 PUSH2 0x7AA SWAP2 SWAP1 PUSH2 0x4B0D JUMP JUMPDEST PUSH2 0x1ECB JUMP JUMPDEST PUSH1 0x40 MLOAD PUSH2 0x7BC SWAP2 SWAP1 PUSH2 0x3F2B JUMP JUMPDEST PUSH1 0x40 MLOAD DUP1 SWAP2 SUB SWAP1 RETURN JUMPDEST CALLVALUE DUP1 ISZERO PUSH2 0x7D0 JUMPI PUSH0 DUP1 REVERT JUMPDEST POP PUSH2 0x7D9 PUSH2 0x1EE7 JUMP JUMPDEST PUSH1 0x40 MLOAD PUSH2 0x7E8 SWAP4 SWAP3 SWAP2 SWAP1 PUSH2 0x4BA0 JUMP JUMPDEST PUSH1 0x40 MLOAD DUP1 SWAP2 SUB SWAP1 RETURN JUMPDEST PUSH0 DUP1 PUSH0 PUSH2 0x7FC PUSH2 0x1EFD JUMP JUMPDEST SWAP3 POP SWAP3 POP SWAP3 POP PUSH0 PUSH2 0x80E DUP5 DUP5 DUP5 PUSH2 0x1F14 JUMP JUMPDEST SWAP1 POP PUSH0 PUSH1 0x1 PUSH0 DUP4 PUSH20 0xFFFFFFFFFFFFFFFFFFFFFFFFFFFFFFFFFFFFFFFF AND PUSH20 0xFFFFFFFFFFFFFFFFFFFFFFFFFFFFFFFFFFFFFFFF AND DUP2 MSTORE PUSH1 0x20 ADD SWAP1 DUP2 MSTORE PUSH1 0x20 ADD PUSH0 KECCAK256 PUSH0 DUP1 CALLDATALOAD PUSH32 0xFFFFFFFF00000000000000000000000000000000000000000000000000000000 AND PUSH28 0xFFFFFFFFFFFFFFFFFFFFFFFFFFFFFFFFFFFFFFFFFFFFFFFFFFFFFFFF NOT AND PUSH28 0xFFFFFFFFFFFFFFFFFFFFFFFFFFFFFFFFFFFFFFFFFFFFFFFFFFFFFFFF NOT AND DUP2 MSTORE PUSH1 0x20 ADD SWAP1 DUP2 MSTORE PUSH1 0x20 ADD PUSH0 KECCAK256 PUSH0 SWAP1 SLOAD SWAP1 PUSH2 0x100 EXP SWAP1 DIV PUSH20 0xFFFFFFFFFFFFFFFFFFFFFFFFFFFFFFFFFFFFFFFF AND SWAP1 POP PUSH0 PUSH20 0xFFFFFFFFFFFFFFFFFFFFFFFFFFFFFFFFFFFFFFFF AND DUP2 PUSH20 0xFFFFFFFFFFFFFFFFFFFFFFFFFFFFFFFFFFFFFFFF AND EQ PUSH2 0x9C3 JUMPI PUSH0 PUSH2 0x91D ADDRESS PUSH2 0x1F39 JUMP JUMPDEST SWAP1 POP PUSH0 DUP1 DUP3 PUSH20 0xFFFFFFFFFFFFFFFFFFFFFFFFFFFFFFFFFFFFFFFF AND DUP5 PUSH0 CALLDATASIZE CALLER PUSH1 0x40 MLOAD PUSH1 0x20 ADD PUSH2 0x94F SWAP5 SWAP4 SWAP3 SWAP2 SWAP1 PUSH2 0x4C48 JUMP JUMPDEST PUSH1 0x40 MLOAD PUSH1 0x20 DUP2 DUP4 SUB SUB DUP2 MSTORE SWAP1 PUSH1 0x40 MSTORE PUSH1 0x40 MLOAD PUSH2 0x96B SWAP2 SWAP1 PUSH2 0x4CB2 JUMP JUMPDEST PUSH0 PUSH1 0x40 MLOAD DUP1 DUP4 SUB DUP2 PUSH0 DUP7 GAS CALL SWAP2 POP POP RETURNDATASIZE DUP1 PUSH0 DUP2 EQ PUSH2 0x9A4 JUMPI PUSH1 0x40 MLOAD SWAP2 POP PUSH1 0x1F NOT PUSH1 0x3F RETURNDATASIZE ADD AND DUP3 ADD PUSH1 0x40 MSTORE RETURNDATASIZE DUP3 MSTORE RETURNDATASIZE PUSH0 PUSH1 0x20 DUP5 ADD RETURNDATACOPY PUSH2 0x9A9 JUMP JUMPDEST PUSH1 0x60 SWAP2 POP JUMPDEST POP SWAP2 POP SWAP2 POP DUP2 PUSH2 0x9BB JUMPI DUP1 MLOAD PUSH1 0x20 DUP3 ADD REVERT JUMPDEST DUP1 MLOAD PUSH1 0x20 DUP3 ADD RETURN JUMPDEST POP POP POP POP POP JUMP JUMPDEST PUSH0 DUP1 PUSH2 0x9D5 DUP4 PUSH2 0x1F7A JUMP JUMPDEST SWAP1 POP DUP1 ISZERO PUSH2 0x9E7 JUMPI PUSH1 0x1 SWAP2 POP POP PUSH2 0x9F4 JUMP JUMPDEST PUSH2 0x9EF PUSH2 0x1FF3 JUMP JUMPDEST PUSH0 SWAP2 POP POP JUMPDEST SWAP2 SWAP1 POP JUMP JUMPDEST PUSH0 DUP1 PUSH0 PUSH2 0xA04 PUSH2 0x1EFD JUMP JUMPDEST SWAP3 POP SWAP3 POP SWAP3 POP PUSH0 PUSH2 0xA16 DUP5 DUP5 DUP5 PUSH2 0x1F14 JUMP JUMPDEST SWAP1 POP PUSH0 PUSH20 0xFFFFFFFFFFFFFFFFFFFFFFFFFFFFFFFFFFFFFFFF AND DUP2 PUSH20 0xFFFFFFFFFFFFFFFFFFFFFFFFFFFFFFFFFFFFFFFF AND SUB PUSH2 0xA7D JUMPI PUSH1 0x40 MLOAD PUSH32 0xEA8E4EB500000000000000000000000000000000000000000000000000000000 DUP2 MSTORE PUSH1 0x4 ADD PUSH1 0x40 MLOAD DUP1 SWAP2 SUB SWAP1 REVERT JUMPDEST DUP1 PUSH20 0xFFFFFFFFFFFFFFFFFFFFFFFFFFFFFFFFFFFFFFFF AND CALLER PUSH20 0xFFFFFFFFFFFFFFFFFFFFFFFFFFFFFFFFFFFFFFFF AND EQ PUSH2 0xAE2 JUMPI PUSH1 0x40 MLOAD PUSH32 0xEA8E4EB500000000000000000000000000000000000000000000000000000000 DUP2 MSTORE PUSH1 0x4 ADD PUSH1 0x40 MLOAD DUP1 SWAP2 SUB SWAP1 REVERT JUMPDEST PUSH2 0xAEA PUSH2 0x219C JUMP JUMPDEST PUSH0 DUP9 DUP9 SWAP1 POP SWAP1 POP DUP1 DUP8 DUP8 SWAP1 POP EQ PUSH2 0xB2D JUMPI PUSH1 0x40 MLOAD PUSH32 0xB4FA3FB300000000000000000000000000000000000000000000000000000000 DUP2 MSTORE PUSH1 0x4 ADD PUSH1 0x40 MLOAD DUP1 SWAP2 SUB SWAP1 REVERT JUMPDEST PUSH0 JUMPDEST DUP2 DUP2 LT ISZERO PUSH2 0xCAA JUMPI DUP8 DUP8 DUP3 DUP2 DUP2 LT PUSH2 0xB4A JUMPI PUSH2 0xB49 PUSH2 0x4CC8 JUMP JUMPDEST JUMPDEST SWAP1 POP PUSH1 0x20 MUL ADD PUSH1 0x20 DUP2 ADD SWAP1 PUSH2 0xB5F SWAP2 SWAP1 PUSH2 0x4D1F JUMP JUMPDEST PUSH1 0x2 PUSH0 DUP6 PUSH20 0xFFFFFFFFFFFFFFFFFFFFFFFFFFFFFFFFFFFFFFFF AND PUSH20 0xFFFFFFFFFFFFFFFFFFFFFFFFFFFFFFFFFFFFFFFF AND DUP2 MSTORE PUSH1 0x20 ADD SWAP1 DUP2 MSTORE PUSH1 0x20 ADD PUSH0 KECCAK256 PUSH0 DUP13 DUP13 DUP6 DUP2 DUP2 LT PUSH2 0xBB0 JUMPI PUSH2 0xBAF PUSH2 0x4CC8 JUMP JUMPDEST JUMPDEST SWAP1 POP PUSH1 0x20 MUL ADD PUSH1 0x20 DUP2 ADD SWAP1 PUSH2 0xBC5 SWAP2 SWAP1 PUSH2 0x46BF JUMP JUMPDEST PUSH20 0xFFFFFFFFFFFFFFFFFFFFFFFFFFFFFFFFFFFFFFFF AND PUSH20 0xFFFFFFFFFFFFFFFFFFFFFFFFFFFFFFFFFFFFFFFF AND DUP2 MSTORE PUSH1 0x20 ADD SWAP1 DUP2 MSTORE PUSH1 0x20 ADD PUSH0 KECCAK256 PUSH0 PUSH2 0x100 EXP DUP2 SLOAD DUP2 PUSH1 0xFF MUL NOT AND SWAP1 DUP4 ISZERO ISZERO MUL OR SWAP1 SSTORE POP PUSH32 0x394777A58092892D136A90C4BB7E4350C72AC50FBA6A0208128677F36527DCF5 DUP4 DUP12 DUP12 DUP5 DUP2 DUP2 LT PUSH2 0xC49 JUMPI PUSH2 0xC48 PUSH2 0x4CC8 JUMP JUMPDEST JUMPDEST SWAP1 POP PUSH1 0x20 MUL ADD PUSH1 0x20 DUP2 ADD SWAP1 PUSH2 0xC5E SWAP2 SWAP1 PUSH2 0x46BF JUMP JUMPDEST DUP11 DUP11 DUP6 DUP2 DUP2 LT PUSH2 0xC71 JUMPI PUSH2 0xC70 PUSH2 0x4CC8 JUMP JUMPDEST JUMPDEST SWAP1 POP PUSH1 0x20 MUL ADD PUSH1 0x20 DUP2 ADD SWAP1 PUSH2 0xC86 SWAP2 SWAP1 PUSH2 0x4D1F JUMP JUMPDEST PUSH1 0x40 MLOAD PUSH2 0xC95 SWAP4 SWAP3 SWAP2 SWAP1 PUSH2 0x4D4A JUMP JUMPDEST PUSH1 0x40 MLOAD DUP1 SWAP2 SUB SWAP1 LOG1 DUP1 DUP1 PUSH1 0x1 ADD SWAP2 POP POP PUSH2 0xB2F JUMP JUMPDEST POP POP POP POP POP POP POP POP POP POP JUMP JUMPDEST PUSH32 0x0 DUP2 JUMP JUMPDEST PUSH0 DUP1 PUSH0 DUP1 PUSH2 0xCE6 PUSH2 0x1EFD JUMP JUMPDEST SWAP3 POP SWAP3 POP SWAP3 POP DUP2 PUSH20 0xFFFFFFFFFFFFFFFFFFFFFFFFFFFFFFFFFFFFFFFF AND CALLER PUSH20 0xFFFFFFFFFFFFFFFFFFFFFFFFFFFFFFFFFFFFFFFF AND EQ DUP1 ISZERO PUSH2 0xD26 JUMPI POP DUP1 DUP7 EQ JUMPDEST DUP1 ISZERO PUSH2 0xD31 JUMPI POP CHAINID DUP4 EQ JUMPDEST ISZERO PUSH2 0xD68 JUMPI PUSH1 0x40 MLOAD PUSH32 0xB79E3F3F00000000000000000000000000000000000000000000000000000000 DUP2 MSTORE PUSH1 0x4 ADD PUSH1 0x40 MLOAD DUP1 SWAP2 SUB SWAP1 REVERT JUMPDEST PUSH2 0xD70 PUSH2 0x7F1 JUMP JUMPDEST PUSH4 0x150B7A02 PUSH1 0xE0 SHL SWAP4 POP POP POP POP SWAP5 SWAP4 POP POP POP POP JUMP JUMPDEST PUSH0 PUSH2 0xD91 DUP5 DUP5 DUP5 PUSH2 0x21E5 JUMP JUMPDEST ISZERO PUSH2 0xDA5 JUMPI PUSH4 0x1626BA7E PUSH1 0xE0 SHL SWAP1 POP PUSH2 0xDAC JUMP JUMPDEST PUSH0 PUSH1 0xE0 SHL SWAP1 POP JUMPDEST SWAP4 SWAP3 POP POP POP JUMP JUMPDEST PUSH0 DUP2 SLOAD SWAP1 POP SWAP2 SWAP1 POP JUMP JUMPDEST PUSH1 0x2 PUSH1 0x20 MSTORE DUP2 PUSH0 MSTORE PUSH1 0x40 PUSH0 KECCAK256 PUSH1 0x20 MSTORE DUP1 PUSH0 MSTORE PUSH1 0x40 PUSH0 KECCAK256 PUSH0 SWAP2 POP SWAP2 POP SWAP1 SLOAD SWAP1 PUSH2 0x100 EXP SWAP1 DIV PUSH1 0xFF AND DUP2 JUMP JUMPDEST PUSH1 0x60 PUSH0 DUP4 DUP4 SWAP1 POP SWAP1 POP PUSH0 PUSH2 0xDF9 PUSH2 0x23D3 JUMP JUMPDEST SWAP1 POP CALLDATASIZE PUSH0 JUMPDEST DUP4 DUP2 LT ISZERO PUSH2 0x10C9 JUMPI DUP7 DUP7 DUP3 DUP2 DUP2 LT PUSH2 0xE19 JUMPI PUSH2 0xE18 PUSH2 0x4CC8 JUMP JUMPDEST JUMPDEST SWAP1 POP PUSH1 0x60 MUL ADD SWAP2 POP PUSH0 DUP3 PUSH1 0x20 ADD PUSH1 0x20 DUP2 ADD SWAP1 PUSH2 0xE35 SWAP2 SWAP1 PUSH2 0x46BF JUMP JUMPDEST SWAP1 POP PUSH0 DUP4 PUSH1 0x40 ADD CALLDATALOAD SWAP1 POP PUSH0 PUSH2 0xE91 PUSH32 0x0 PUSH32 0x0 DUP8 PUSH0 ADD CALLDATALOAD CHAINID DUP8 DUP8 PUSH2 0x23E1 JUMP JUMPDEST SWAP1 POP PUSH0 DUP4 PUSH20 0xFFFFFFFFFFFFFFFFFFFFFFFFFFFFFFFFFFFFFFFF AND EXTCODESIZE SUB PUSH2 0xEE3 JUMPI PUSH1 0x40 MLOAD PUSH32 0x414B749400000000000000000000000000000000000000000000000000000000 DUP2 MSTORE PUSH1 0x4 ADD PUSH1 0x40 MLOAD DUP1 SWAP2 SUB SWAP1 REVERT JUMPDEST PUSH0 DUP2 PUSH20 0xFFFFFFFFFFFFFFFFFFFFFFFFFFFFFFFFFFFFFFFF AND EXTCODESIZE GT ISZERO PUSH2 0xFA7 JUMPI DUP1 PUSH20 0xFFFFFFFFFFFFFFFFFFFFFFFFFFFFFFFFFFFFFFFF AND PUSH4 0xA4E2D634 PUSH1 0x40 MLOAD DUP2 PUSH4 0xFFFFFFFF AND PUSH1 0xE0 SHL DUP2 MSTORE PUSH1 0x4 ADD PUSH1 0x20 PUSH1 0x40 MLOAD DUP1 DUP4 SUB DUP2 DUP7 GAS STATICCALL ISZERO DUP1 ISZERO PUSH2 0xF4B JUMPI RETURNDATASIZE PUSH0 DUP1 RETURNDATACOPY RETURNDATASIZE PUSH0 REVERT JUMPDEST POP POP POP POP PUSH1 0x40 MLOAD RETURNDATASIZE PUSH1 0x1F NOT PUSH1 0x1F DUP3 ADD AND DUP3 ADD DUP1 PUSH1 0x40 MSTORE POP DUP2 ADD SWAP1 PUSH2 0xF6F SWAP2 SWAP1 PUSH2 0x4D93 JUMP JUMPDEST ISZERO PUSH2 0xFA6 JUMPI PUSH1 0x40 MLOAD PUSH32 0x6315BFBB00000000000000000000000000000000000000000000000000000000 DUP2 MSTORE PUSH1 0x4 ADD PUSH1 0x40 MLOAD DUP1 SWAP2 SUB SWAP1 REVERT JUMPDEST JUMPDEST DUP3 PUSH20 0xFFFFFFFFFFFFFFFFFFFFFFFFFFFFFFFFFFFFFFFF AND PUSH4 0x6352211E DUP4 PUSH1 0x40 MLOAD DUP3 PUSH4 0xFFFFFFFF AND PUSH1 0xE0 SHL DUP2 MSTORE PUSH1 0x4 ADD PUSH2 0xFE0 SWAP2 SWAP1 PUSH2 0x43A5 JUMP JUMPDEST PUSH1 0x20 PUSH1 0x40 MLOAD DUP1 DUP4 SUB DUP2 DUP7 GAS STATICCALL SWAP3 POP POP POP DUP1 ISZERO PUSH2 0x101A JUMPI POP PUSH1 0x40 MLOAD RETURNDATASIZE PUSH1 0x1F NOT PUSH1 0x1F DUP3 ADD AND DUP3 ADD DUP1 PUSH1 0x40 MSTORE POP DUP2 ADD SWAP1 PUSH2 0x1017 SWAP2 SWAP1 PUSH2 0x4DD2 JUMP JUMPDEST PUSH1 0x1 JUMPDEST PUSH2 0x1050 JUMPI PUSH1 0x40 MLOAD PUSH32 0x414B749400000000000000000000000000000000000000000000000000000000 DUP2 MSTORE PUSH1 0x4 ADD PUSH1 0x40 MLOAD DUP1 SWAP2 SUB SWAP1 REVERT JUMPDEST DUP7 PUSH20 0xFFFFFFFFFFFFFFFFFFFFFFFFFFFFFFFFFFFFFFFF AND DUP2 PUSH20 0xFFFFFFFFFFFFFFFFFFFFFFFFFFFFFFFFFFFFFFFF AND EQ PUSH2 0x10B5 JUMPI PUSH1 0x40 MLOAD PUSH32 0x414B749400000000000000000000000000000000000000000000000000000000 DUP2 MSTORE PUSH1 0x4 ADD PUSH1 0x40 MLOAD DUP1 SWAP2 SUB SWAP1 REVERT JUMPDEST DUP2 SWAP7 POP POP POP POP POP DUP1 DUP1 PUSH1 0x1 ADD SWAP2 POP POP PUSH2 0xDFE JUMP JUMPDEST POP PUSH2 0x10D3 DUP3 PUSH2 0x2411 JUMP JUMPDEST PUSH2 0x1109 JUMPI PUSH1 0x40 MLOAD PUSH32 0xEA8E4EB500000000000000000000000000000000000000000000000000000000 DUP2 MSTORE PUSH1 0x4 ADD PUSH1 0x40 MLOAD DUP1 SWAP2 SUB SWAP1 REVERT JUMPDEST PUSH2 0x1111 PUSH2 0x262E JUMP JUMPDEST PUSH2 0x111E DUP12 DUP12 DUP12 DUP12 DUP12 PUSH2 0x2677 JUMP JUMPDEST SWAP4 POP POP POP POP SWAP8 SWAP7 POP POP POP POP POP POP POP JUMP JUMPDEST PUSH0 PUSH2 0x1137 PUSH2 0x288C JUMP JUMPDEST PUSH2 0x1143 DUP6 DUP6 DUP6 DUP6 PUSH2 0x28FB JUMP JUMPDEST SWAP1 POP SWAP5 SWAP4 POP POP POP POP JUMP JUMPDEST PUSH0 PUSH2 0x1156 PUSH2 0x29BC JUMP JUMPDEST PUSH2 0x1160 DUP5 DUP5 PUSH2 0x2A33 JUMP JUMPDEST SWAP1 POP PUSH2 0x116F DUP5 PUSH1 0x20 ADD CALLDATALOAD PUSH2 0x2A6F JUMP JUMPDEST PUSH2 0x1178 DUP3 PUSH2 0x2A72 JUMP JUMPDEST SWAP4 SWAP3 POP POP POP JUMP JUMPDEST PUSH1 0x60 PUSH2 0x1191 PUSH2 0x118C PUSH2 0x23D3 JUMP JUMPDEST PUSH2 0x2411 JUMP JUMPDEST PUSH2 0x11C7 JUMPI PUSH1 0x40 MLOAD PUSH32 0xEA8E4EB500000000000000000000000000000000000000000000000000000000 DUP2 MSTORE PUSH1 0x4 ADD PUSH1 0x40 MLOAD DUP1 SWAP2 SUB SWAP1 REVERT JUMPDEST PUSH2 0x11CF PUSH2 0x262E JUMP JUMPDEST PUSH0 DUP4 DUP4 SWAP1 POP SWAP1 POP PUSH0 DUP2 PUSH8 0xFFFFFFFFFFFFFFFF DUP2 GT ISZERO PUSH2 0x11F1 JUMPI PUSH2 0x11F0 PUSH2 0x3D78 JUMP JUMPDEST JUMPDEST PUSH1 0x40 MLOAD SWAP1 DUP1 DUP3 MSTORE DUP1 PUSH1 0x20 MUL PUSH1 0x20 ADD DUP3 ADD PUSH1 0x40 MSTORE DUP1 ISZERO PUSH2 0x1224 JUMPI DUP2 PUSH1 0x20 ADD JUMPDEST PUSH1 0x60 DUP2 MSTORE PUSH1 0x20 ADD SWAP1 PUSH1 0x1 SWAP1 SUB SWAP1 DUP2 PUSH2 0x120F JUMPI SWAP1 POP JUMPDEST POP SWAP1 POP PUSH0 JUMPDEST DUP3 DUP2 LT ISZERO PUSH2 0x132E JUMPI PUSH2 0x1303 DUP7 DUP7 DUP4 DUP2 DUP2 LT PUSH2 0x1247 JUMPI PUSH2 0x1246 PUSH2 0x4CC8 JUMP JUMPDEST JUMPDEST SWAP1 POP PUSH1 0x20 MUL DUP2 ADD SWAP1 PUSH2 0x1259 SWAP2 SWAP1 PUSH2 0x4E09 JUMP JUMPDEST PUSH0 ADD PUSH1 0x20 DUP2 ADD SWAP1 PUSH2 0x126A SWAP2 SWAP1 PUSH2 0x46BF JUMP JUMPDEST DUP8 DUP8 DUP5 DUP2 DUP2 LT PUSH2 0x127D JUMPI PUSH2 0x127C PUSH2 0x4CC8 JUMP JUMPDEST JUMPDEST SWAP1 POP PUSH1 0x20 MUL DUP2 ADD SWAP1 PUSH2 0x128F SWAP2 SWAP1 PUSH2 0x4E09 JUMP JUMPDEST PUSH1 0x20 ADD CALLDATALOAD DUP9 DUP9 DUP6 DUP2 DUP2 LT PUSH2 0x12A6 JUMPI PUSH2 0x12A5 PUSH2 0x4CC8 JUMP JUMPDEST JUMPDEST SWAP1 POP PUSH1 0x20 MUL DUP2 ADD SWAP1 PUSH2 0x12B8 SWAP2 SWAP1 PUSH2 0x4E09 JUMP JUMPDEST DUP1 PUSH1 0x40 ADD SWAP1 PUSH2 0x12C7 SWAP2 SWAP1 PUSH2 0x4E30 JUMP JUMPDEST DUP11 DUP11 DUP8 DUP2 DUP2 LT PUSH2 0x12DA JUMPI PUSH2 0x12D9 PUSH2 0x4CC8 JUMP JUMPDEST JUMPDEST SWAP1 POP PUSH1 0x20 MUL DUP2 ADD SWAP1 PUSH2 0x12EC SWAP2 SWAP1 PUSH2 0x4E09 JUMP JUMPDEST PUSH1 0x60 ADD PUSH1 0x20 DUP2 ADD SWAP1 PUSH2 0x12FE SWAP2 SWAP1 PUSH2 0x4E92 JUMP JUMPDEST PUSH2 0x2677 JUMP JUMPDEST DUP3 DUP3 DUP2 MLOAD DUP2 LT PUSH2 0x1316 JUMPI PUSH2 0x1315 PUSH2 0x4CC8 JUMP JUMPDEST JUMPDEST PUSH1 0x20 MUL PUSH1 0x20 ADD ADD DUP2 SWAP1 MSTORE POP DUP1 DUP1 PUSH1 0x1 ADD SWAP2 POP POP PUSH2 0x1229 JUMP JUMPDEST POP DUP1 SWAP3 POP POP POP SWAP3 SWAP2 POP POP JUMP JUMPDEST PUSH0 PUSH2 0x1343 PUSH2 0x288C JUMP JUMPDEST PUSH2 0x1390 DUP5 DUP5 DUP5 DUP1 DUP1 PUSH1 0x1F ADD PUSH1 0x20 DUP1 SWAP2 DIV MUL PUSH1 0x20 ADD PUSH1 0x40 MLOAD SWAP1 DUP2 ADD PUSH1 0x40 MSTORE DUP1 SWAP4 SWAP3 SWAP2 SWAP1 DUP2 DUP2 MSTORE PUSH1 0x20 ADD DUP4 DUP4 DUP1 DUP3 DUP5 CALLDATACOPY PUSH0 DUP2 DUP5 ADD MSTORE PUSH1 0x1F NOT PUSH1 0x1F DUP3 ADD AND SWAP1 POP DUP1 DUP4 ADD SWAP3 POP POP POP POP POP POP POP PUSH2 0x2B09 JUMP JUMPDEST SWAP1 POP SWAP4 SWAP3 POP POP POP JUMP JUMPDEST PUSH1 0x60 PUSH2 0x13AB PUSH2 0x13A6 PUSH2 0x23D3 JUMP JUMPDEST PUSH2 0x2411 JUMP JUMPDEST PUSH2 0x13E1 JUMPI PUSH1 0x40 MLOAD PUSH32 0xEA8E4EB500000000000000000000000000000000000000000000000000000000 DUP2 MSTORE PUSH1 0x4 ADD PUSH1 0x40 MLOAD DUP1 SWAP2 SUB SWAP1 REVERT JUMPDEST PUSH2 0x13E9 PUSH2 0x262E JUMP JUMPDEST PUSH2 0x13F6 DUP7 DUP7 DUP7 DUP7 DUP7 PUSH2 0x2677 JUMP JUMPDEST SWAP1 POP SWAP6 SWAP5 POP POP POP POP POP JUMP JUMPDEST PUSH0 PUSH2 0x144F DUP5 DUP5 DUP5 DUP1 DUP1 PUSH1 0x1F ADD PUSH1 0x20 DUP1 SWAP2 DIV MUL PUSH1 0x20 ADD PUSH1 0x40 MLOAD SWAP1 DUP2 ADD PUSH1 0x40 MSTORE DUP1 SWAP4 SWAP3 SWAP2 SWAP1 DUP2 DUP2 MSTORE PUSH1 0x20 ADD DUP4 DUP4 DUP1 DUP3 DUP5 CALLDATACOPY PUSH0 DUP2 DUP5 ADD MSTORE PUSH1 0x1F NOT PUSH1 0x1F DUP3 ADD AND SWAP1 POP DUP1 DUP4 ADD SWAP3 POP POP POP POP POP POP POP PUSH2 0x2B84 JUMP JUMPDEST ISZERO PUSH2 0x1463 JUMPI PUSH4 0x523E3260 PUSH1 0xE0 SHL SWAP1 POP PUSH2 0x146A JUMP JUMPDEST PUSH0 PUSH1 0xE0 SHL SWAP1 POP JUMPDEST SWAP4 SWAP3 POP POP POP JUMP JUMPDEST PUSH0 PUSH2 0x147A PUSH2 0x1B80 JUMP JUMPDEST PUSH20 0xFFFFFFFFFFFFFFFFFFFFFFFFFFFFFFFFFFFFFFFF AND DUP3 PUSH20 0xFFFFFFFFFFFFFFFFFFFFFFFFFFFFFFFFFFFFFFFF AND EQ SWAP1 POP SWAP2 SWAP1 POP JUMP JUMPDEST PUSH0 PUSH20 0xA28CD3034F9CEB2C56BCD2C7DFFD400FE83B522C PUSH20 0xFFFFFFFFFFFFFFFFFFFFFFFFFFFFFFFFFFFFFFFF AND CALLER PUSH20 0xFFFFFFFFFFFFFFFFFFFFFFFFFFFFFFFFFFFFFFFF AND EQ PUSH2 0x1532 JUMPI PUSH1 0x40 MLOAD PUSH32 0x8C379A000000000000000000000000000000000000000000000000000000000 DUP2 MSTORE PUSH1 0x4 ADD PUSH2 0x1529 SWAP1 PUSH2 0x4F17 JUMP JUMPDEST PUSH1 0x40 MLOAD DUP1 SWAP2 SUB SWAP1 REVERT JUMPDEST PUSH0 DUP7 SWAP1 POP PUSH0 PUSH20 0xE592427A0AECE92DE3EDEE1F18E0157C05861564 SWAP1 POP DUP6 DUP3 PUSH20 0xFFFFFFFFFFFFFFFFFFFFFFFFFFFFFFFFFFFFFFFF AND PUSH4 0x70A08231 ADDRESS PUSH1 0x40 MLOAD DUP3 PUSH4 0xFFFFFFFF AND PUSH1 0xE0 SHL DUP2 MSTORE PUSH1 0x4 ADD PUSH2 0x1588 SWAP2 SWAP1 PUSH2 0x3CEE JUMP JUMPDEST PUSH1 0x20 PUSH1 0x40 MLOAD DUP1 DUP4 SUB DUP2 DUP7 GAS STATICCALL ISZERO DUP1 ISZERO PUSH2 0x15A3 JUMPI RETURNDATASIZE PUSH0 DUP1 RETURNDATACOPY RETURNDATASIZE PUSH0 REVERT JUMPDEST POP POP POP POP PUSH1 0x40 MLOAD RETURNDATASIZE PUSH1 0x1F NOT PUSH1 0x1F DUP3 ADD AND DUP3 ADD DUP1 PUSH1 0x40 MSTORE POP DUP2 ADD SWAP1 PUSH2 0x15C7 SWAP2 SWAP1 PUSH2 0x4F49 JUMP JUMPDEST LT ISZERO PUSH2 0x1608 JUMPI PUSH1 0x40 MLOAD PUSH32 0x8C379A000000000000000000000000000000000000000000000000000000000 DUP2 MSTORE PUSH1 0x4 ADD PUSH2 0x15FF SWAP1 PUSH2 0x4FBE JUMP JUMPDEST PUSH1 0x40 MLOAD DUP1 SWAP2 SUB SWAP1 REVERT JUMPDEST PUSH0 DUP5 DUP7 PUSH2 0x1615 SWAP2 SWAP1 PUSH2 0x5009 JUMP JUMPDEST SWAP1 POP PUSH0 PUSH2 0x1622 DUP9 DUP4 PUSH2 0x2C4C JUMP JUMPDEST SWAP1 POP DUP4 PUSH20 0xFFFFFFFFFFFFFFFFFFFFFFFFFFFFFFFFFFFFFFFF AND PUSH4 0x95EA7B3 DUP5 DUP11 PUSH1 0x40 MLOAD DUP4 PUSH4 0xFFFFFFFF AND PUSH1 0xE0 SHL DUP2 MSTORE PUSH1 0x4 ADD PUSH2 0x165F SWAP3 SWAP2 SWAP1 PUSH2 0x503C JUMP JUMPDEST PUSH1 0x20 PUSH1 0x40 MLOAD DUP1 DUP4 SUB DUP2 PUSH0 DUP8 GAS CALL ISZERO DUP1 ISZERO PUSH2 0x167B JUMPI RETURNDATASIZE PUSH0 DUP1 RETURNDATACOPY RETURNDATASIZE PUSH0 REVERT JUMPDEST POP POP POP POP PUSH1 0x40 MLOAD RETURNDATASIZE PUSH1 0x1F NOT PUSH1 0x1F DUP3 ADD AND DUP3 ADD DUP1 PUSH1 0x40 MSTORE POP DUP2 ADD SWAP1 PUSH2 0x169F SWAP2 SWAP1 PUSH2 0x4D93 JUMP JUMPDEST POP DUP4 PUSH20 0xFFFFFFFFFFFFFFFFFFFFFFFFFFFFFFFFFFFFFFFF AND PUSH4 0xA9059CBB PUSH20 0x449F07DC7616C43B47DBE8CF57DC1F6E34EF82F8 DUP5 PUSH1 0x40 MLOAD DUP4 PUSH4 0xFFFFFFFF AND PUSH1 0xE0 SHL DUP2 MSTORE PUSH1 0x4 ADD PUSH2 0x16EF SWAP3 SWAP2 SWAP1 PUSH2 0x503C JUMP JUMPDEST PUSH1 0x20 PUSH1 0x40 MLOAD DUP1 DUP4 SUB DUP2 PUSH0 DUP8 GAS CALL ISZERO DUP1 ISZERO PUSH2 0x170B JUMPI RETURNDATASIZE PUSH0 DUP1 RETURNDATACOPY RETURNDATASIZE PUSH0 REVERT JUMPDEST POP POP POP POP PUSH1 0x40 MLOAD RETURNDATASIZE PUSH1 0x1F NOT PUSH1 0x1F DUP3 ADD AND DUP3 ADD DUP1 PUSH1 0x40 MSTORE POP DUP2 ADD SWAP1 PUSH2 0x172F SWAP2 SWAP1 PUSH2 0x4D93 JUMP JUMPDEST POP PUSH0 PUSH1 0x40 MLOAD DUP1 PUSH2 0x100 ADD PUSH1 0x40 MSTORE DUP1 DUP13 PUSH20 0xFFFFFFFFFFFFFFFFFFFFFFFFFFFFFFFFFFFFFFFF AND DUP2 MSTORE PUSH1 0x20 ADD DUP12 PUSH20 0xFFFFFFFFFFFFFFFFFFFFFFFFFFFFFFFFFFFFFFFF AND DUP2 MSTORE PUSH1 0x20 ADD PUSH2 0xBB8 PUSH3 0xFFFFFF AND DUP2 MSTORE PUSH1 0x20 ADD ADDRESS PUSH20 0xFFFFFFFFFFFFFFFFFFFFFFFFFFFFFFFFFFFFFFFF AND DUP2 MSTORE PUSH1 0x20 ADD TIMESTAMP DUP2 MSTORE PUSH1 0x20 ADD DUP4 DUP2 MSTORE PUSH1 0x20 ADD PUSH0 DUP2 MSTORE PUSH1 0x20 ADD PUSH0 PUSH20 0xFFFFFFFFFFFFFFFFFFFFFFFFFFFFFFFFFFFFFFFF AND DUP2 MSTORE POP SWAP1 POP DUP4 PUSH20 0xFFFFFFFFFFFFFFFFFFFFFFFFFFFFFFFFFFFFFFFF AND PUSH4 0x414BF389 DUP3 PUSH1 0x40 MLOAD DUP3 PUSH4 0xFFFFFFFF AND PUSH1 0xE0 SHL DUP2 MSTORE PUSH1 0x4 ADD PUSH2 0x1805 SWAP2 SWAP1 PUSH2 0x514D JUMP JUMPDEST PUSH1 0x20 PUSH1 0x40 MLOAD DUP1 DUP4 SUB DUP2 PUSH0 DUP8 GAS CALL ISZERO DUP1 ISZERO PUSH2 0x1821 JUMPI RETURNDATASIZE PUSH0 DUP1 RETURNDATACOPY RETURNDATASIZE PUSH0 REVERT JUMPDEST POP POP POP POP PUSH1 0x40 MLOAD RETURNDATASIZE PUSH1 0x1F NOT PUSH1 0x1F DUP3 ADD AND DUP3 ADD DUP1 PUSH1 0x40 MSTORE POP DUP2 ADD SWAP1 PUSH2 0x1845 SWAP2 SWAP1 PUSH2 0x4F49 JUMP JUMPDEST SWAP6 POP POP POP POP POP POP SWAP6 SWAP5 POP POP POP POP POP JUMP JUMPDEST PUSH0 DUP1 PUSH0 PUSH2 0x1860 PUSH2 0x1EFD JUMP JUMPDEST SWAP3 POP SWAP3 POP SWAP3 POP PUSH0 PUSH2 0x1872 DUP5 DUP5 DUP5 PUSH2 0x1F14 JUMP JUMPDEST SWAP1 POP PUSH0 PUSH20 0xFFFFFFFFFFFFFFFFFFFFFFFFFFFFFFFFFFFFFFFF AND DUP2 PUSH20 0xFFFFFFFFFFFFFFFFFFFFFFFFFFFFFFFFFFFFFFFF AND SUB PUSH2 0x18D9 JUMPI PUSH1 0x40 MLOAD PUSH32 0xEA8E4EB500000000000000000000000000000000000000000000000000000000 DUP2 MSTORE PUSH1 0x4 ADD PUSH1 0x40 MLOAD DUP1 SWAP2 SUB SWAP1 REVERT JUMPDEST DUP1 PUSH20 0xFFFFFFFFFFFFFFFFFFFFFFFFFFFFFFFFFFFFFFFF AND CALLER PUSH20 0xFFFFFFFFFFFFFFFFFFFFFFFFFFFFFFFFFFFFFFFF AND EQ PUSH2 0x193E JUMPI PUSH1 0x40 MLOAD PUSH32 0xEA8E4EB500000000000000000000000000000000000000000000000000000000 DUP2 MSTORE PUSH1 0x4 ADD PUSH1 0x40 MLOAD DUP1 SWAP2 SUB SWAP1 REVERT JUMPDEST PUSH2 0x1946 PUSH2 0x2C61 JUMP JUMPDEST PUSH0 PUSH2 0x1950 ADDRESS PUSH2 0x1F39 JUMP JUMPDEST SWAP1 POP PUSH0 DUP2 PUSH20 0xFFFFFFFFFFFFFFFFFFFFFFFFFFFFFFFFFFFFFFFF AND EXTCODESIZE SUB PUSH2 0x197A JUMPI PUSH2 0x1979 ADDRESS PUSH2 0x2CAA JUMP JUMPDEST JUMPDEST PUSH0 DUP10 DUP10 SWAP1 POP SWAP1 POP DUP1 DUP9 DUP9 SWAP1 POP EQ PUSH2 0x19BD JUMPI PUSH1 0x40 MLOAD PUSH32 0xB4FA3FB300000000000000000000000000000000000000000000000000000000 DUP2 MSTORE PUSH1 0x4 ADD PUSH1 0x40 MLOAD DUP1 SWAP2 SUB SWAP1 REVERT JUMPDEST PUSH0 JUMPDEST DUP2 DUP2 LT ISZERO PUSH2 0x1B73 JUMPI DUP9 DUP9 DUP3 DUP2 DUP2 LT PUSH2 0x19DA JUMPI PUSH2 0x19D9 PUSH2 0x4CC8 JUMP JUMPDEST JUMPDEST SWAP1 POP PUSH1 0x20 MUL ADD PUSH1 0x20 DUP2 ADD SWAP1 PUSH2 0x19EF SWAP2 SWAP1 PUSH2 0x46BF JUMP JUMPDEST PUSH1 0x1 PUSH0 DUP7 PUSH20 0xFFFFFFFFFFFFFFFFFFFFFFFFFFFFFFFFFFFFFFFF AND PUSH20 0xFFFFFFFFFFFFFFFFFFFFFFFFFFFFFFFFFFFFFFFF AND DUP2 MSTORE PUSH1 0x20 ADD SWAP1 DUP2 MSTORE PUSH1 0x20 ADD PUSH0 KECCAK256 PUSH0 DUP14 DUP14 DUP6 DUP2 DUP2 LT PUSH2 0x1A40 JUMPI PUSH2 0x1A3F PUSH2 0x4CC8 JUMP JUMPDEST JUMPDEST SWAP1 POP PUSH1 0x20 MUL ADD PUSH1 0x20 DUP2 ADD SWAP1 PUSH2 0x1A55 SWAP2 SWAP1 PUSH2 0x3B1D JUMP JUMPDEST PUSH28 0xFFFFFFFFFFFFFFFFFFFFFFFFFFFFFFFFFFFFFFFFFFFFFFFFFFFFFFFF NOT AND PUSH28 0xFFFFFFFFFFFFFFFFFFFFFFFFFFFFFFFFFFFFFFFFFFFFFFFFFFFFFFFF NOT AND DUP2 MSTORE PUSH1 0x20 ADD SWAP1 DUP2 MSTORE PUSH1 0x20 ADD PUSH0 KECCAK256 PUSH0 PUSH2 0x100 EXP DUP2 SLOAD DUP2 PUSH20 0xFFFFFFFFFFFFFFFFFFFFFFFFFFFFFFFFFFFFFFFF MUL NOT AND SWAP1 DUP4 PUSH20 0xFFFFFFFFFFFFFFFFFFFFFFFFFFFFFFFFFFFFFFFF AND MUL OR SWAP1 SSTORE POP PUSH32 0x2C722487E90ACA38EC1B074C3403210BD2BFB769B4DA7F12F7BF0B9E37517C18 DUP5 DUP13 DUP13 DUP5 DUP2 DUP2 LT PUSH2 0x1B12 JUMPI PUSH2 0x1B11 PUSH2 0x4CC8 JUMP JUMPDEST JUMPDEST SWAP1 POP PUSH1 0x20 MUL ADD PUSH1 0x20 DUP2 ADD SWAP1 PUSH2 0x1B27 SWAP2 SWAP1 PUSH2 0x3B1D JUMP JUMPDEST DUP12 DUP12 DUP6 DUP2 DUP2 LT PUSH2 0x1B3A JUMPI PUSH2 0x1B39 PUSH2 0x4CC8 JUMP JUMPDEST JUMPDEST SWAP1 POP PUSH1 0x20 MUL ADD PUSH1 0x20 DUP2 ADD SWAP1 PUSH2 0x1B4F SWAP2 SWAP1 PUSH2 0x46BF JUMP JUMPDEST PUSH1 0x40 MLOAD PUSH2 0x1B5E SWAP4 SWAP3 SWAP2 SWAP1 PUSH2 0x5167 JUMP JUMPDEST PUSH1 0x40 MLOAD DUP1 SWAP2 SUB SWAP1 LOG1 DUP1 DUP1 PUSH1 0x1 ADD SWAP2 POP POP PUSH2 0x19BF JUMP JUMPDEST POP POP POP POP POP POP POP POP POP POP POP JUMP JUMPDEST PUSH0 PUSH32 0x0 SWAP1 POP SWAP1 JUMP JUMPDEST PUSH0 DUP1 PUSH0 DUP1 PUSH2 0x1BB3 PUSH2 0x1EFD JUMP JUMPDEST SWAP3 POP SWAP3 POP SWAP3 POP PUSH2 0x1BC4 DUP4 DUP4 DUP4 PUSH2 0x2CE1 JUMP JUMPDEST SWAP4 POP POP POP POP SWAP1 JUMP JUMPDEST PUSH0 TIMESTAMP PUSH0 SLOAD GT SWAP1 POP SWAP1 JUMP JUMPDEST PUSH0 PUSH32 0x0 SWAP1 POP SWAP1 JUMP JUMPDEST PUSH1 0x60 PUSH2 0x1C07 PUSH2 0x288C JUMP JUMPDEST PUSH2 0x1C55 DUP6 DUP6 DUP6 DUP6 DUP1 DUP1 PUSH1 0x1F ADD PUSH1 0x20 DUP1 SWAP2 DIV MUL PUSH1 0x20 ADD PUSH1 0x40 MLOAD SWAP1 DUP2 ADD PUSH1 0x40 MSTORE DUP1 SWAP4 SWAP3 SWAP2 SWAP1 DUP2 DUP2 MSTORE PUSH1 0x20 ADD DUP4 DUP4 DUP1 DUP3 DUP5 CALLDATACOPY PUSH0 DUP2 DUP5 ADD MSTORE PUSH1 0x1F NOT PUSH1 0x1F DUP3 ADD AND SWAP1 POP DUP1 DUP4 ADD SWAP3 POP POP POP POP POP POP POP PUSH2 0x2DA2 JUMP JUMPDEST SWAP1 POP SWAP5 SWAP4 POP POP POP POP JUMP JUMPDEST PUSH0 PUSH2 0x1C68 PUSH2 0x7F1 JUMP JUMPDEST PUSH4 0xBC197C81 PUSH1 0xE0 SHL SWAP1 POP SWAP6 SWAP5 POP POP POP POP POP JUMP JUMPDEST PUSH0 PUSH1 0x3 SLOAD SWAP1 POP SWAP1 JUMP JUMPDEST PUSH0 SLOAD DUP2 JUMP JUMPDEST PUSH0 PUSH2 0x1C92 PUSH2 0x1BD6 JUMP JUMPDEST PUSH20 0xFFFFFFFFFFFFFFFFFFFFFFFFFFFFFFFFFFFFFFFF AND PUSH4 0x35567E1A ADDRESS PUSH0 PUSH1 0x40 MLOAD DUP4 PUSH4 0xFFFFFFFF AND PUSH1 0xE0 SHL DUP2 MSTORE PUSH1 0x4 ADD PUSH2 0x1CCC SWAP3 SWAP2 SWAP1 PUSH2 0x51F8 JUMP JUMPDEST PUSH1 0x20 PUSH1 0x40 MLOAD DUP1 DUP4 SUB DUP2 DUP7 GAS STATICCALL ISZERO DUP1 ISZERO PUSH2 0x1CE7 JUMPI RETURNDATASIZE PUSH0 DUP1 RETURNDATACOPY RETURNDATASIZE PUSH0 REVERT JUMPDEST POP POP POP POP PUSH1 0x40 MLOAD RETURNDATASIZE PUSH1 0x1F NOT PUSH1 0x1F DUP3 ADD AND DUP3 ADD DUP1 PUSH1 0x40 MSTORE POP DUP2 ADD SWAP1 PUSH2 0x1D0B SWAP2 SWAP1 PUSH2 0x4F49 JUMP JUMPDEST SWAP1 POP SWAP1 JUMP JUMPDEST PUSH0 DUP1 PUSH0 PUSH2 0x1D1B PUSH2 0x1EFD JUMP JUMPDEST SWAP3 POP SWAP3 POP SWAP3 POP PUSH0 PUSH2 0x1D2D DUP5 DUP5 DUP5 PUSH2 0x1F14 JUMP JUMPDEST SWAP1 POP PUSH0 PUSH20 0xFFFFFFFFFFFFFFFFFFFFFFFFFFFFFFFFFFFFFFFF AND DUP2 PUSH20 0xFFFFFFFFFFFFFFFFFFFFFFFFFFFFFFFFFFFFFFFF AND SUB PUSH2 0x1D94 JUMPI PUSH1 0x40 MLOAD PUSH32 0xEA8E4EB500000000000000000000000000000000000000000000000000000000 DUP2 MSTORE PUSH1 0x4 ADD PUSH1 0x40 MLOAD DUP1 SWAP2 SUB SWAP1 REVERT JUMPDEST DUP1 PUSH20 0xFFFFFFFFFFFFFFFFFFFFFFFFFFFFFFFFFFFFFFFF AND CALLER PUSH20 0xFFFFFFFFFFFFFFFFFFFFFFFFFFFFFFFFFFFFFFFF AND EQ PUSH2 0x1DF9 JUMPI PUSH1 0x40 MLOAD PUSH32 0xEA8E4EB500000000000000000000000000000000000000000000000000000000 DUP2 MSTORE PUSH1 0x4 ADD PUSH1 0x40 MLOAD DUP1 SWAP2 SUB SWAP1 REVERT JUMPDEST PUSH4 0x1E13380 TIMESTAMP PUSH2 0x1E09 SWAP2 SWAP1 PUSH2 0x5009 JUMP JUMPDEST DUP6 GT ISZERO PUSH2 0x1E42 JUMPI PUSH1 0x40 MLOAD PUSH32 0xC0A7BE800000000000000000000000000000000000000000000000000000000 DUP2 MSTORE PUSH1 0x4 ADD PUSH1 0x40 MLOAD DUP1 SWAP2 SUB SWAP1 REVERT JUMPDEST PUSH2 0x1E4A PUSH2 0x2E28 JUMP JUMPDEST DUP5 PUSH0 DUP2 SWAP1 SSTORE POP PUSH32 0xA7B24C66DD3269A292A60B3FACDBB8F3E7557D1E19E64D99E0D6EE7250BE63AD DUP6 PUSH1 0x40 MLOAD PUSH2 0x1E7F SWAP2 SWAP1 PUSH2 0x43A5 JUMP JUMPDEST PUSH1 0x40 MLOAD DUP1 SWAP2 SUB SWAP1 LOG1 POP POP POP POP POP JUMP JUMPDEST PUSH1 0x1 PUSH1 0x20 MSTORE DUP2 PUSH0 MSTORE PUSH1 0x40 PUSH0 KECCAK256 PUSH1 0x20 MSTORE DUP1 PUSH0 MSTORE PUSH1 0x40 PUSH0 KECCAK256 PUSH0 SWAP2 POP SWAP2 POP SWAP1 SLOAD SWAP1 PUSH2 0x100 EXP SWAP1 DIV PUSH20 0xFFFFFFFFFFFFFFFFFFFFFFFFFFFFFFFFFFFFFFFF AND DUP2 JUMP JUMPDEST PUSH0 PUSH2 0x1ED4 PUSH2 0x7F1 JUMP JUMPDEST PUSH4 0xF23A6E61 PUSH1 0xE0 SHL SWAP1 POP SWAP6 SWAP5 POP POP POP POP POP JUMP JUMPDEST PUSH0 DUP1 PUSH0 PUSH2 0x1EF2 PUSH2 0x1EFD JUMP JUMPDEST SWAP3 POP SWAP3 POP SWAP3 POP SWAP1 SWAP2 SWAP3 JUMP JUMPDEST PUSH0 DUP1 PUSH0 PUSH2 0x1F09 ADDRESS PUSH2 0x2E71 JUMP JUMPDEST SWAP3 POP SWAP3 POP SWAP3 POP SWAP1 SWAP2 SWAP3 JUMP JUMPDEST PUSH0 DUP1 PUSH2 0x1F21 DUP6 DUP6 DUP6 PUSH2 0x2CE1 JUMP JUMPDEST SWAP1 POP PUSH2 0x1F2F DUP2 DUP7 DUP7 DUP7 PUSH2 0x2EF1 JUMP JUMPDEST SWAP2 POP POP SWAP4 SWAP3 POP POP POP JUMP JUMPDEST PUSH0 PUSH2 0x1F73 PUSH32 0x97F795A08410E77DC9DBBABA3915F17C601E45642518DD578BD440D8775BFEE4 PUSH2 0x1F67 DUP5 PUSH2 0x2FDE JUMP JUMPDEST DUP1 MLOAD SWAP1 PUSH1 0x20 ADD KECCAK256 PUSH2 0x3058 JUMP JUMPDEST SWAP1 POP SWAP2 SWAP1 POP JUMP JUMPDEST PUSH0 PUSH32 0x5194544700000000000000000000000000000000000000000000000000000000 PUSH28 0xFFFFFFFFFFFFFFFFFFFFFFFFFFFFFFFFFFFFFFFFFFFFFFFFFFFFFFFF NOT AND DUP3 PUSH28 0xFFFFFFFFFFFFFFFFFFFFFFFFFFFFFFFFFFFFFFFFFFFFFFFFFFFFFFFF NOT AND EQ DUP1 PUSH2 0x1FEC JUMPI POP PUSH2 0x1FEB DUP3 PUSH2 0x306C JUMP JUMPDEST JUMPDEST SWAP1 POP SWAP2 SWAP1 POP JUMP JUMPDEST PUSH0 DUP1 PUSH0 PUSH2 0x1FFE PUSH2 0x1EFD JUMP JUMPDEST SWAP3 POP SWAP3 POP SWAP3 POP PUSH0 PUSH2 0x2010 DUP5 DUP5 DUP5 PUSH2 0x1F14 JUMP JUMPDEST SWAP1 POP PUSH0 PUSH1 0x1 PUSH0 DUP4 PUSH20 0xFFFFFFFFFFFFFFFFFFFFFFFFFFFFFFFFFFFFFFFF AND PUSH20 0xFFFFFFFFFFFFFFFFFFFFFFFFFFFFFFFFFFFFFFFF AND DUP2 MSTORE PUSH1 0x20 ADD SWAP1 DUP2 MSTORE PUSH1 0x20 ADD PUSH0 KECCAK256 PUSH0 DUP1 CALLDATALOAD PUSH32 0xFFFFFFFF00000000000000000000000000000000000000000000000000000000 AND PUSH28 0xFFFFFFFFFFFFFFFFFFFFFFFFFFFFFFFFFFFFFFFFFFFFFFFFFFFFFFFF NOT AND PUSH28 0xFFFFFFFFFFFFFFFFFFFFFFFFFFFFFFFFFFFFFFFFFFFFFFFFFFFFFFFF NOT AND DUP2 MSTORE PUSH1 0x20 ADD SWAP1 DUP2 MSTORE PUSH1 0x20 ADD PUSH0 KECCAK256 PUSH0 SWAP1 SLOAD SWAP1 PUSH2 0x100 EXP SWAP1 DIV PUSH20 0xFFFFFFFFFFFFFFFFFFFFFFFFFFFFFFFFFFFFFFFF AND SWAP1 POP PUSH0 PUSH20 0xFFFFFFFFFFFFFFFFFFFFFFFFFFFFFFFFFFFFFFFF AND DUP2 PUSH20 0xFFFFFFFFFFFFFFFFFFFFFFFFFFFFFFFFFFFFFFFF AND EQ PUSH2 0x2195 JUMPI PUSH0 DUP1 DUP3 PUSH20 0xFFFFFFFFFFFFFFFFFFFFFFFFFFFFFFFFFFFFFFFF AND PUSH0 CALLDATASIZE PUSH1 0x40 MLOAD PUSH2 0x213E SWAP3 SWAP2 SWAP1 PUSH2 0x521F JUMP JUMPDEST PUSH0 PUSH1 0x40 MLOAD DUP1 DUP4 SUB DUP2 DUP6 GAS STATICCALL SWAP2 POP POP RETURNDATASIZE DUP1 PUSH0 DUP2 EQ PUSH2 0x2176 JUMPI PUSH1 0x40 MLOAD SWAP2 POP PUSH1 0x1F NOT PUSH1 0x3F RETURNDATASIZE ADD AND DUP3 ADD PUSH1 0x40 MSTORE RETURNDATASIZE DUP3 MSTORE RETURNDATASIZE PUSH0 PUSH1 0x20 DUP5 ADD RETURNDATACOPY PUSH2 0x217B JUMP JUMPDEST PUSH1 0x60 SWAP2 POP JUMPDEST POP SWAP2 POP SWAP2 POP DUP2 PUSH2 0x218D JUMPI DUP1 MLOAD PUSH1 0x20 DUP3 ADD REVERT JUMPDEST DUP1 MLOAD PUSH1 0x20 DUP3 ADD RETURN JUMPDEST POP POP POP POP POP JUMP JUMPDEST PUSH2 0x21A4 PUSH2 0x1BCC JUMP JUMPDEST ISZERO PUSH2 0x21DB JUMPI PUSH1 0x40 MLOAD PUSH32 0x6315BFBB00000000000000000000000000000000000000000000000000000000 DUP2 MSTORE PUSH1 0x4 ADD PUSH1 0x40 MLOAD DUP1 SWAP2 SUB SWAP1 REVERT JUMPDEST PUSH2 0x21E3 PUSH2 0x30E5 JUMP JUMPDEST JUMP JUMPDEST PUSH0 DUP1 DUP4 DUP4 PUSH1 0x40 DUP2 DUP2 LT PUSH2 0x21FB JUMPI PUSH2 0x21FA PUSH2 0x4CC8 JUMP JUMPDEST JUMPDEST SWAP1 POP ADD CALLDATALOAD PUSH1 0xF8 SHR PUSH1 0xF8 SHL PUSH1 0xF8 SHR SWAP1 POP PUSH0 DUP1 DUP3 PUSH1 0xFF AND SUB PUSH2 0x2328 JUMPI DUP5 DUP5 PUSH0 SWAP1 PUSH1 0x20 SWAP3 PUSH2 0x2228 SWAP4 SWAP3 SWAP2 SWAP1 PUSH2 0x523F JUMP JUMPDEST SWAP1 PUSH2 0x2233 SWAP2 SWAP1 PUSH2 0x528F JUMP JUMPDEST PUSH0 SHR SWAP1 POP PUSH2 0x224F DUP2 PUSH1 0x40 MLOAD DUP1 PUSH1 0x20 ADD PUSH1 0x40 MSTORE DUP1 PUSH0 DUP2 MSTORE POP PUSH2 0x2B84 JUMP JUMPDEST ISZERO DUP1 ISZERO PUSH2 0x2288 JUMPI POP ADDRESS PUSH20 0xFFFFFFFFFFFFFFFFFFFFFFFFFFFFFFFFFFFFFFFF AND DUP2 PUSH20 0xFFFFFFFFFFFFFFFFFFFFFFFFFFFFFFFFFFFFFFFF AND EQ ISZERO JUMPDEST ISZERO PUSH2 0x2297 JUMPI PUSH0 SWAP3 POP POP POP PUSH2 0x23CC JUMP JUMPDEST CALLDATASIZE PUSH0 DUP7 DUP7 DUP9 DUP9 PUSH1 0x20 SWAP1 PUSH1 0x40 SWAP3 PUSH2 0x22AF SWAP4 SWAP3 SWAP2 SWAP1 PUSH2 0x523F JUMP JUMPDEST SWAP1 PUSH2 0x22BA SWAP2 SWAP1 PUSH2 0x528F JUMP JUMPDEST PUSH0 SHR SWAP1 DUP1 SWAP3 PUSH2 0x22CB SWAP4 SWAP3 SWAP2 SWAP1 PUSH2 0x523F JUMP JUMPDEST SWAP2 POP SWAP2 POP PUSH2 0x231D DUP4 DUP10 DUP5 DUP5 DUP1 DUP1 PUSH1 0x1F ADD PUSH1 0x20 DUP1 SWAP2 DIV MUL PUSH1 0x20 ADD PUSH1 0x40 MLOAD SWAP1 DUP2 ADD PUSH1 0x40 MSTORE DUP1 SWAP4 SWAP3 SWAP2 SWAP1 DUP2 DUP2 MSTORE PUSH1 0x20 ADD DUP4 DUP4 DUP1 DUP3 DUP5 CALLDATACOPY PUSH0 DUP2 DUP5 ADD MSTORE PUSH1 0x1F NOT PUSH1 0x1F DUP3 ADD AND SWAP1 POP DUP1 DUP4 ADD SWAP3 POP POP POP POP POP POP POP PUSH2 0x3122 JUMP JUMPDEST SWAP5 POP POP POP POP POP PUSH2 0x23CC JUMP JUMPDEST PUSH0 PUSH2 0x2376 DUP8 DUP8 DUP8 DUP1 DUP1 PUSH1 0x1F ADD PUSH1 0x20 DUP1 SWAP2 DIV MUL PUSH1 0x20 ADD PUSH1 0x40 MLOAD SWAP1 DUP2 ADD PUSH1 0x40 MSTORE DUP1 SWAP4 SWAP3 SWAP2 SWAP1 DUP2 DUP2 MSTORE PUSH1 0x20 ADD DUP4 DUP4 DUP1 DUP3 DUP5 CALLDATACOPY PUSH0 DUP2 DUP5 ADD MSTORE PUSH1 0x1F NOT PUSH1 0x1F DUP3 ADD AND SWAP1 POP DUP1 DUP4 ADD SWAP3 POP POP POP POP POP POP POP PUSH2 0x3241 JUMP JUMPDEST SWAP2 POP PUSH0 PUSH1 0x3 DUP2 GT ISZERO PUSH2 0x238B JUMPI PUSH2 0x238A PUSH2 0x52ED JUMP JUMPDEST JUMPDEST DUP2 PUSH1 0x3 DUP2 GT ISZERO PUSH2 0x239E JUMPI PUSH2 0x239D PUSH2 0x52ED JUMP JUMPDEST JUMPDEST EQ PUSH2 0x23AE JUMPI PUSH0 SWAP4 POP POP POP POP PUSH2 0x23CC JUMP JUMPDEST PUSH2 0x23C6 DUP3 PUSH1 0x40 MLOAD DUP1 PUSH1 0x20 ADD PUSH1 0x40 MSTORE DUP1 PUSH0 DUP2 MSTORE POP PUSH2 0x2B84 JUMP JUMPDEST SWAP4 POP POP POP POP JUMPDEST SWAP4 SWAP3 POP POP POP JUMP JUMPDEST PUSH0 PUSH2 0x23DC PUSH2 0x326B JUMP JUMPDEST SWAP1 POP SWAP1 JUMP JUMPDEST PUSH0 DUP1 PUSH2 0x23F0 DUP8 DUP8 DUP8 DUP8 DUP8 PUSH2 0x32AC JUMP JUMPDEST DUP1 MLOAD SWAP1 PUSH1 0x20 ADD KECCAK256 SWAP1 POP PUSH2 0x2404 DUP7 DUP3 DUP11 PUSH2 0x331A JUMP JUMPDEST SWAP2 POP POP SWAP7 SWAP6 POP POP POP POP POP POP JUMP JUMPDEST PUSH0 PUSH2 0x241A PUSH2 0x1BD6 JUMP JUMPDEST PUSH20 0xFFFFFFFFFFFFFFFFFFFFFFFFFFFFFFFFFFFFFFFF AND DUP3 PUSH20 0xFFFFFFFFFFFFFFFFFFFFFFFFFFFFFFFFFFFFFFFF AND SUB PUSH2 0x2455 JUMPI PUSH1 0x1 SWAP1 POP PUSH2 0x2629 JUMP JUMPDEST PUSH0 DUP1 PUSH0 PUSH2 0x2460 PUSH2 0x1EFD JUMP JUMPDEST SWAP3 POP SWAP3 POP SWAP3 POP CHAINID DUP4 EQ PUSH2 0x2565 JUMPI ADDRESS PUSH20 0xFFFFFFFFFFFFFFFFFFFFFFFFFFFFFFFFFFFFFFFF AND PUSH2 0x2494 PUSH2 0x248F PUSH2 0x23D3 JUMP JUMPDEST PUSH2 0x3344 JUMP JUMPDEST PUSH20 0xFFFFFFFFFFFFFFFFFFFFFFFFFFFFFFFFFFFFFFFF AND SUB PUSH2 0x24BB JUMPI PUSH1 0x1 SWAP4 POP POP POP POP PUSH2 0x2629 JUMP JUMPDEST PUSH32 0x0 PUSH20 0xFFFFFFFFFFFFFFFFFFFFFFFFFFFFFFFFFFFFFFFF AND PUSH4 0x672657CA DUP7 PUSH1 0x40 MLOAD DUP3 PUSH4 0xFFFFFFFF AND PUSH1 0xE0 SHL DUP2 MSTORE PUSH1 0x4 ADD PUSH2 0x2514 SWAP2 SWAP1 PUSH2 0x3CEE JUMP JUMPDEST PUSH1 0x20 PUSH1 0x40 MLOAD DUP1 DUP4 SUB DUP2 DUP7 GAS STATICCALL ISZERO DUP1 ISZERO PUSH2 0x252F JUMPI RETURNDATASIZE PUSH0 DUP1 RETURNDATACOPY RETURNDATASIZE PUSH0 REVERT JUMPDEST POP POP POP POP PUSH1 0x40 MLOAD RETURNDATASIZE PUSH1 0x1F NOT PUSH1 0x1F DUP3 ADD AND DUP3 ADD DUP1 PUSH1 0x40 MSTORE POP DUP2 ADD SWAP1 PUSH2 0x2553 SWAP2 SWAP1 PUSH2 0x4D93 JUMP JUMPDEST ISZERO PUSH2 0x2564 JUMPI PUSH1 0x1 SWAP4 POP POP POP POP PUSH2 0x2629 JUMP JUMPDEST JUMPDEST PUSH0 PUSH2 0x2571 DUP5 DUP5 DUP5 PUSH2 0x2CE1 JUMP JUMPDEST SWAP1 POP DUP1 PUSH20 0xFFFFFFFFFFFFFFFFFFFFFFFFFFFFFFFFFFFFFFFF AND DUP7 PUSH20 0xFFFFFFFFFFFFFFFFFFFFFFFFFFFFFFFFFFFFFFFF AND SUB PUSH2 0x25B3 JUMPI PUSH1 0x1 SWAP5 POP POP POP POP POP PUSH2 0x2629 JUMP JUMPDEST PUSH0 PUSH2 0x25C0 DUP3 DUP7 DUP7 DUP7 PUSH2 0x2EF1 JUMP JUMPDEST SWAP1 POP DUP1 PUSH20 0xFFFFFFFFFFFFFFFFFFFFFFFFFFFFFFFFFFFFFFFF AND DUP8 PUSH20 0xFFFFFFFFFFFFFFFFFFFFFFFFFFFFFFFFFFFFFFFF AND SUB PUSH2 0x2603 JUMPI PUSH1 0x1 SWAP6 POP POP POP POP POP POP PUSH2 0x2629 JUMP JUMPDEST PUSH2 0x260D DUP8 DUP3 PUSH2 0x3363 JUMP JUMPDEST ISZERO PUSH2 0x2620 JUMPI PUSH1 0x1 SWAP6 POP POP POP POP POP POP PUSH2 0x2629 JUMP JUMPDEST PUSH0 SWAP6 POP POP POP POP POP POP JUMPDEST SWAP2 SWAP1 POP JUMP JUMPDEST PUSH2 0x2636 PUSH2 0x1BCC JUMP JUMPDEST ISZERO PUSH2 0x266D JUMPI PUSH1 0x40 MLOAD PUSH32 0x6315BFBB00000000000000000000000000000000000000000000000000000000 DUP2 MSTORE PUSH1 0x4 ADD PUSH1 0x40 MLOAD DUP1 SWAP2 SUB SWAP1 REVERT JUMPDEST PUSH2 0x2675 PUSH2 0x30E5 JUMP JUMPDEST JUMP JUMPDEST PUSH1 0x60 PUSH0 PUSH1 0xFF AND DUP3 PUSH1 0xFF AND SUB PUSH2 0x26DB JUMPI PUSH2 0x26D4 DUP7 DUP7 DUP7 DUP7 DUP1 DUP1 PUSH1 0x1F ADD PUSH1 0x20 DUP1 SWAP2 DIV MUL PUSH1 0x20 ADD PUSH1 0x40 MLOAD SWAP1 DUP2 ADD PUSH1 0x40 MSTORE DUP1 SWAP4 SWAP3 SWAP2 SWAP1 DUP2 DUP2 MSTORE PUSH1 0x20 ADD DUP4 DUP4 DUP1 DUP3 DUP5 CALLDATACOPY PUSH0 DUP2 DUP5 ADD MSTORE PUSH1 0x1F NOT PUSH1 0x1F DUP3 ADD AND SWAP1 POP DUP1 DUP4 ADD SWAP3 POP POP POP POP POP POP POP PUSH2 0x2DA2 JUMP JUMPDEST SWAP1 POP PUSH2 0x2883 JUMP JUMPDEST PUSH1 0x1 PUSH1 0xFF AND DUP3 PUSH1 0xFF AND SUB PUSH2 0x2753 JUMPI PUSH0 PUSH2 0x26F3 ADDRESS PUSH2 0x1F39 JUMP JUMPDEST SWAP1 POP PUSH0 DUP2 PUSH20 0xFFFFFFFFFFFFFFFFFFFFFFFFFFFFFFFFFFFFFFFF AND EXTCODESIZE SUB PUSH2 0x271D JUMPI PUSH2 0x271C ADDRESS PUSH2 0x2CAA JUMP JUMPDEST JUMPDEST PUSH2 0x274B DUP2 DUP8 DUP10 DUP9 DUP9 PUSH1 0x40 MLOAD PUSH1 0x20 ADD PUSH2 0x2737 SWAP4 SWAP3 SWAP2 SWAP1 PUSH2 0x531A JUMP JUMPDEST PUSH1 0x40 MLOAD PUSH1 0x20 DUP2 DUP4 SUB SUB DUP2 MSTORE SWAP1 PUSH1 0x40 MSTORE PUSH2 0x2DA2 JUMP JUMPDEST SWAP2 POP POP PUSH2 0x2883 JUMP JUMPDEST PUSH1 0x2 PUSH1 0xFF AND DUP3 PUSH1 0xFF AND SUB PUSH2 0x27D4 JUMPI PUSH2 0x27AE DUP6 DUP6 DUP6 DUP1 DUP1 PUSH1 0x1F ADD PUSH1 0x20 DUP1 SWAP2 DIV MUL PUSH1 0x20 ADD PUSH1 0x40 MLOAD SWAP1 DUP2 ADD PUSH1 0x40 MSTORE DUP1 SWAP4 SWAP3 SWAP2 SWAP1 DUP2 DUP2 MSTORE PUSH1 0x20 ADD DUP4 DUP4 DUP1 DUP3 DUP5 CALLDATACOPY PUSH0 DUP2 DUP5 ADD MSTORE PUSH1 0x1F NOT PUSH1 0x1F DUP3 ADD AND SWAP1 POP DUP1 DUP4 ADD SWAP3 POP POP POP POP POP POP POP PUSH2 0x2B09 JUMP JUMPDEST PUSH1 0x40 MLOAD PUSH1 0x20 ADD PUSH2 0x27BE SWAP2 SWAP1 PUSH2 0x5343 JUMP JUMPDEST PUSH1 0x40 MLOAD PUSH1 0x20 DUP2 DUP4 SUB SUB DUP2 MSTORE SWAP1 PUSH1 0x40 MSTORE SWAP1 POP PUSH2 0x2883 JUMP JUMPDEST PUSH1 0x3 PUSH1 0xFF AND DUP3 PUSH1 0xFF AND SUB PUSH2 0x2851 JUMPI PUSH0 DUP5 DUP5 PUSH0 SWAP1 PUSH1 0x20 SWAP3 PUSH2 0x27F6 SWAP4 SWAP3 SWAP2 SWAP1 PUSH2 0x523F JUMP JUMPDEST SWAP1 PUSH2 0x2801 SWAP2 SWAP1 PUSH2 0x528F JUMP JUMPDEST SWAP1 POP CALLDATASIZE PUSH0 DUP7 DUP7 PUSH1 0x20 SWAP1 DUP1 SWAP3 PUSH2 0x2818 SWAP4 SWAP3 SWAP2 SWAP1 PUSH2 0x523F JUMP JUMPDEST SWAP2 POP SWAP2 POP PUSH2 0x2828 DUP9 DUP5 DUP5 DUP5 PUSH2 0x28FB JUMP JUMPDEST PUSH1 0x40 MLOAD PUSH1 0x20 ADD PUSH2 0x2838 SWAP2 SWAP1 PUSH2 0x5343 JUMP JUMPDEST PUSH1 0x40 MLOAD PUSH1 0x20 DUP2 DUP4 SUB SUB DUP2 MSTORE SWAP1 PUSH1 0x40 MSTORE SWAP4 POP POP POP POP PUSH2 0x2883 JUMP JUMPDEST PUSH1 0x40 MLOAD PUSH32 0x398D4D3200000000000000000000000000000000000000000000000000000000 DUP2 MSTORE PUSH1 0x4 ADD PUSH1 0x40 MLOAD DUP1 SWAP2 SUB SWAP1 REVERT JUMPDEST SWAP6 SWAP5 POP POP POP POP POP JUMP JUMPDEST PUSH2 0x2895 ADDRESS PUSH2 0x1F39 JUMP JUMPDEST PUSH20 0xFFFFFFFFFFFFFFFFFFFFFFFFFFFFFFFFFFFFFFFF AND CALLER PUSH20 0xFFFFFFFFFFFFFFFFFFFFFFFFFFFFFFFFFFFFFFFF AND EQ PUSH2 0x28F9 JUMPI PUSH1 0x40 MLOAD PUSH32 0xEA8E4EB500000000000000000000000000000000000000000000000000000000 DUP2 MSTORE PUSH1 0x4 ADD PUSH1 0x40 MLOAD DUP1 SWAP2 SUB SWAP1 REVERT JUMPDEST JUMP JUMPDEST PUSH0 DUP1 DUP4 DUP4 DUP1 DUP1 PUSH1 0x1F ADD PUSH1 0x20 DUP1 SWAP2 DIV MUL PUSH1 0x20 ADD PUSH1 0x40 MLOAD SWAP1 DUP2 ADD PUSH1 0x40 MSTORE DUP1 SWAP4 SWAP3 SWAP2 SWAP1 DUP2 DUP2 MSTORE PUSH1 0x20 ADD DUP4 DUP4 DUP1 DUP3 DUP5 CALLDATACOPY PUSH0 DUP2 DUP5 ADD MSTORE PUSH1 0x1F NOT PUSH1 0x1F DUP3 ADD AND SWAP1 POP DUP1 DUP4 ADD SWAP3 POP POP POP POP POP POP POP SWAP1 POP DUP5 DUP2 MLOAD PUSH1 0x20 DUP4 ADD DUP9 CREATE2 SWAP2 POP PUSH0 PUSH20 0xFFFFFFFFFFFFFFFFFFFFFFFFFFFFFFFFFFFFFFFF AND DUP3 PUSH20 0xFFFFFFFFFFFFFFFFFFFFFFFFFFFFFFFFFFFFFFFF AND SUB PUSH2 0x29B3 JUMPI PUSH1 0x40 MLOAD PUSH32 0xA28C247300000000000000000000000000000000000000000000000000000000 DUP2 MSTORE PUSH1 0x4 ADD PUSH1 0x40 MLOAD DUP1 SWAP2 SUB SWAP1 REVERT JUMPDEST POP SWAP5 SWAP4 POP POP POP POP JUMP JUMPDEST PUSH2 0x29C4 PUSH2 0x1BD6 JUMP JUMPDEST PUSH20 0xFFFFFFFFFFFFFFFFFFFFFFFFFFFFFFFFFFFFFFFF AND CALLER PUSH20 0xFFFFFFFFFFFFFFFFFFFFFFFFFFFFFFFFFFFFFFFF AND EQ PUSH2 0x2A31 JUMPI PUSH1 0x40 MLOAD PUSH32 0x8C379A000000000000000000000000000000000000000000000000000000000 DUP2 MSTORE PUSH1 0x4 ADD PUSH2 0x2A28 SWAP1 PUSH2 0x53A7 JUMP JUMPDEST PUSH1 0x40 MLOAD DUP1 SWAP2 SUB SWAP1 REVERT JUMPDEST JUMP JUMPDEST PUSH0 PUSH2 0x2A57 PUSH2 0x2A41 DUP5 DUP5 PUSH2 0x33F1 JUMP JUMPDEST DUP5 DUP1 PUSH2 0x140 ADD SWAP1 PUSH2 0x2A52 SWAP2 SWAP1 PUSH2 0x4E30 JUMP JUMPDEST PUSH2 0x21E5 JUMP JUMPDEST ISZERO PUSH2 0x2A64 JUMPI PUSH0 SWAP1 POP PUSH2 0x2A69 JUMP JUMPDEST PUSH1 0x1 SWAP1 POP JUMPDEST SWAP3 SWAP2 POP POP JUMP JUMPDEST POP JUMP JUMPDEST PUSH0 DUP2 EQ PUSH2 0x2B06 JUMPI PUSH0 CALLER PUSH20 0xFFFFFFFFFFFFFFFFFFFFFFFFFFFFFFFFFFFFFFFF AND DUP3 PUSH32 0xFFFFFFFFFFFFFFFFFFFFFFFFFFFFFFFFFFFFFFFFFFFFFFFFFFFFFFFFFFFFFFFF SWAP1 PUSH1 0x40 MLOAD PUSH2 0x2AC0 SWAP1 PUSH2 0x53E8 JUMP JUMPDEST PUSH0 PUSH1 0x40 MLOAD DUP1 DUP4 SUB DUP2 DUP6 DUP9 DUP9 CALL SWAP4 POP POP POP POP RETURNDATASIZE DUP1 PUSH0 DUP2 EQ PUSH2 0x2AFB JUMPI PUSH1 0x40 MLOAD SWAP2 POP PUSH1 0x1F NOT PUSH1 0x3F RETURNDATASIZE ADD AND DUP3 ADD PUSH1 0x40 MSTORE RETURNDATASIZE DUP3 MSTORE RETURNDATASIZE PUSH0 PUSH1 0x20 DUP5 ADD RETURNDATACOPY PUSH2 0x2B00 JUMP JUMPDEST PUSH1 0x60 SWAP2 POP JUMPDEST POP POP SWAP1 POP POP JUMPDEST POP JUMP JUMPDEST PUSH0 DUP1 DUP3 SWAP1 POP DUP1 MLOAD PUSH1 0x20 DUP3 ADD DUP6 CREATE SWAP2 POP PUSH0 PUSH20 0xFFFFFFFFFFFFFFFFFFFFFFFFFFFFFFFFFFFFFFFF AND DUP3 PUSH20 0xFFFFFFFFFFFFFFFFFFFFFFFFFFFFFFFFFFFFFFFF AND SUB PUSH2 0x2B7D JUMPI PUSH1 0x40 MLOAD PUSH32 0xA28C247300000000000000000000000000000000000000000000000000000000 DUP2 MSTORE PUSH1 0x4 ADD PUSH1 0x40 MLOAD DUP1 SWAP2 SUB SWAP1 REVERT JUMPDEST POP SWAP3 SWAP2 POP POP JUMP JUMPDEST PUSH0 DUP1 PUSH0 DUP1 PUSH2 0x2B90 PUSH2 0x1EFD JUMP JUMPDEST SWAP3 POP SWAP3 POP SWAP3 POP PUSH0 PUSH2 0x2BA2 DUP5 DUP5 DUP5 PUSH2 0x2CE1 JUMP JUMPDEST SWAP1 POP DUP1 PUSH20 0xFFFFFFFFFFFFFFFFFFFFFFFFFFFFFFFFFFFFFFFF AND DUP8 PUSH20 0xFFFFFFFFFFFFFFFFFFFFFFFFFFFFFFFFFFFFFFFF AND SUB PUSH2 0x2BE4 JUMPI PUSH1 0x1 SWAP5 POP POP POP POP POP PUSH2 0x2C46 JUMP JUMPDEST PUSH0 PUSH2 0x2BF1 DUP3 DUP7 DUP7 DUP7 PUSH2 0x2EF1 JUMP JUMPDEST SWAP1 POP DUP1 PUSH20 0xFFFFFFFFFFFFFFFFFFFFFFFFFFFFFFFFFFFFFFFF AND DUP9 PUSH20 0xFFFFFFFFFFFFFFFFFFFFFFFFFFFFFFFFFFFFFFFF AND SUB PUSH2 0x2C34 JUMPI PUSH1 0x1 SWAP6 POP POP POP POP POP POP PUSH2 0x2C46 JUMP JUMPDEST PUSH2 0x2C3E DUP9 DUP3 PUSH2 0x3363 JUMP JUMPDEST SWAP6 POP POP POP POP POP POP JUMPDEST SWAP3 SWAP2 POP POP JUMP JUMPDEST PUSH0 DUP2 DUP4 PUSH2 0x2C59 SWAP2 SWAP1 PUSH2 0x53FC JUMP JUMPDEST SWAP1 POP SWAP3 SWAP2 POP POP JUMP JUMPDEST PUSH2 0x2C69 PUSH2 0x1BCC JUMP JUMPDEST ISZERO PUSH2 0x2CA0 JUMPI PUSH1 0x40 MLOAD PUSH32 0x6315BFBB00000000000000000000000000000000000000000000000000000000 DUP2 MSTORE PUSH1 0x4 ADD PUSH1 0x40 MLOAD DUP1 SWAP2 SUB SWAP1 REVERT JUMPDEST PUSH2 0x2CA8 PUSH2 0x30E5 JUMP JUMPDEST JUMP JUMPDEST PUSH2 0x2CDD PUSH0 PUSH32 0x97F795A08410E77DC9DBBABA3915F17C601E45642518DD578BD440D8775BFEE4 PUSH2 0x2CD8 DUP5 PUSH2 0x2FDE JUMP JUMPDEST PUSH2 0x3403 JUMP JUMPDEST POP POP JUMP JUMPDEST PUSH0 CHAINID DUP5 EQ PUSH2 0x2CF1 JUMPI PUSH0 SWAP1 POP PUSH2 0x2D9B JUMP JUMPDEST PUSH0 DUP4 PUSH20 0xFFFFFFFFFFFFFFFFFFFFFFFFFFFFFFFFFFFFFFFF AND EXTCODESIZE SUB PUSH2 0x2D17 JUMPI PUSH0 SWAP1 POP PUSH2 0x2D9B JUMP JUMPDEST DUP3 PUSH20 0xFFFFFFFFFFFFFFFFFFFFFFFFFFFFFFFFFFFFFFFF AND PUSH4 0x6352211E DUP4 PUSH1 0x40 MLOAD DUP3 PUSH4 0xFFFFFFFF AND PUSH1 0xE0 SHL DUP2 MSTORE PUSH1 0x4 ADD PUSH2 0x2D50 SWAP2 SWAP1 PUSH2 0x43A5 JUMP JUMPDEST PUSH1 0x20 PUSH1 0x40 MLOAD DUP1 DUP4 SUB DUP2 DUP7 GAS STATICCALL SWAP3 POP POP POP DUP1 ISZERO PUSH2 0x2D8A JUMPI POP PUSH1 0x40 MLOAD RETURNDATASIZE PUSH1 0x1F NOT PUSH1 0x1F DUP3 ADD AND DUP3 ADD DUP1 PUSH1 0x40 MSTORE POP DUP2 ADD SWAP1 PUSH2 0x2D87 SWAP2 SWAP1 PUSH2 0x4DD2 JUMP JUMPDEST PUSH1 0x1 JUMPDEST PUSH2 0x2D96 JUMPI PUSH0 SWAP1 POP PUSH2 0x2D9B JUMP JUMPDEST DUP1 SWAP2 POP POP JUMPDEST SWAP4 SWAP3 POP POP POP JUMP JUMPDEST PUSH1 0x60 PUSH0 DUP5 PUSH20 0xFFFFFFFFFFFFFFFFFFFFFFFFFFFFFFFFFFFFFFFF AND DUP5 DUP5 PUSH1 0x40 MLOAD PUSH2 0x2DCB SWAP2 SWAP1 PUSH2 0x4CB2 JUMP JUMPDEST PUSH0 PUSH1 0x40 MLOAD DUP1 DUP4 SUB DUP2 DUP6 DUP8 GAS CALL SWAP3 POP POP POP RETURNDATASIZE DUP1 PUSH0 DUP2 EQ PUSH2 0x2E05 JUMPI PUSH1 0x40 MLOAD SWAP2 POP PUSH1 0x1F NOT PUSH1 0x3F RETURNDATASIZE ADD AND DUP3 ADD PUSH1 0x40 MSTORE RETURNDATASIZE DUP3 MSTORE RETURNDATASIZE PUSH0 PUSH1 0x20 DUP5 ADD RETURNDATACOPY PUSH2 0x2E0A JUMP JUMPDEST PUSH1 0x60 SWAP2 POP JUMPDEST POP DUP1 SWAP4 POP DUP2 SWAP3 POP POP POP DUP1 PUSH2 0x2E20 JUMPI DUP2 MLOAD PUSH1 0x20 DUP4 ADD REVERT JUMPDEST POP SWAP4 SWAP3 POP POP POP JUMP JUMPDEST PUSH2 0x2E30 PUSH2 0x1BCC JUMP JUMPDEST ISZERO PUSH2 0x2E67 JUMPI PUSH1 0x40 MLOAD PUSH32 0x6315BFBB00000000000000000000000000000000000000000000000000000000 DUP2 MSTORE PUSH1 0x4 ADD PUSH1 0x40 MLOAD DUP1 SWAP2 SUB SWAP1 REVERT JUMPDEST PUSH2 0x2E6F PUSH2 0x30E5 JUMP JUMPDEST JUMP JUMPDEST PUSH0 DUP1 PUSH0 DUP1 PUSH1 0x60 PUSH8 0xFFFFFFFFFFFFFFFF DUP2 GT ISZERO PUSH2 0x2E90 JUMPI PUSH2 0x2E8F PUSH2 0x3D78 JUMP JUMPDEST JUMPDEST PUSH1 0x40 MLOAD SWAP1 DUP1 DUP3 MSTORE DUP1 PUSH1 0x1F ADD PUSH1 0x1F NOT AND PUSH1 0x20 ADD DUP3 ADD PUSH1 0x40 MSTORE DUP1 ISZERO PUSH2 0x2EC2 JUMPI DUP2 PUSH1 0x20 ADD PUSH1 0x1 DUP3 MUL DUP1 CALLDATASIZE DUP4 CALLDATACOPY DUP1 DUP3 ADD SWAP2 POP POP SWAP1 POP JUMPDEST POP SWAP1 POP PUSH1 0x60 PUSH1 0x4D PUSH1 0x20 DUP4 ADD DUP8 EXTCODECOPY DUP1 DUP1 PUSH1 0x20 ADD SWAP1 MLOAD DUP2 ADD SWAP1 PUSH2 0x2EE3 SWAP2 SWAP1 PUSH2 0x546A JUMP JUMPDEST SWAP4 POP SWAP4 POP SWAP4 POP POP SWAP2 SWAP4 SWAP1 SWAP3 POP JUMP JUMPDEST PUSH0 DUP1 DUP6 SWAP1 POP JUMPDEST PUSH2 0x2F42 DUP2 PUSH32 0x0 PUSH32 0x0 PUSH2 0x34FC JUMP JUMPDEST ISZERO PUSH2 0x2FD2 JUMPI DUP1 PUSH20 0xFFFFFFFFFFFFFFFFFFFFFFFFFFFFFFFFFFFFFFFF AND PUSH4 0xFC0C546A PUSH1 0x40 MLOAD DUP2 PUSH4 0xFFFFFFFF AND PUSH1 0xE0 SHL DUP2 MSTORE PUSH1 0x4 ADD PUSH1 0x60 PUSH1 0x40 MLOAD DUP1 DUP4 SUB DUP2 DUP7 GAS STATICCALL ISZERO DUP1 ISZERO PUSH2 0x2F90 JUMPI RETURNDATASIZE PUSH0 DUP1 RETURNDATACOPY RETURNDATASIZE PUSH0 REVERT JUMPDEST POP POP POP POP PUSH1 0x40 MLOAD RETURNDATASIZE PUSH1 0x1F NOT PUSH1 0x1F DUP3 ADD AND DUP3 ADD DUP1 PUSH1 0x40 MSTORE POP DUP2 ADD SWAP1 PUSH2 0x2FB4 SWAP2 SWAP1 PUSH2 0x54BA JUMP JUMPDEST DUP1 SWAP6 POP DUP2 SWAP7 POP DUP3 SWAP8 POP POP POP POP PUSH2 0x2FCB DUP6 DUP6 DUP6 PUSH2 0x2CE1 JUMP JUMPDEST SWAP1 POP PUSH2 0x2EF7 JUMP JUMPDEST DUP1 SWAP2 POP POP SWAP5 SWAP4 POP POP POP POP JUMP JUMPDEST PUSH1 0x60 PUSH1 0x40 MLOAD DUP1 PUSH1 0x40 ADD PUSH1 0x40 MSTORE DUP1 PUSH1 0xE DUP2 MSTORE PUSH1 0x20 ADD PUSH32 0x604380600D600039806000F3FE73000000000000000000000000000000000000 DUP2 MSTORE POP DUP3 PUSH1 0x40 MLOAD DUP1 PUSH1 0x60 ADD PUSH1 0x40 MSTORE DUP1 PUSH1 0x2E DUP2 MSTORE PUSH1 0x20 ADD PUSH2 0x577E PUSH1 0x2E SWAP2 CODECOPY PUSH1 0x40 MLOAD PUSH1 0x20 ADD PUSH2 0x3042 SWAP4 SWAP3 SWAP2 SWAP1 PUSH2 0x550A JUMP JUMPDEST PUSH1 0x40 MLOAD PUSH1 0x20 DUP2 DUP4 SUB SUB DUP2 MSTORE SWAP1 PUSH1 0x40 MSTORE SWAP1 POP SWAP2 SWAP1 POP JUMP JUMPDEST PUSH0 PUSH2 0x3064 DUP4 DUP4 ADDRESS PUSH2 0x331A JUMP JUMPDEST SWAP1 POP SWAP3 SWAP2 POP POP JUMP JUMPDEST PUSH0 PUSH32 0x6FAFF5F100000000000000000000000000000000000000000000000000000000 PUSH28 0xFFFFFFFFFFFFFFFFFFFFFFFFFFFFFFFFFFFFFFFFFFFFFFFFFFFFFFFF NOT AND DUP3 PUSH28 0xFFFFFFFFFFFFFFFFFFFFFFFFFFFFFFFFFFFFFFFFFFFFFFFFFFFFFFFF NOT AND EQ DUP1 PUSH2 0x30DE JUMPI POP PUSH2 0x30DD DUP3 PUSH2 0x35F3 JUMP JUMPDEST JUMPDEST SWAP1 POP SWAP2 SWAP1 POP JUMP JUMPDEST PUSH1 0x3 SLOAD PUSH2 0x30F0 PUSH2 0x366C JUMP JUMPDEST PUSH1 0x40 MLOAD PUSH1 0x20 ADD PUSH2 0x3102 SWAP4 SWAP3 SWAP2 SWAP1 PUSH2 0x556A JUMP JUMPDEST PUSH1 0x40 MLOAD PUSH1 0x20 DUP2 DUP4 SUB SUB DUP2 MSTORE SWAP1 PUSH1 0x40 MSTORE DUP1 MLOAD SWAP1 PUSH1 0x20 ADD KECCAK256 PUSH0 SHR PUSH1 0x3 DUP2 SWAP1 SSTORE POP JUMP JUMPDEST PUSH0 DUP1 PUSH0 DUP6 PUSH20 0xFFFFFFFFFFFFFFFFFFFFFFFFFFFFFFFFFFFFFFFF AND DUP6 DUP6 PUSH1 0x40 MLOAD PUSH1 0x24 ADD PUSH2 0x314F SWAP3 SWAP2 SWAP1 PUSH2 0x559A JUMP JUMPDEST PUSH1 0x40 MLOAD PUSH1 0x20 DUP2 DUP4 SUB SUB DUP2 MSTORE SWAP1 PUSH1 0x40 MSTORE PUSH4 0x1626BA7E PUSH1 0xE0 SHL PUSH1 0x20 DUP3 ADD DUP1 MLOAD PUSH28 0xFFFFFFFFFFFFFFFFFFFFFFFFFFFFFFFFFFFFFFFFFFFFFFFFFFFFFFFF DUP4 DUP2 DUP4 AND OR DUP4 MSTORE POP POP POP POP PUSH1 0x40 MLOAD PUSH2 0x31A1 SWAP2 SWAP1 PUSH2 0x4CB2 JUMP JUMPDEST PUSH0 PUSH1 0x40 MLOAD DUP1 DUP4 SUB DUP2 DUP6 GAS STATICCALL SWAP2 POP POP RETURNDATASIZE DUP1 PUSH0 DUP2 EQ PUSH2 0x31D9 JUMPI PUSH1 0x40 MLOAD SWAP2 POP PUSH1 0x1F NOT PUSH1 0x3F RETURNDATASIZE ADD AND DUP3 ADD PUSH1 0x40 MSTORE RETURNDATASIZE DUP3 MSTORE RETURNDATASIZE PUSH0 PUSH1 0x20 DUP5 ADD RETURNDATACOPY PUSH2 0x31DE JUMP JUMPDEST PUSH1 0x60 SWAP2 POP JUMPDEST POP SWAP2 POP SWAP2 POP DUP2 DUP1 ISZERO PUSH2 0x31F2 JUMPI POP PUSH1 0x20 DUP2 MLOAD LT ISZERO JUMPDEST DUP1 ISZERO PUSH2 0x3236 JUMPI POP PUSH4 0x1626BA7E PUSH1 0xE0 SHL PUSH28 0xFFFFFFFFFFFFFFFFFFFFFFFFFFFFFFFFFFFFFFFFFFFFFFFFFFFFFFFF NOT AND DUP2 DUP1 PUSH1 0x20 ADD SWAP1 MLOAD DUP2 ADD SWAP1 PUSH2 0x3234 SWAP2 SWAP1 PUSH2 0x55DC JUMP JUMPDEST EQ JUMPDEST SWAP3 POP POP POP SWAP4 SWAP3 POP POP POP JUMP JUMPDEST PUSH0 DUP1 PUSH0 DUP1 PUSH2 0x324F DUP7 DUP7 PUSH2 0x367E JUMP JUMPDEST SWAP3 POP SWAP3 POP SWAP3 POP PUSH2 0x325F DUP3 DUP3 PUSH2 0x36D3 JUMP JUMPDEST DUP3 SWAP4 POP POP POP POP SWAP3 SWAP2 POP POP JUMP JUMPDEST PUSH0 PUSH2 0x3275 CALLER PUSH2 0x1471 JUMP JUMPDEST DUP1 ISZERO PUSH2 0x3285 JUMPI POP PUSH1 0x14 PUSH0 CALLDATASIZE SWAP1 POP LT ISZERO JUMPDEST ISZERO PUSH2 0x3299 JUMPI PUSH1 0x14 CALLDATASIZE SUB CALLDATALOAD PUSH1 0x60 SHR SWAP1 POP PUSH2 0x32A8 JUMP JUMPDEST PUSH2 0x32A1 PUSH2 0x3835 JUMP JUMPDEST SWAP1 POP PUSH2 0x32A9 JUMP JUMPDEST JUMPDEST SWAP1 JUMP JUMPDEST PUSH1 0x60 PUSH1 0x40 MLOAD SWAP1 POP DUP2 PUSH1 0xB7 DUP3 ADD MSTORE DUP3 PUSH1 0x60 SHL PUSH1 0x60 SHR PUSH1 0x97 DUP3 ADD MSTORE DUP4 PUSH1 0x77 DUP3 ADD MSTORE DUP5 PUSH1 0x57 DUP3 ADD MSTORE PUSH15 0x5AF43D82803E903D91602B57FD5BF3 PUSH1 0x37 DUP3 ADD MSTORE DUP6 PUSH1 0x28 DUP3 ADD MSTORE PUSH20 0x3D60AD80600A3D3981F3363D3D373D3D3D363D73 PUSH1 0x14 DUP3 ADD MSTORE PUSH1 0xB7 DUP2 MSTORE PUSH1 0xD7 DUP2 ADD PUSH1 0x40 MSTORE SWAP6 SWAP5 POP POP POP POP POP JUMP JUMPDEST PUSH0 PUSH1 0x40 MLOAD DUP4 PUSH1 0x40 DUP3 ADD MSTORE DUP5 PUSH1 0x20 DUP3 ADD MSTORE DUP3 DUP2 MSTORE PUSH1 0xB DUP2 ADD PUSH1 0xFF DUP2 MSTORE8 PUSH1 0x55 DUP2 KECCAK256 SWAP3 POP POP POP SWAP4 SWAP3 POP POP POP JUMP JUMPDEST PUSH0 PUSH20 0x1111000000000000000000000000000000001111 DUP3 SUB SWAP1 POP SWAP2 SWAP1 POP JUMP JUMPDEST PUSH0 PUSH1 0x2 PUSH0 DUP4 PUSH20 0xFFFFFFFFFFFFFFFFFFFFFFFFFFFFFFFFFFFFFFFF AND PUSH20 0xFFFFFFFFFFFFFFFFFFFFFFFFFFFFFFFFFFFFFFFF AND DUP2 MSTORE PUSH1 0x20 ADD SWAP1 DUP2 MSTORE PUSH1 0x20 ADD PUSH0 KECCAK256 PUSH0 DUP5 PUSH20 0xFFFFFFFFFFFFFFFFFFFFFFFFFFFFFFFFFFFFFFFF AND PUSH20 0xFFFFFFFFFFFFFFFFFFFFFFFFFFFFFFFFFFFFFFFF AND DUP2 MSTORE PUSH1 0x20 ADD SWAP1 DUP2 MSTORE PUSH1 0x20 ADD PUSH0 KECCAK256 PUSH0 SWAP1 SLOAD SWAP1 PUSH2 0x100 EXP SWAP1 DIV PUSH1 0xFF AND SWAP1 POP SWAP3 SWAP2 POP POP JUMP JUMPDEST PUSH0 PUSH2 0x33FB DUP3 PUSH2 0x383C JUMP JUMPDEST SWAP1 POP SWAP3 SWAP2 POP POP JUMP JUMPDEST PUSH0 DUP4 SELFBALANCE LT ISZERO PUSH2 0x344B JUMPI SELFBALANCE DUP5 PUSH1 0x40 MLOAD PUSH32 0xE4BBECAC00000000000000000000000000000000000000000000000000000000 DUP2 MSTORE PUSH1 0x4 ADD PUSH2 0x3442 SWAP3 SWAP2 SWAP1 PUSH2 0x5607 JUMP JUMPDEST PUSH1 0x40 MLOAD DUP1 SWAP2 SUB SWAP1 REVERT JUMPDEST PUSH0 DUP3 MLOAD SUB PUSH2 0x3485 JUMPI PUSH1 0x40 MLOAD PUSH32 0x4CA249DC00000000000000000000000000000000000000000000000000000000 DUP2 MSTORE PUSH1 0x4 ADD PUSH1 0x40 MLOAD DUP1 SWAP2 SUB SWAP1 REVERT JUMPDEST DUP3 DUP3 MLOAD PUSH1 0x20 DUP5 ADD DUP7 CREATE2 SWAP1 POP PUSH0 PUSH20 0xFFFFFFFFFFFFFFFFFFFFFFFFFFFFFFFFFFFFFFFF AND DUP2 PUSH20 0xFFFFFFFFFFFFFFFFFFFFFFFFFFFFFFFFFFFFFFFF AND SUB PUSH2 0x34F5 JUMPI PUSH1 0x40 MLOAD PUSH32 0x741752C200000000000000000000000000000000000000000000000000000000 DUP2 MSTORE PUSH1 0x4 ADD PUSH1 0x40 MLOAD DUP1 SWAP2 SUB SWAP1 REVERT JUMPDEST SWAP4 SWAP3 POP POP POP JUMP JUMPDEST PUSH0 PUSH1 0xAD DUP5 PUSH20 0xFFFFFFFFFFFFFFFFFFFFFFFFFFFFFFFFFFFFFFFF AND EXTCODESIZE EQ PUSH2 0x3524 JUMPI PUSH0 SWAP1 POP PUSH2 0x35EC JUMP JUMPDEST PUSH0 PUSH2 0x352E DUP6 PUSH2 0x386B JUMP JUMPDEST SWAP1 POP PUSH0 DUP2 PUSH20 0xFFFFFFFFFFFFFFFFFFFFFFFFFFFFFFFFFFFFFFFF AND EXTCODESIZE SUB PUSH2 0x3557 JUMPI PUSH0 SWAP2 POP POP PUSH2 0x35EC JUMP JUMPDEST DUP4 PUSH20 0xFFFFFFFFFFFFFFFFFFFFFFFFFFFFFFFFFFFFFFFF AND DUP2 PUSH20 0xFFFFFFFFFFFFFFFFFFFFFFFFFFFFFFFFFFFFFFFF AND EQ PUSH2 0x3593 JUMPI PUSH0 SWAP2 POP POP PUSH2 0x35EC JUMP JUMPDEST PUSH0 DUP1 PUSH0 DUP1 PUSH2 0x35A0 DUP10 PUSH2 0x387D JUMP JUMPDEST SWAP4 POP SWAP4 POP SWAP4 POP SWAP4 POP PUSH2 0x35B6 DUP8 DUP7 DUP7 DUP7 DUP7 DUP7 PUSH2 0x23E1 JUMP JUMPDEST PUSH20 0xFFFFFFFFFFFFFFFFFFFFFFFFFFFFFFFFFFFFFFFF AND DUP10 PUSH20 0xFFFFFFFFFFFFFFFFFFFFFFFFFFFFFFFFFFFFFFFF AND EQ SWAP6 POP POP POP POP POP POP JUMPDEST SWAP4 SWAP3 POP POP POP JUMP JUMPDEST PUSH0 PUSH32 0x4E2312E000000000000000000000000000000000000000000000000000000000 PUSH28 0xFFFFFFFFFFFFFFFFFFFFFFFFFFFFFFFFFFFFFFFFFFFFFFFFFFFFFFFF NOT AND DUP3 PUSH28 0xFFFFFFFFFFFFFFFFFFFFFFFFFFFFFFFFFFFFFFFFFFFFFFFFFFFFFFFF NOT AND EQ DUP1 PUSH2 0x3665 JUMPI POP PUSH2 0x3664 DUP3 PUSH2 0x3900 JUMP JUMPDEST JUMPDEST SWAP1 POP SWAP2 SWAP1 POP JUMP JUMPDEST CALLDATASIZE PUSH0 PUSH2 0x3676 PUSH2 0x3969 JUMP JUMPDEST SWAP2 POP SWAP2 POP SWAP1 SWAP2 JUMP JUMPDEST PUSH0 DUP1 PUSH0 PUSH1 0x41 DUP5 MLOAD SUB PUSH2 0x36BE JUMPI PUSH0 DUP1 PUSH0 PUSH1 0x20 DUP8 ADD MLOAD SWAP3 POP PUSH1 0x40 DUP8 ADD MLOAD SWAP2 POP PUSH1 0x60 DUP8 ADD MLOAD PUSH0 BYTE SWAP1 POP PUSH2 0x36B0 DUP9 DUP3 DUP6 DUP6 PUSH2 0x39C4 JUMP JUMPDEST SWAP6 POP SWAP6 POP SWAP6 POP POP POP POP PUSH2 0x36CC JUMP JUMPDEST PUSH0 PUSH1 0x2 DUP6 MLOAD PUSH0 SHL SWAP3 POP SWAP3 POP SWAP3 POP JUMPDEST SWAP3 POP SWAP3 POP SWAP3 JUMP JUMPDEST PUSH0 PUSH1 0x3 DUP2 GT ISZERO PUSH2 0x36E6 JUMPI PUSH2 0x36E5 PUSH2 0x52ED JUMP JUMPDEST JUMPDEST DUP3 PUSH1 0x3 DUP2 GT ISZERO PUSH2 0x36F9 JUMPI PUSH2 0x36F8 PUSH2 0x52ED JUMP JUMPDEST JUMPDEST SUB ISZERO PUSH2 0x3831 JUMPI PUSH1 0x1 PUSH1 0x3 DUP2 GT ISZERO PUSH2 0x3713 JUMPI PUSH2 0x3712 PUSH2 0x52ED JUMP JUMPDEST JUMPDEST DUP3 PUSH1 0x3 DUP2 GT ISZERO PUSH2 0x3726 JUMPI PUSH2 0x3725 PUSH2 0x52ED JUMP JUMPDEST JUMPDEST SUB PUSH2 0x375D JUMPI PUSH1 0x40 MLOAD PUSH32 0xF645EEDF00000000000000000000000000000000000000000000000000000000 DUP2 MSTORE PUSH1 0x4 ADD PUSH1 0x40 MLOAD DUP1 SWAP2 SUB SWAP1 REVERT JUMPDEST PUSH1 0x2 PUSH1 0x3 DUP2 GT ISZERO PUSH2 0x3771 JUMPI PUSH2 0x3770 PUSH2 0x52ED JUMP JUMPDEST JUMPDEST DUP3 PUSH1 0x3 DUP2 GT ISZERO PUSH2 0x3784 JUMPI PUSH2 0x3783 PUSH2 0x52ED JUMP JUMPDEST JUMPDEST SUB PUSH2 0x37C8 JUMPI DUP1 PUSH0 SHR PUSH1 0x40 MLOAD PUSH32 0xFCE698F700000000000000000000000000000000000000000000000000000000 DUP2 MSTORE PUSH1 0x4 ADD PUSH2 0x37BF SWAP2 SWAP1 PUSH2 0x43A5 JUMP JUMPDEST PUSH1 0x40 MLOAD DUP1 SWAP2 SUB SWAP1 REVERT JUMPDEST PUSH1 0x3 DUP1 DUP2 GT ISZERO PUSH2 0x37DB JUMPI PUSH2 0x37DA PUSH2 0x52ED JUMP JUMPDEST JUMPDEST DUP3 PUSH1 0x3 DUP2 GT ISZERO PUSH2 0x37EE JUMPI PUSH2 0x37ED PUSH2 0x52ED JUMP JUMPDEST JUMPDEST SUB PUSH2 0x3830 JUMPI DUP1 PUSH1 0x40 MLOAD PUSH32 0xD78BCE0C00000000000000000000000000000000000000000000000000000000 DUP2 MSTORE PUSH1 0x4 ADD PUSH2 0x3827 SWAP2 SWAP1 PUSH2 0x4063 JUMP JUMPDEST PUSH1 0x40 MLOAD DUP1 SWAP2 SUB SWAP1 REVERT JUMPDEST JUMPDEST POP POP JUMP JUMPDEST PUSH0 CALLER SWAP1 POP SWAP1 JUMP JUMPDEST PUSH0 DUP2 PUSH1 0x40 MLOAD PUSH1 0x20 ADD PUSH2 0x384E SWAP2 SWAP1 PUSH2 0x56A2 JUMP JUMPDEST PUSH1 0x40 MLOAD PUSH1 0x20 DUP2 DUP4 SUB SUB DUP2 MSTORE SWAP1 PUSH1 0x40 MSTORE DUP1 MLOAD SWAP1 PUSH1 0x20 ADD KECCAK256 SWAP1 POP SWAP2 SWAP1 POP JUMP JUMPDEST PUSH0 PUSH1 0x14 PUSH1 0xA PUSH1 0xC DUP5 EXTCODECOPY PUSH0 MLOAD SWAP1 POP SWAP2 SWAP1 POP JUMP JUMPDEST PUSH0 DUP1 PUSH0 DUP1 PUSH0 PUSH1 0x80 PUSH8 0xFFFFFFFFFFFFFFFF DUP2 GT ISZERO PUSH2 0x389D JUMPI PUSH2 0x389C PUSH2 0x3D78 JUMP JUMPDEST JUMPDEST PUSH1 0x40 MLOAD SWAP1 DUP1 DUP3 MSTORE DUP1 PUSH1 0x1F ADD PUSH1 0x1F NOT AND PUSH1 0x20 ADD DUP3 ADD PUSH1 0x40 MSTORE DUP1 ISZERO PUSH2 0x38CF JUMPI DUP2 PUSH1 0x20 ADD PUSH1 0x1 DUP3 MUL DUP1 CALLDATASIZE DUP4 CALLDATACOPY DUP1 DUP3 ADD SWAP2 POP POP SWAP1 POP JUMPDEST POP SWAP1 POP PUSH1 0x80 PUSH1 0x2D PUSH1 0x20 DUP4 ADD DUP9 EXTCODECOPY DUP1 DUP1 PUSH1 0x20 ADD SWAP1 MLOAD DUP2 ADD SWAP1 PUSH2 0x38F0 SWAP2 SWAP1 PUSH2 0x56C7 JUMP JUMPDEST SWAP5 POP SWAP5 POP SWAP5 POP SWAP5 POP POP SWAP2 SWAP4 POP SWAP2 SWAP4 JUMP JUMPDEST PUSH0 PUSH32 0x1FFC9A700000000000000000000000000000000000000000000000000000000 PUSH28 0xFFFFFFFFFFFFFFFFFFFFFFFFFFFFFFFFFFFFFFFFFFFFFFFFFFFFFFFF NOT AND DUP3 PUSH28 0xFFFFFFFFFFFFFFFFFFFFFFFFFFFFFFFFFFFFFFFFFFFFFFFFFFFFFFFF NOT AND EQ SWAP1 POP SWAP2 SWAP1 POP JUMP JUMPDEST CALLDATASIZE PUSH0 PUSH2 0x3974 CALLER PUSH2 0x1471 JUMP JUMPDEST DUP1 ISZERO PUSH2 0x3984 JUMPI POP PUSH1 0x14 PUSH0 CALLDATASIZE SWAP1 POP LT ISZERO JUMPDEST ISZERO PUSH2 0x39B3 JUMPI PUSH0 CALLDATASIZE PUSH0 SWAP1 PUSH1 0x14 PUSH0 CALLDATASIZE SWAP1 POP PUSH2 0x399D SWAP2 SWAP1 PUSH2 0x53FC JUMP JUMPDEST SWAP3 PUSH2 0x39AA SWAP4 SWAP3 SWAP2 SWAP1 PUSH2 0x523F JUMP JUMPDEST SWAP2 POP SWAP2 POP PUSH2 0x39C0 JUMP JUMPDEST PUSH2 0x39BB PUSH2 0x3AAB JUMP JUMPDEST SWAP2 POP SWAP2 POP JUMPDEST SWAP1 SWAP2 JUMP JUMPDEST PUSH0 DUP1 PUSH0 PUSH32 0x7FFFFFFFFFFFFFFFFFFFFFFFFFFFFFFF5D576E7357A4501DDFE92F46681B20A0 DUP5 PUSH0 SHR GT ISZERO PUSH2 0x3A00 JUMPI PUSH0 PUSH1 0x3 DUP6 SWAP3 POP SWAP3 POP SWAP3 POP PUSH2 0x3AA1 JUMP JUMPDEST PUSH0 PUSH1 0x1 DUP9 DUP9 DUP9 DUP9 PUSH1 0x40 MLOAD PUSH0 DUP2 MSTORE PUSH1 0x20 ADD PUSH1 0x40 MSTORE PUSH1 0x40 MLOAD PUSH2 0x3A23 SWAP5 SWAP4 SWAP3 SWAP2 SWAP1 PUSH2 0x573A JUMP JUMPDEST PUSH1 0x20 PUSH1 0x40 MLOAD PUSH1 0x20 DUP2 SUB SWAP1 DUP1 DUP5 SUB SWAP1 DUP6 GAS STATICCALL ISZERO DUP1 ISZERO PUSH2 0x3A43 JUMPI RETURNDATASIZE PUSH0 DUP1 RETURNDATACOPY RETURNDATASIZE PUSH0 REVERT JUMPDEST POP POP POP PUSH1 0x20 PUSH1 0x40 MLOAD SUB MLOAD SWAP1 POP PUSH0 PUSH20 0xFFFFFFFFFFFFFFFFFFFFFFFFFFFFFFFFFFFFFFFF AND DUP2 PUSH20 0xFFFFFFFFFFFFFFFFFFFFFFFFFFFFFFFFFFFFFFFF AND SUB PUSH2 0x3A94 JUMPI PUSH0 PUSH1 0x1 PUSH0 DUP1 SHL SWAP4 POP SWAP4 POP SWAP4 POP POP PUSH2 0x3AA1 JUMP JUMPDEST DUP1 PUSH0 DUP1 PUSH0 SHL SWAP4 POP SWAP4 POP SWAP4 POP POP JUMPDEST SWAP5 POP SWAP5 POP SWAP5 SWAP2 POP POP JUMP JUMPDEST CALLDATASIZE PUSH0 DUP1 CALLDATASIZE SWAP2 POP SWAP2 POP SWAP1 SWAP2 JUMP JUMPDEST PUSH0 PUSH1 0x40 MLOAD SWAP1 POP SWAP1 JUMP JUMPDEST PUSH0 DUP1 REVERT JUMPDEST PUSH0 DUP1 REVERT JUMPDEST PUSH0 PUSH32 0xFFFFFFFF00000000000000000000000000000000000000000000000000000000 DUP3 AND SWAP1 POP SWAP2 SWAP1 POP JUMP JUMPDEST PUSH2 0x3AFC DUP2 PUSH2 0x3AC8 JUMP JUMPDEST DUP2 EQ PUSH2 0x3B06 JUMPI PUSH0 DUP1 REVERT JUMPDEST POP JUMP JUMPDEST PUSH0 DUP2 CALLDATALOAD SWAP1 POP PUSH2 0x3B17 DUP2 PUSH2 0x3AF3 JUMP JUMPDEST SWAP3 SWAP2 POP POP JUMP JUMPDEST PUSH0 PUSH1 0x20 DUP3 DUP5 SUB SLT ISZERO PUSH2 0x3B32 JUMPI PUSH2 0x3B31 PUSH2 0x3AC0 JUMP JUMPDEST JUMPDEST PUSH0 PUSH2 0x3B3F DUP5 DUP3 DUP6 ADD PUSH2 0x3B09 JUMP JUMPDEST SWAP2 POP POP SWAP3 SWAP2 POP POP JUMP JUMPDEST PUSH0 DUP2 ISZERO ISZERO SWAP1 POP SWAP2 SWAP1 POP JUMP JUMPDEST PUSH2 0x3B5C DUP2 PUSH2 0x3B48 JUMP JUMPDEST DUP3 MSTORE POP POP JUMP JUMPDEST PUSH0 PUSH1 0x20 DUP3 ADD SWAP1 POP PUSH2 0x3B75 PUSH0 DUP4 ADD DUP5 PUSH2 0x3B53 JUMP JUMPDEST SWAP3 SWAP2 POP POP JUMP JUMPDEST PUSH0 DUP1 REVERT JUMPDEST PUSH0 DUP1 REVERT JUMPDEST PUSH0 DUP1 REVERT JUMPDEST PUSH0 DUP1 DUP4 PUSH1 0x1F DUP5 ADD SLT PUSH2 0x3B9C JUMPI PUSH2 0x3B9B PUSH2 0x3B7B JUMP JUMPDEST JUMPDEST DUP3 CALLDATALOAD SWAP1 POP PUSH8 0xFFFFFFFFFFFFFFFF DUP2 GT ISZERO PUSH2 0x3BB9 JUMPI PUSH2 0x3BB8 PUSH2 0x3B7F JUMP JUMPDEST JUMPDEST PUSH1 0x20 DUP4 ADD SWAP2 POP DUP4 PUSH1 0x20 DUP3 MUL DUP4 ADD GT ISZERO PUSH2 0x3BD5 JUMPI PUSH2 0x3BD4 PUSH2 0x3B83 JUMP JUMPDEST JUMPDEST SWAP3 POP SWAP3 SWAP1 POP JUMP JUMPDEST PUSH0 DUP1 DUP4 PUSH1 0x1F DUP5 ADD SLT PUSH2 0x3BF1 JUMPI PUSH2 0x3BF0 PUSH2 0x3B7B JUMP JUMPDEST JUMPDEST DUP3 CALLDATALOAD SWAP1 POP PUSH8 0xFFFFFFFFFFFFFFFF DUP2 GT ISZERO PUSH2 0x3C0E JUMPI PUSH2 0x3C0D PUSH2 0x3B7F JUMP JUMPDEST JUMPDEST PUSH1 0x20 DUP4 ADD SWAP2 POP DUP4 PUSH1 0x20 DUP3 MUL DUP4 ADD GT ISZERO PUSH2 0x3C2A JUMPI PUSH2 0x3C29 PUSH2 0x3B83 JUMP JUMPDEST JUMPDEST SWAP3 POP SWAP3 SWAP1 POP JUMP JUMPDEST PUSH0 DUP1 PUSH0 DUP1 PUSH1 0x40 DUP6 DUP8 SUB SLT ISZERO PUSH2 0x3C49 JUMPI PUSH2 0x3C48 PUSH2 0x3AC0 JUMP JUMPDEST JUMPDEST PUSH0 DUP6 ADD CALLDATALOAD PUSH8 0xFFFFFFFFFFFFFFFF DUP2 GT ISZERO PUSH2 0x3C66 JUMPI PUSH2 0x3C65 PUSH2 0x3AC4 JUMP JUMPDEST JUMPDEST PUSH2 0x3C72 DUP8 DUP3 DUP9 ADD PUSH2 0x3B87 JUMP JUMPDEST SWAP5 POP SWAP5 POP POP PUSH1 0x20 DUP6 ADD CALLDATALOAD PUSH8 0xFFFFFFFFFFFFFFFF DUP2 GT ISZERO PUSH2 0x3C95 JUMPI PUSH2 0x3C94 PUSH2 0x3AC4 JUMP JUMPDEST JUMPDEST PUSH2 0x3CA1 DUP8 DUP3 DUP9 ADD PUSH2 0x3BDC JUMP JUMPDEST SWAP3 POP SWAP3 POP POP SWAP3 SWAP6 SWAP2 SWAP5 POP SWAP3 POP JUMP JUMPDEST PUSH0 PUSH20 0xFFFFFFFFFFFFFFFFFFFFFFFFFFFFFFFFFFFFFFFF DUP3 AND SWAP1 POP SWAP2 SWAP1 POP JUMP JUMPDEST PUSH0 PUSH2 0x3CD8 DUP3 PUSH2 0x3CAF JUMP JUMPDEST SWAP1 POP SWAP2 SWAP1 POP JUMP JUMPDEST PUSH2 0x3CE8 DUP2 PUSH2 0x3CCE JUMP JUMPDEST DUP3 MSTORE POP POP JUMP JUMPDEST PUSH0 PUSH1 0x20 DUP3 ADD SWAP1 POP PUSH2 0x3D01 PUSH0 DUP4 ADD DUP5 PUSH2 0x3CDF JUMP JUMPDEST SWAP3 SWAP2 POP POP JUMP JUMPDEST PUSH2 0x3D10 DUP2 PUSH2 0x3CCE JUMP JUMPDEST DUP2 EQ PUSH2 0x3D1A JUMPI PUSH0 DUP1 REVERT JUMPDEST POP JUMP JUMPDEST PUSH0 DUP2 CALLDATALOAD SWAP1 POP PUSH2 0x3D2B DUP2 PUSH2 0x3D07 JUMP JUMPDEST SWAP3 SWAP2 POP POP JUMP JUMPDEST PUSH0 DUP2 SWAP1 POP SWAP2 SWAP1 POP JUMP JUMPDEST PUSH2 0x3D43 DUP2 PUSH2 0x3D31 JUMP JUMPDEST DUP2 EQ PUSH2 0x3D4D JUMPI PUSH0 DUP1 REVERT JUMPDEST POP JUMP JUMPDEST PUSH0 DUP2 CALLDATALOAD SWAP1 POP PUSH2 0x3D5E DUP2 PUSH2 0x3D3A JUMP JUMPDEST SWAP3 SWAP2 POP POP JUMP JUMPDEST PUSH0 DUP1 REVERT JUMPDEST PUSH0 PUSH1 0x1F NOT PUSH1 0x1F DUP4 ADD AND SWAP1 POP SWAP2 SWAP1 POP JUMP JUMPDEST PUSH32 0x4E487B7100000000000000000000000000000000000000000000000000000000 PUSH0 MSTORE PUSH1 0x41 PUSH1 0x4 MSTORE PUSH1 0x24 PUSH0 REVERT JUMPDEST PUSH2 0x3DAE DUP3 PUSH2 0x3D68 JUMP JUMPDEST DUP2 ADD DUP2 DUP2 LT PUSH8 0xFFFFFFFFFFFFFFFF DUP3 GT OR ISZERO PUSH2 0x3DCD JUMPI PUSH2 0x3DCC PUSH2 0x3D78 JUMP JUMPDEST JUMPDEST DUP1 PUSH1 0x40 MSTORE POP POP POP JUMP JUMPDEST PUSH0 PUSH2 0x3DDF PUSH2 0x3AB7 JUMP JUMPDEST SWAP1 POP PUSH2 0x3DEB DUP3 DUP3 PUSH2 0x3DA5 JUMP JUMPDEST SWAP2 SWAP1 POP JUMP JUMPDEST PUSH0 PUSH8 0xFFFFFFFFFFFFFFFF DUP3 GT ISZERO PUSH2 0x3E0A JUMPI PUSH2 0x3E09 PUSH2 0x3D78 JUMP JUMPDEST JUMPDEST PUSH2 0x3E13 DUP3 PUSH2 0x3D68 JUMP JUMPDEST SWAP1 POP PUSH1 0x20 DUP2 ADD SWAP1 POP SWAP2 SWAP1 POP JUMP JUMPDEST DUP3 DUP2 DUP4 CALLDATACOPY PUSH0 DUP4 DUP4 ADD MSTORE POP POP POP JUMP JUMPDEST PUSH0 PUSH2 0x3E40 PUSH2 0x3E3B DUP5 PUSH2 0x3DF0 JUMP JUMPDEST PUSH2 0x3DD6 JUMP JUMPDEST SWAP1 POP DUP3 DUP2 MSTORE PUSH1 0x20 DUP2 ADD DUP5 DUP5 DUP5 ADD GT ISZERO PUSH2 0x3E5C JUMPI PUSH2 0x3E5B PUSH2 0x3D64 JUMP JUMPDEST JUMPDEST PUSH2 0x3E67 DUP5 DUP3 DUP6 PUSH2 0x3E20 JUMP JUMPDEST POP SWAP4 SWAP3 POP POP POP JUMP JUMPDEST PUSH0 DUP3 PUSH1 0x1F DUP4 ADD SLT PUSH2 0x3E83 JUMPI PUSH2 0x3E82 PUSH2 0x3B7B JUMP JUMPDEST JUMPDEST DUP2 CALLDATALOAD PUSH2 0x3E93 DUP5 DUP3 PUSH1 0x20 DUP7 ADD PUSH2 0x3E2E JUMP JUMPDEST SWAP2 POP POP SWAP3 SWAP2 POP POP JUMP JUMPDEST PUSH0 DUP1 PUSH0 DUP1 PUSH1 0x80 DUP6 DUP8 SUB SLT ISZERO PUSH2 0x3EB4 JUMPI PUSH2 0x3EB3 PUSH2 0x3AC0 JUMP JUMPDEST JUMPDEST PUSH0 PUSH2 0x3EC1 DUP8 DUP3 DUP9 ADD PUSH2 0x3D1D JUMP JUMPDEST SWAP5 POP POP PUSH1 0x20 PUSH2 0x3ED2 DUP8 DUP3 DUP9 ADD PUSH2 0x3D1D JUMP JUMPDEST SWAP4 POP POP PUSH1 0x40 PUSH2 0x3EE3 DUP8 DUP3 DUP9 ADD PUSH2 0x3D50 JUMP JUMPDEST SWAP3 POP POP PUSH1 0x60 DUP6 ADD CALLDATALOAD PUSH8 0xFFFFFFFFFFFFFFFF DUP2 GT ISZERO PUSH2 0x3F04 JUMPI PUSH2 0x3F03 PUSH2 0x3AC4 JUMP JUMPDEST JUMPDEST PUSH2 0x3F10 DUP8 DUP3 DUP9 ADD PUSH2 0x3E6F JUMP JUMPDEST SWAP2 POP POP SWAP3 SWAP6 SWAP2 SWAP5 POP SWAP3 POP JUMP JUMPDEST PUSH2 0x3F25 DUP2 PUSH2 0x3AC8 JUMP JUMPDEST DUP3 MSTORE POP POP JUMP JUMPDEST PUSH0 PUSH1 0x20 DUP3 ADD SWAP1 POP PUSH2 0x3F3E PUSH0 DUP4 ADD DUP5 PUSH2 0x3F1C JUMP JUMPDEST SWAP3 SWAP2 POP POP JUMP JUMPDEST PUSH0 DUP2 SWAP1 POP SWAP2 SWAP1 POP JUMP JUMPDEST PUSH2 0x3F56 DUP2 PUSH2 0x3F44 JUMP JUMPDEST DUP2 EQ PUSH2 0x3F60 JUMPI PUSH0 DUP1 REVERT JUMPDEST POP JUMP JUMPDEST PUSH0 DUP2 CALLDATALOAD SWAP1 POP PUSH2 0x3F71 DUP2 PUSH2 0x3F4D JUMP JUMPDEST SWAP3 SWAP2 POP POP JUMP JUMPDEST PUSH0 DUP1 DUP4 PUSH1 0x1F DUP5 ADD SLT PUSH2 0x3F8C JUMPI PUSH2 0x3F8B PUSH2 0x3B7B JUMP JUMPDEST JUMPDEST DUP3 CALLDATALOAD SWAP1 POP PUSH8 0xFFFFFFFFFFFFFFFF DUP2 GT ISZERO PUSH2 0x3FA9 JUMPI PUSH2 0x3FA8 PUSH2 0x3B7F JUMP JUMPDEST JUMPDEST PUSH1 0x20 DUP4 ADD SWAP2 POP DUP4 PUSH1 0x1 DUP3 MUL DUP4 ADD GT ISZERO PUSH2 0x3FC5 JUMPI PUSH2 0x3FC4 PUSH2 0x3B83 JUMP JUMPDEST JUMPDEST SWAP3 POP SWAP3 SWAP1 POP JUMP JUMPDEST PUSH0 DUP1 PUSH0 PUSH1 0x40 DUP5 DUP7 SUB SLT ISZERO PUSH2 0x3FE3 JUMPI PUSH2 0x3FE2 PUSH2 0x3AC0 JUMP JUMPDEST JUMPDEST PUSH0 PUSH2 0x3FF0 DUP7 DUP3 DUP8 ADD PUSH2 0x3F63 JUMP JUMPDEST SWAP4 POP POP PUSH1 0x20 DUP5 ADD CALLDATALOAD PUSH8 0xFFFFFFFFFFFFFFFF DUP2 GT ISZERO PUSH2 0x4011 JUMPI PUSH2 0x4010 PUSH2 0x3AC4 JUMP JUMPDEST JUMPDEST PUSH2 0x401D DUP7 DUP3 DUP8 ADD PUSH2 0x3F77 JUMP JUMPDEST SWAP3 POP SWAP3 POP POP SWAP3 POP SWAP3 POP SWAP3 JUMP JUMPDEST PUSH0 PUSH1 0x20 DUP3 DUP5 SUB SLT ISZERO PUSH2 0x403E JUMPI PUSH2 0x403D PUSH2 0x3AC0 JUMP JUMPDEST JUMPDEST PUSH0 PUSH2 0x404B DUP5 DUP3 DUP6 ADD PUSH2 0x3F63 JUMP JUMPDEST SWAP2 POP POP SWAP3 SWAP2 POP POP JUMP JUMPDEST PUSH2 0x405D DUP2 PUSH2 0x3F44 JUMP JUMPDEST DUP3 MSTORE POP POP JUMP JUMPDEST PUSH0 PUSH1 0x20 DUP3 ADD SWAP1 POP PUSH2 0x4076 PUSH0 DUP4 ADD DUP5 PUSH2 0x4054 JUMP JUMPDEST SWAP3 SWAP2 POP POP JUMP JUMPDEST PUSH0 DUP1 PUSH1 0x40 DUP4 DUP6 SUB SLT ISZERO PUSH2 0x4092 JUMPI PUSH2 0x4091 PUSH2 0x3AC0 JUMP JUMPDEST JUMPDEST PUSH0 PUSH2 0x409F DUP6 DUP3 DUP7 ADD PUSH2 0x3D1D JUMP JUMPDEST SWAP3 POP POP PUSH1 0x20 PUSH2 0x40B0 DUP6 DUP3 DUP7 ADD PUSH2 0x3D1D JUMP JUMPDEST SWAP2 POP POP SWAP3 POP SWAP3 SWAP1 POP JUMP JUMPDEST PUSH0 PUSH1 0xFF DUP3 AND SWAP1 POP SWAP2 SWAP1 POP JUMP JUMPDEST PUSH2 0x40CF DUP2 PUSH2 0x40BA JUMP JUMPDEST DUP2 EQ PUSH2 0x40D9 JUMPI PUSH0 DUP1 REVERT JUMPDEST POP JUMP JUMPDEST PUSH0 DUP2 CALLDATALOAD SWAP1 POP PUSH2 0x40EA DUP2 PUSH2 0x40C6 JUMP JUMPDEST SWAP3 SWAP2 POP POP JUMP JUMPDEST PUSH0 DUP1 DUP4 PUSH1 0x1F DUP5 ADD SLT PUSH2 0x4105 JUMPI PUSH2 0x4104 PUSH2 0x3B7B JUMP JUMPDEST JUMPDEST DUP3 CALLDATALOAD SWAP1 POP PUSH8 0xFFFFFFFFFFFFFFFF DUP2 GT ISZERO PUSH2 0x4122 JUMPI PUSH2 0x4121 PUSH2 0x3B7F JUMP JUMPDEST JUMPDEST PUSH1 0x20 DUP4 ADD SWAP2 POP DUP4 PUSH1 0x60 DUP3 MUL DUP4 ADD GT ISZERO PUSH2 0x413E JUMPI PUSH2 0x413D PUSH2 0x3B83 JUMP JUMPDEST JUMPDEST SWAP3 POP SWAP3 SWAP1 POP JUMP JUMPDEST PUSH0 DUP1 PUSH0 DUP1 PUSH0 DUP1 PUSH0 PUSH1 0xA0 DUP9 DUP11 SUB SLT ISZERO PUSH2 0x4160 JUMPI PUSH2 0x415F PUSH2 0x3AC0 JUMP JUMPDEST JUMPDEST PUSH0 PUSH2 0x416D DUP11 DUP3 DUP12 ADD PUSH2 0x3D1D JUMP JUMPDEST SWAP8 POP POP PUSH1 0x20 PUSH2 0x417E DUP11 DUP3 DUP12 ADD PUSH2 0x3D50 JUMP JUMPDEST SWAP7 POP POP PUSH1 0x40 DUP9 ADD CALLDATALOAD PUSH8 0xFFFFFFFFFFFFFFFF DUP2 GT ISZERO PUSH2 0x419F JUMPI PUSH2 0x419E PUSH2 0x3AC4 JUMP JUMPDEST JUMPDEST PUSH2 0x41AB DUP11 DUP3 DUP12 ADD PUSH2 0x3F77 JUMP JUMPDEST SWAP6 POP SWAP6 POP POP PUSH1 0x60 PUSH2 0x41BE DUP11 DUP3 DUP12 ADD PUSH2 0x40DC JUMP JUMPDEST SWAP4 POP POP PUSH1 0x80 DUP9 ADD CALLDATALOAD PUSH8 0xFFFFFFFFFFFFFFFF DUP2 GT ISZERO PUSH2 0x41DF JUMPI PUSH2 0x41DE PUSH2 0x3AC4 JUMP JUMPDEST JUMPDEST PUSH2 0x41EB DUP11 DUP3 DUP12 ADD PUSH2 0x40F0 JUMP JUMPDEST SWAP3 POP SWAP3 POP POP SWAP3 SWAP6 SWAP9 SWAP2 SWAP5 SWAP8 POP SWAP3 SWAP6 POP JUMP JUMPDEST PUSH0 DUP2 MLOAD SWAP1 POP SWAP2 SWAP1 POP JUMP JUMPDEST PUSH0 DUP3 DUP3 MSTORE PUSH1 0x20 DUP3 ADD SWAP1 POP SWAP3 SWAP2 POP POP JUMP JUMPDEST PUSH0 JUMPDEST DUP4 DUP2 LT ISZERO PUSH2 0x4233 JUMPI DUP1 DUP3 ADD MLOAD DUP2 DUP5 ADD MSTORE PUSH1 0x20 DUP2 ADD SWAP1 POP PUSH2 0x4218 JUMP JUMPDEST PUSH0 DUP5 DUP5 ADD MSTORE POP POP POP POP JUMP JUMPDEST PUSH0 PUSH2 0x4248 DUP3 PUSH2 0x41FC JUMP JUMPDEST PUSH2 0x4252 DUP2 DUP6 PUSH2 0x4206 JUMP JUMPDEST SWAP4 POP PUSH2 0x4262 DUP2 DUP6 PUSH1 0x20 DUP7 ADD PUSH2 0x4216 JUMP JUMPDEST PUSH2 0x426B DUP2 PUSH2 0x3D68 JUMP JUMPDEST DUP5 ADD SWAP2 POP POP SWAP3 SWAP2 POP POP JUMP JUMPDEST PUSH0 PUSH1 0x20 DUP3 ADD SWAP1 POP DUP2 DUP2 SUB PUSH0 DUP4 ADD MSTORE PUSH2 0x428E DUP2 DUP5 PUSH2 0x423E JUMP JUMPDEST SWAP1 POP SWAP3 SWAP2 POP POP JUMP JUMPDEST PUSH0 DUP1 PUSH0 DUP1 PUSH1 0x60 DUP6 DUP8 SUB SLT ISZERO PUSH2 0x42AE JUMPI PUSH2 0x42AD PUSH2 0x3AC0 JUMP JUMPDEST JUMPDEST PUSH0 PUSH2 0x42BB DUP8 DUP3 DUP9 ADD PUSH2 0x3D50 JUMP JUMPDEST SWAP5 POP POP PUSH1 0x20 PUSH2 0x42CC DUP8 DUP3 DUP9 ADD PUSH2 0x3F63 JUMP JUMPDEST SWAP4 POP POP PUSH1 0x40 DUP6 ADD CALLDATALOAD PUSH8 0xFFFFFFFFFFFFFFFF DUP2 GT ISZERO PUSH2 0x42ED JUMPI PUSH2 0x42EC PUSH2 0x3AC4 JUMP JUMPDEST JUMPDEST PUSH2 0x42F9 DUP8 DUP3 DUP9 ADD PUSH2 0x3F77 JUMP JUMPDEST SWAP3 POP SWAP3 POP POP SWAP3 SWAP6 SWAP2 SWAP5 POP SWAP3 POP JUMP JUMPDEST PUSH0 DUP1 REVERT JUMPDEST PUSH0 PUSH2 0x160 DUP3 DUP5 SUB SLT ISZERO PUSH2 0x4321 JUMPI PUSH2 0x4320 PUSH2 0x4307 JUMP JUMPDEST JUMPDEST DUP2 SWAP1 POP SWAP3 SWAP2 POP POP JUMP JUMPDEST PUSH0 DUP1 PUSH0 PUSH1 0x60 DUP5 DUP7 SUB SLT ISZERO PUSH2 0x4341 JUMPI PUSH2 0x4340 PUSH2 0x3AC0 JUMP JUMPDEST JUMPDEST PUSH0 DUP5 ADD CALLDATALOAD PUSH8 0xFFFFFFFFFFFFFFFF DUP2 GT ISZERO PUSH2 0x435E JUMPI PUSH2 0x435D PUSH2 0x3AC4 JUMP JUMPDEST JUMPDEST PUSH2 0x436A DUP7 DUP3 DUP8 ADD PUSH2 0x430B JUMP JUMPDEST SWAP4 POP POP PUSH1 0x20 PUSH2 0x437B DUP7 DUP3 DUP8 ADD PUSH2 0x3F63 JUMP JUMPDEST SWAP3 POP POP PUSH1 0x40 PUSH2 0x438C DUP7 DUP3 DUP8 ADD PUSH2 0x3D50 JUMP JUMPDEST SWAP2 POP POP SWAP3 POP SWAP3 POP SWAP3 JUMP JUMPDEST PUSH2 0x439F DUP2 PUSH2 0x3D31 JUMP JUMPDEST DUP3 MSTORE POP POP JUMP JUMPDEST PUSH0 PUSH1 0x20 DUP3 ADD SWAP1 POP PUSH2 0x43B8 PUSH0 DUP4 ADD DUP5 PUSH2 0x4396 JUMP JUMPDEST SWAP3 SWAP2 POP POP JUMP JUMPDEST PUSH0 DUP1 DUP4 PUSH1 0x1F DUP5 ADD SLT PUSH2 0x43D3 JUMPI PUSH2 0x43D2 PUSH2 0x3B7B JUMP JUMPDEST JUMPDEST DUP3 CALLDATALOAD SWAP1 POP PUSH8 0xFFFFFFFFFFFFFFFF DUP2 GT ISZERO PUSH2 0x43F0 JUMPI PUSH2 0x43EF PUSH2 0x3B7F JUMP JUMPDEST JUMPDEST PUSH1 0x20 DUP4 ADD SWAP2 POP DUP4 PUSH1 0x20 DUP3 MUL DUP4 ADD GT ISZERO PUSH2 0x440C JUMPI PUSH2 0x440B PUSH2 0x3B83 JUMP JUMPDEST JUMPDEST SWAP3 POP SWAP3 SWAP1 POP JUMP JUMPDEST PUSH0 DUP1 PUSH1 0x20 DUP4 DUP6 SUB SLT ISZERO PUSH2 0x4429 JUMPI PUSH2 0x4428 PUSH2 0x3AC0 JUMP JUMPDEST JUMPDEST PUSH0 DUP4 ADD CALLDATALOAD PUSH8 0xFFFFFFFFFFFFFFFF DUP2 GT ISZERO PUSH2 0x4446 JUMPI PUSH2 0x4445 PUSH2 0x3AC4 JUMP JUMPDEST JUMPDEST PUSH2 0x4452 DUP6 DUP3 DUP7 ADD PUSH2 0x43BE JUMP JUMPDEST SWAP3 POP SWAP3 POP POP SWAP3 POP SWAP3 SWAP1 POP JUMP JUMPDEST PUSH0 DUP2 MLOAD SWAP1 POP SWAP2 SWAP1 POP JUMP JUMPDEST PUSH0 DUP3 DUP3 MSTORE PUSH1 0x20 DUP3 ADD SWAP1 POP SWAP3 SWAP2 POP POP JUMP JUMPDEST PUSH0 DUP2 SWAP1 POP PUSH1 0x20 DUP3 ADD SWAP1 POP SWAP2 SWAP1 POP JUMP JUMPDEST PUSH0 DUP3 DUP3 MSTORE PUSH1 0x20 DUP3 ADD SWAP1 POP SWAP3 SWAP2 POP POP JUMP JUMPDEST PUSH0 PUSH2 0x44A1 DUP3 PUSH2 0x41FC JUMP JUMPDEST PUSH2 0x44AB DUP2 DUP6 PUSH2 0x4487 JUMP JUMPDEST SWAP4 POP PUSH2 0x44BB DUP2 DUP6 PUSH1 0x20 DUP7 ADD PUSH2 0x4216 JUMP JUMPDEST PUSH2 0x44C4 DUP2 PUSH2 0x3D68 JUMP JUMPDEST DUP5 ADD SWAP2 POP POP SWAP3 SWAP2 POP POP JUMP JUMPDEST PUSH0 PUSH2 0x44DA DUP4 DUP4 PUSH2 0x4497 JUMP JUMPDEST SWAP1 POP SWAP3 SWAP2 POP POP JUMP JUMPDEST PUSH0 PUSH1 0x20 DUP3 ADD SWAP1 POP SWAP2 SWAP1 POP JUMP JUMPDEST PUSH0 PUSH2 0x44F8 DUP3 PUSH2 0x445E JUMP JUMPDEST PUSH2 0x4502 DUP2 DUP6 PUSH2 0x4468 JUMP JUMPDEST SWAP4 POP DUP4 PUSH1 0x20 DUP3 MUL DUP6 ADD PUSH2 0x4514 DUP6 PUSH2 0x4478 JUMP JUMPDEST DUP1 PUSH0 JUMPDEST DUP6 DUP2 LT ISZERO PUSH2 0x454F JUMPI DUP5 DUP5 SUB DUP10 MSTORE DUP2 MLOAD PUSH2 0x4530 DUP6 DUP3 PUSH2 0x44CF JUMP JUMPDEST SWAP5 POP PUSH2 0x453B DUP4 PUSH2 0x44E2 JUMP JUMPDEST SWAP3 POP PUSH1 0x20 DUP11 ADD SWAP10 POP POP PUSH1 0x1 DUP2 ADD SWAP1 POP PUSH2 0x4517 JUMP JUMPDEST POP DUP3 SWAP8 POP DUP8 SWAP6 POP POP POP POP POP POP SWAP3 SWAP2 POP POP JUMP JUMPDEST PUSH0 PUSH1 0x20 DUP3 ADD SWAP1 POP DUP2 DUP2 SUB PUSH0 DUP4 ADD MSTORE PUSH2 0x4579 DUP2 DUP5 PUSH2 0x44EE JUMP JUMPDEST SWAP1 POP SWAP3 SWAP2 POP POP JUMP JUMPDEST PUSH0 DUP1 PUSH0 PUSH1 0x40 DUP5 DUP7 SUB SLT ISZERO PUSH2 0x4598 JUMPI PUSH2 0x4597 PUSH2 0x3AC0 JUMP JUMPDEST JUMPDEST PUSH0 PUSH2 0x45A5 DUP7 DUP3 DUP8 ADD PUSH2 0x3D50 JUMP JUMPDEST SWAP4 POP POP PUSH1 0x20 DUP5 ADD CALLDATALOAD PUSH8 0xFFFFFFFFFFFFFFFF DUP2 GT ISZERO PUSH2 0x45C6 JUMPI PUSH2 0x45C5 PUSH2 0x3AC4 JUMP JUMPDEST JUMPDEST PUSH2 0x45D2 DUP7 DUP3 DUP8 ADD PUSH2 0x3F77 JUMP JUMPDEST SWAP3 POP SWAP3 POP POP SWAP3 POP SWAP3 POP SWAP3 JUMP JUMPDEST PUSH0 DUP1 PUSH0 DUP1 PUSH0 PUSH1 0x80 DUP7 DUP9 SUB SLT ISZERO PUSH2 0x45F7 JUMPI PUSH2 0x45F6 PUSH2 0x3AC0 JUMP JUMPDEST JUMPDEST PUSH0 PUSH2 0x4604 DUP9 DUP3 DUP10 ADD PUSH2 0x3D1D JUMP JUMPDEST SWAP6 POP POP PUSH1 0x20 PUSH2 0x4615 DUP9 DUP3 DUP10 ADD PUSH2 0x3D50 JUMP JUMPDEST SWAP5 POP POP PUSH1 0x40 DUP7 ADD CALLDATALOAD PUSH8 0xFFFFFFFFFFFFFFFF DUP2 GT ISZERO PUSH2 0x4636 JUMPI PUSH2 0x4635 PUSH2 0x3AC4 JUMP JUMPDEST JUMPDEST PUSH2 0x4642 DUP9 DUP3 DUP10 ADD PUSH2 0x3F77 JUMP JUMPDEST SWAP4 POP SWAP4 POP POP PUSH1 0x60 PUSH2 0x4655 DUP9 DUP3 DUP10 ADD PUSH2 0x40DC JUMP JUMPDEST SWAP2 POP POP SWAP3 SWAP6 POP SWAP3 SWAP6 SWAP1 SWAP4 POP JUMP JUMPDEST PUSH0 DUP1 PUSH0 PUSH1 0x40 DUP5 DUP7 SUB SLT ISZERO PUSH2 0x4679 JUMPI PUSH2 0x4678 PUSH2 0x3AC0 JUMP JUMPDEST JUMPDEST PUSH0 PUSH2 0x4686 DUP7 DUP3 DUP8 ADD PUSH2 0x3D1D JUMP JUMPDEST SWAP4 POP POP PUSH1 0x20 DUP5 ADD CALLDATALOAD PUSH8 0xFFFFFFFFFFFFFFFF DUP2 GT ISZERO PUSH2 0x46A7 JUMPI PUSH2 0x46A6 PUSH2 0x3AC4 JUMP JUMPDEST JUMPDEST PUSH2 0x46B3 DUP7 DUP3 DUP8 ADD PUSH2 0x3F77 JUMP JUMPDEST SWAP3 POP SWAP3 POP POP SWAP3 POP SWAP3 POP SWAP3 JUMP JUMPDEST PUSH0 PUSH1 0x20 DUP3 DUP5 SUB SLT ISZERO PUSH2 0x46D4 JUMPI PUSH2 0x46D3 PUSH2 0x3AC0 JUMP JUMPDEST JUMPDEST PUSH0 PUSH2 0x46E1 DUP5 DUP3 DUP6 ADD PUSH2 0x3D1D JUMP JUMPDEST SWAP2 POP POP SWAP3 SWAP2 POP POP JUMP JUMPDEST PUSH0 DUP1 PUSH0 DUP1 PUSH0 PUSH1 0xA0 DUP7 DUP9 SUB SLT ISZERO PUSH2 0x4703 JUMPI PUSH2 0x4702 PUSH2 0x3AC0 JUMP JUMPDEST JUMPDEST PUSH0 PUSH2 0x4710 DUP9 DUP3 DUP10 ADD PUSH2 0x3D1D JUMP JUMPDEST SWAP6 POP POP PUSH1 0x20 PUSH2 0x4721 DUP9 DUP3 DUP10 ADD PUSH2 0x3D1D JUMP JUMPDEST SWAP5 POP POP PUSH1 0x40 PUSH2 0x4732 DUP9 DUP3 DUP10 ADD PUSH2 0x3D50 JUMP JUMPDEST SWAP4 POP POP PUSH1 0x60 PUSH2 0x4743 DUP9 DUP3 DUP10 ADD PUSH2 0x3D50 JUMP JUMPDEST SWAP3 POP POP PUSH1 0x80 PUSH2 0x4754 DUP9 DUP3 DUP10 ADD PUSH2 0x3D50 JUMP JUMPDEST SWAP2 POP POP SWAP3 SWAP6 POP SWAP3 SWAP6 SWAP1 SWAP4 POP JUMP JUMPDEST PUSH0 DUP1 DUP4 PUSH1 0x1F DUP5 ADD SLT PUSH2 0x4776 JUMPI PUSH2 0x4775 PUSH2 0x3B7B JUMP JUMPDEST JUMPDEST DUP3 CALLDATALOAD SWAP1 POP PUSH8 0xFFFFFFFFFFFFFFFF DUP2 GT ISZERO PUSH2 0x4793 JUMPI PUSH2 0x4792 PUSH2 0x3B7F JUMP JUMPDEST JUMPDEST PUSH1 0x20 DUP4 ADD SWAP2 POP DUP4 PUSH1 0x20 DUP3 MUL DUP4 ADD GT ISZERO PUSH2 0x47AF JUMPI PUSH2 0x47AE PUSH2 0x3B83 JUMP JUMPDEST JUMPDEST SWAP3 POP SWAP3 SWAP1 POP JUMP JUMPDEST PUSH0 DUP1 PUSH0 DUP1 PUSH1 0x40 DUP6 DUP8 SUB SLT ISZERO PUSH2 0x47CE JUMPI PUSH2 0x47CD PUSH2 0x3AC0 JUMP JUMPDEST JUMPDEST PUSH0 DUP6 ADD CALLDATALOAD PUSH8 0xFFFFFFFFFFFFFFFF DUP2 GT ISZERO PUSH2 0x47EB JUMPI PUSH2 0x47EA PUSH2 0x3AC4 JUMP JUMPDEST JUMPDEST PUSH2 0x47F7 DUP8 DUP3 DUP9 ADD PUSH2 0x4761 JUMP JUMPDEST SWAP5 POP SWAP5 POP POP PUSH1 0x20 DUP6 ADD CALLDATALOAD PUSH8 0xFFFFFFFFFFFFFFFF DUP2 GT ISZERO PUSH2 0x481A JUMPI PUSH2 0x4819 PUSH2 0x3AC4 JUMP JUMPDEST JUMPDEST PUSH2 0x4826 DUP8 DUP3 DUP9 ADD PUSH2 0x3B87 JUMP JUMPDEST SWAP3 POP SWAP3 POP POP SWAP3 SWAP6 SWAP2 SWAP5 POP SWAP3 POP JUMP JUMPDEST PUSH0 DUP2 SWAP1 POP SWAP2 SWAP1 POP JUMP JUMPDEST PUSH0 PUSH2 0x4857 PUSH2 0x4852 PUSH2 0x484D DUP5 PUSH2 0x3CAF JUMP JUMPDEST PUSH2 0x4834 JUMP JUMPDEST PUSH2 0x3CAF JUMP JUMPDEST SWAP1 POP SWAP2 SWAP1 POP JUMP JUMPDEST PUSH0 PUSH2 0x4868 DUP3 PUSH2 0x483D JUMP JUMPDEST SWAP1 POP SWAP2 SWAP1 POP JUMP JUMPDEST PUSH0 PUSH2 0x4879 DUP3 PUSH2 0x485E JUMP JUMPDEST SWAP1 POP SWAP2 SWAP1 POP JUMP JUMPDEST PUSH2 0x4889 DUP2 PUSH2 0x486F JUMP JUMPDEST DUP3 MSTORE POP POP JUMP JUMPDEST PUSH0 PUSH1 0x20 DUP3 ADD SWAP1 POP PUSH2 0x48A2 PUSH0 DUP4 ADD DUP5 PUSH2 0x4880 JUMP JUMPDEST SWAP3 SWAP2 POP POP JUMP JUMPDEST PUSH0 DUP1 PUSH0 DUP1 PUSH1 0x60 DUP6 DUP8 SUB SLT ISZERO PUSH2 0x48C0 JUMPI PUSH2 0x48BF PUSH2 0x3AC0 JUMP JUMPDEST JUMPDEST PUSH0 PUSH2 0x48CD DUP8 DUP3 DUP9 ADD PUSH2 0x3D1D JUMP JUMPDEST SWAP5 POP POP PUSH1 0x20 PUSH2 0x48DE DUP8 DUP3 DUP9 ADD PUSH2 0x3D50 JUMP JUMPDEST SWAP4 POP POP PUSH1 0x40 DUP6 ADD CALLDATALOAD PUSH8 0xFFFFFFFFFFFFFFFF DUP2 GT ISZERO PUSH2 0x48FF JUMPI PUSH2 0x48FE PUSH2 0x3AC4 JUMP JUMPDEST JUMPDEST PUSH2 0x490B DUP8 DUP3 DUP9 ADD PUSH2 0x3F77 JUMP JUMPDEST SWAP3 POP SWAP3 POP POP SWAP3 SWAP6 SWAP2 SWAP5 POP SWAP3 POP JUMP JUMPDEST PUSH0 PUSH8 0xFFFFFFFFFFFFFFFF DUP3 GT ISZERO PUSH2 0x4933 JUMPI PUSH2 0x4932 PUSH2 0x3D78 JUMP JUMPDEST JUMPDEST PUSH1 0x20 DUP3 MUL SWAP1 POP PUSH1 0x20 DUP2 ADD SWAP1 POP SWAP2 SWAP1 POP JUMP JUMPDEST PUSH0 PUSH2 0x4956 PUSH2 0x4951 DUP5 PUSH2 0x4919 JUMP JUMPDEST PUSH2 0x3DD6 JUMP JUMPDEST SWAP1 POP DUP1 DUP4 DUP3 MSTORE PUSH1 0x20 DUP3 ADD SWAP1 POP PUSH1 0x20 DUP5 MUL DUP4 ADD DUP6 DUP2 GT ISZERO PUSH2 0x4979 JUMPI PUSH2 0x4978 PUSH2 0x3B83 JUMP JUMPDEST JUMPDEST DUP4 JUMPDEST DUP2 DUP2 LT ISZERO PUSH2 0x49A2 JUMPI DUP1 PUSH2 0x498E DUP9 DUP3 PUSH2 0x3D50 JUMP JUMPDEST DUP5 MSTORE PUSH1 0x20 DUP5 ADD SWAP4 POP POP PUSH1 0x20 DUP2 ADD SWAP1 POP PUSH2 0x497B JUMP JUMPDEST POP POP POP SWAP4 SWAP3 POP POP POP JUMP JUMPDEST PUSH0 DUP3 PUSH1 0x1F DUP4 ADD SLT PUSH2 0x49C0 JUMPI PUSH2 0x49BF PUSH2 0x3B7B JUMP JUMPDEST JUMPDEST DUP2 CALLDATALOAD PUSH2 0x49D0 DUP5 DUP3 PUSH1 0x20 DUP7 ADD PUSH2 0x4944 JUMP JUMPDEST SWAP2 POP POP SWAP3 SWAP2 POP POP JUMP JUMPDEST PUSH0 DUP1 PUSH0 DUP1 PUSH0 PUSH1 0xA0 DUP7 DUP9 SUB SLT ISZERO PUSH2 0x49F2 JUMPI PUSH2 0x49F1 PUSH2 0x3AC0 JUMP JUMPDEST JUMPDEST PUSH0 PUSH2 0x49FF DUP9 DUP3 DUP10 ADD PUSH2 0x3D1D JUMP JUMPDEST SWAP6 POP POP PUSH1 0x20 PUSH2 0x4A10 DUP9 DUP3 DUP10 ADD PUSH2 0x3D1D JUMP JUMPDEST SWAP5 POP POP PUSH1 0x40 DUP7 ADD CALLDATALOAD PUSH8 0xFFFFFFFFFFFFFFFF DUP2 GT ISZERO PUSH2 0x4A31 JUMPI PUSH2 0x4A30 PUSH2 0x3AC4 JUMP JUMPDEST JUMPDEST PUSH2 0x4A3D DUP9 DUP3 DUP10 ADD PUSH2 0x49AC JUMP JUMPDEST SWAP4 POP POP PUSH1 0x60 DUP7 ADD CALLDATALOAD PUSH8 0xFFFFFFFFFFFFFFFF DUP2 GT ISZERO PUSH2 0x4A5E JUMPI PUSH2 0x4A5D PUSH2 0x3AC4 JUMP JUMPDEST JUMPDEST PUSH2 0x4A6A DUP9 DUP3 DUP10 ADD PUSH2 0x49AC JUMP JUMPDEST SWAP3 POP POP PUSH1 0x80 DUP7 ADD CALLDATALOAD PUSH8 0xFFFFFFFFFFFFFFFF DUP2 GT ISZERO PUSH2 0x4A8B JUMPI PUSH2 0x4A8A PUSH2 0x3AC4 JUMP JUMPDEST JUMPDEST PUSH2 0x4A97 DUP9 DUP3 DUP10 ADD PUSH2 0x3E6F JUMP JUMPDEST SWAP2 POP POP SWAP3 SWAP6 POP SWAP3 SWAP6 SWAP1 SWAP4 POP JUMP JUMPDEST PUSH0 PUSH1 0x20 DUP3 DUP5 SUB SLT ISZERO PUSH2 0x4AB9 JUMPI PUSH2 0x4AB8 PUSH2 0x3AC0 JUMP JUMPDEST JUMPDEST PUSH0 PUSH2 0x4AC6 DUP5 DUP3 DUP6 ADD PUSH2 0x3D50 JUMP JUMPDEST SWAP2 POP POP SWAP3 SWAP2 POP POP JUMP JUMPDEST PUSH0 DUP1 PUSH1 0x40 DUP4 DUP6 SUB SLT ISZERO PUSH2 0x4AE5 JUMPI PUSH2 0x4AE4 PUSH2 0x3AC0 JUMP JUMPDEST JUMPDEST PUSH0 PUSH2 0x4AF2 DUP6 DUP3 DUP7 ADD PUSH2 0x3D1D JUMP JUMPDEST SWAP3 POP POP PUSH1 0x20 PUSH2 0x4B03 DUP6 DUP3 DUP7 ADD PUSH2 0x3B09 JUMP JUMPDEST SWAP2 POP POP SWAP3 POP SWAP3 SWAP1 POP JUMP JUMPDEST PUSH0 DUP1 PUSH0 DUP1 PUSH0 PUSH1 0xA0 DUP7 DUP9 SUB SLT ISZERO PUSH2 0x4B26 JUMPI PUSH2 0x4B25 PUSH2 0x3AC0 JUMP JUMPDEST JUMPDEST PUSH0 PUSH2 0x4B33 DUP9 DUP3 DUP10 ADD PUSH2 0x3D1D JUMP JUMPDEST SWAP6 POP POP PUSH1 0x20 PUSH2 0x4B44 DUP9 DUP3 DUP10 ADD PUSH2 0x3D1D JUMP JUMPDEST SWAP5 POP POP PUSH1 0x40 PUSH2 0x4B55 DUP9 DUP3 DUP10 ADD PUSH2 0x3D50 JUMP JUMPDEST SWAP4 POP POP PUSH1 0x60 PUSH2 0x4B66 DUP9 DUP3 DUP10 ADD PUSH2 0x3D50 JUMP JUMPDEST SWAP3 POP POP PUSH1 0x80 DUP7 ADD CALLDATALOAD PUSH8 0xFFFFFFFFFFFFFFFF DUP2 GT ISZERO PUSH2 0x4B87 JUMPI PUSH2 0x4B86 PUSH2 0x3AC4 JUMP JUMPDEST JUMPDEST PUSH2 0x4B93 DUP9 DUP3 DUP10 ADD PUSH2 0x3E6F JUMP JUMPDEST SWAP2 POP POP SWAP3 SWAP6 POP SWAP3 SWAP6 SWAP1 SWAP4 POP JUMP JUMPDEST PUSH0 PUSH1 0x60 DUP3 ADD SWAP1 POP PUSH2 0x4BB3 PUSH0 DUP4 ADD DUP7 PUSH2 0x4396 JUMP JUMPDEST PUSH2 0x4BC0 PUSH1 0x20 DUP4 ADD DUP6 PUSH2 0x3CDF JUMP JUMPDEST PUSH2 0x4BCD PUSH1 0x40 DUP4 ADD DUP5 PUSH2 0x4396 JUMP JUMPDEST SWAP5 SWAP4 POP POP POP POP JUMP JUMPDEST PUSH0 DUP2 PUSH1 0x60 SHL SWAP1 POP SWAP2 SWAP1 POP JUMP JUMPDEST PUSH0 PUSH2 0x4BEB DUP3 PUSH2 0x4BD5 JUMP JUMPDEST SWAP1 POP SWAP2 SWAP1 POP JUMP JUMPDEST PUSH0 PUSH2 0x4BFC DUP3 PUSH2 0x4BE1 JUMP JUMPDEST SWAP1 POP SWAP2 SWAP1 POP JUMP JUMPDEST PUSH2 0x4C14 PUSH2 0x4C0F DUP3 PUSH2 0x3CCE JUMP JUMPDEST PUSH2 0x4BF2 JUMP JUMPDEST DUP3 MSTORE POP POP JUMP JUMPDEST PUSH0 DUP2 SWAP1 POP SWAP3 SWAP2 POP POP JUMP JUMPDEST PUSH0 PUSH2 0x4C2F DUP4 DUP6 PUSH2 0x4C1A JUMP JUMPDEST SWAP4 POP PUSH2 0x4C3C DUP4 DUP6 DUP5 PUSH2 0x3E20 JUMP JUMPDEST DUP3 DUP5 ADD SWAP1 POP SWAP4 SWAP3 POP POP POP JUMP JUMPDEST PUSH0 PUSH2 0x4C53 DUP3 DUP8 PUSH2 0x4C03 JUMP JUMPDEST PUSH1 0x14 DUP3 ADD SWAP2 POP PUSH2 0x4C64 DUP3 DUP6 DUP8 PUSH2 0x4C24 JUMP JUMPDEST SWAP2 POP PUSH2 0x4C70 DUP3 DUP5 PUSH2 0x4C03 JUMP JUMPDEST PUSH1 0x14 DUP3 ADD SWAP2 POP DUP2 SWAP1 POP SWAP6 SWAP5 POP POP POP POP POP JUMP JUMPDEST PUSH0 PUSH2 0x4C8C DUP3 PUSH2 0x41FC JUMP JUMPDEST PUSH2 0x4C96 DUP2 DUP6 PUSH2 0x4C1A JUMP JUMPDEST SWAP4 POP PUSH2 0x4CA6 DUP2 DUP6 PUSH1 0x20 DUP7 ADD PUSH2 0x4216 JUMP JUMPDEST DUP1 DUP5 ADD SWAP2 POP POP SWAP3 SWAP2 POP POP JUMP JUMPDEST PUSH0 PUSH2 0x4CBD DUP3 DUP5 PUSH2 0x4C82 JUMP JUMPDEST SWAP2 POP DUP2 SWAP1 POP SWAP3 SWAP2 POP POP JUMP JUMPDEST PUSH32 0x4E487B7100000000000000000000000000000000000000000000000000000000 PUSH0 MSTORE PUSH1 0x32 PUSH1 0x4 MSTORE PUSH1 0x24 PUSH0 REVERT JUMPDEST PUSH2 0x4CFE DUP2 PUSH2 0x3B48 JUMP JUMPDEST DUP2 EQ PUSH2 0x4D08 JUMPI PUSH0 DUP1 REVERT JUMPDEST POP JUMP JUMPDEST PUSH0 DUP2 CALLDATALOAD SWAP1 POP PUSH2 0x4D19 DUP2 PUSH2 0x4CF5 JUMP JUMPDEST SWAP3 SWAP2 POP POP JUMP JUMPDEST PUSH0 PUSH1 0x20 DUP3 DUP5 SUB SLT ISZERO PUSH2 0x4D34 JUMPI PUSH2 0x4D33 PUSH2 0x3AC0 JUMP JUMPDEST JUMPDEST PUSH0 PUSH2 0x4D41 DUP5 DUP3 DUP6 ADD PUSH2 0x4D0B JUMP JUMPDEST SWAP2 POP POP SWAP3 SWAP2 POP POP JUMP JUMPDEST PUSH0 PUSH1 0x60 DUP3 ADD SWAP1 POP PUSH2 0x4D5D PUSH0 DUP4 ADD DUP7 PUSH2 0x3CDF JUMP JUMPDEST PUSH2 0x4D6A PUSH1 0x20 DUP4 ADD DUP6 PUSH2 0x3CDF JUMP JUMPDEST PUSH2 0x4D77 PUSH1 0x40 DUP4 ADD DUP5 PUSH2 0x3B53 JUMP JUMPDEST SWAP5 SWAP4 POP POP POP POP JUMP JUMPDEST PUSH0 DUP2 MLOAD SWAP1 POP PUSH2 0x4D8D DUP2 PUSH2 0x4CF5 JUMP JUMPDEST SWAP3 SWAP2 POP POP JUMP JUMPDEST PUSH0 PUSH1 0x20 DUP3 DUP5 SUB SLT ISZERO PUSH2 0x4DA8 JUMPI PUSH2 0x4DA7 PUSH2 0x3AC0 JUMP JUMPDEST JUMPDEST PUSH0 PUSH2 0x4DB5 DUP5 DUP3 DUP6 ADD PUSH2 0x4D7F JUMP JUMPDEST SWAP2 POP POP SWAP3 SWAP2 POP POP JUMP JUMPDEST PUSH0 DUP2 MLOAD SWAP1 POP PUSH2 0x4DCC DUP2 PUSH2 0x3D07 JUMP JUMPDEST SWAP3 SWAP2 POP POP JUMP JUMPDEST PUSH0 PUSH1 0x20 DUP3 DUP5 SUB SLT ISZERO PUSH2 0x4DE7 JUMPI PUSH2 0x4DE6 PUSH2 0x3AC0 JUMP JUMPDEST JUMPDEST PUSH0 PUSH2 0x4DF4 DUP5 DUP3 DUP6 ADD PUSH2 0x4DBE JUMP JUMPDEST SWAP2 POP POP SWAP3 SWAP2 POP POP JUMP JUMPDEST PUSH0 DUP1 REVERT JUMPDEST PUSH0 DUP1 REVERT JUMPDEST PUSH0 DUP1 REVERT JUMPDEST PUSH0 DUP3 CALLDATALOAD PUSH1 0x1 PUSH1 0x80 SUB DUP4 CALLDATASIZE SUB SUB DUP2 SLT PUSH2 0x4E24 JUMPI PUSH2 0x4E23 PUSH2 0x4DFD JUMP JUMPDEST JUMPDEST DUP1 DUP4 ADD SWAP2 POP POP SWAP3 SWAP2 POP POP JUMP JUMPDEST PUSH0 DUP1 DUP4 CALLDATALOAD PUSH1 0x1 PUSH1 0x20 SUB DUP5 CALLDATASIZE SUB SUB DUP2 SLT PUSH2 0x4E4C JUMPI PUSH2 0x4E4B PUSH2 0x4DFD JUMP JUMPDEST JUMPDEST DUP1 DUP5 ADD SWAP3 POP DUP3 CALLDATALOAD SWAP2 POP PUSH8 0xFFFFFFFFFFFFFFFF DUP3 GT ISZERO PUSH2 0x4E6E JUMPI PUSH2 0x4E6D PUSH2 0x4E01 JUMP JUMPDEST JUMPDEST PUSH1 0x20 DUP4 ADD SWAP3 POP PUSH1 0x1 DUP3 MUL CALLDATASIZE SUB DUP4 SGT ISZERO PUSH2 0x4E8A JUMPI PUSH2 0x4E89 PUSH2 0x4E05 JUMP JUMPDEST JUMPDEST POP SWAP3 POP SWAP3 SWAP1 POP JUMP JUMPDEST PUSH0 PUSH1 0x20 DUP3 DUP5 SUB SLT ISZERO PUSH2 0x4EA7 JUMPI PUSH2 0x4EA6 PUSH2 0x3AC0 JUMP JUMPDEST JUMPDEST PUSH0 PUSH2 0x4EB4 DUP5 DUP3 DUP6 ADD PUSH2 0x40DC JUMP JUMPDEST SWAP2 POP POP SWAP3 SWAP2 POP POP JUMP JUMPDEST PUSH0 DUP3 DUP3 MSTORE PUSH1 0x20 DUP3 ADD SWAP1 POP SWAP3 SWAP2 POP POP JUMP JUMPDEST PUSH32 0x4E6F7420426F742057616C6C6574000000000000000000000000000000000000 PUSH0 DUP3 ADD MSTORE POP JUMP JUMPDEST PUSH0 PUSH2 0x4F01 PUSH1 0xE DUP4 PUSH2 0x4EBD JUMP JUMPDEST SWAP2 POP PUSH2 0x4F0C DUP3 PUSH2 0x4ECD JUMP JUMPDEST PUSH1 0x20 DUP3 ADD SWAP1 POP SWAP2 SWAP1 POP JUMP JUMPDEST PUSH0 PUSH1 0x20 DUP3 ADD SWAP1 POP DUP2 DUP2 SUB PUSH0 DUP4 ADD MSTORE PUSH2 0x4F2E DUP2 PUSH2 0x4EF5 JUMP JUMPDEST SWAP1 POP SWAP2 SWAP1 POP JUMP JUMPDEST PUSH0 DUP2 MLOAD SWAP1 POP PUSH2 0x4F43 DUP2 PUSH2 0x3D3A JUMP JUMPDEST SWAP3 SWAP2 POP POP JUMP JUMPDEST PUSH0 PUSH1 0x20 DUP3 DUP5 SUB SLT ISZERO PUSH2 0x4F5E JUMPI PUSH2 0x4F5D PUSH2 0x3AC0 JUMP JUMPDEST JUMPDEST PUSH0 PUSH2 0x4F6B DUP5 DUP3 DUP6 ADD PUSH2 0x4F35 JUMP JUMPDEST SWAP2 POP POP SWAP3 SWAP2 POP POP JUMP JUMPDEST PUSH32 0x4E6F7420656E6F75676820555344430000000000000000000000000000000000 PUSH0 DUP3 ADD MSTORE POP JUMP JUMPDEST PUSH0 PUSH2 0x4FA8 PUSH1 0xF DUP4 PUSH2 0x4EBD JUMP JUMPDEST SWAP2 POP PUSH2 0x4FB3 DUP3 PUSH2 0x4F74 JUMP JUMPDEST PUSH1 0x20 DUP3 ADD SWAP1 POP SWAP2 SWAP1 POP JUMP JUMPDEST PUSH0 PUSH1 0x20 DUP3 ADD SWAP1 POP DUP2 DUP2 SUB PUSH0 DUP4 ADD MSTORE PUSH2 0x4FD5 DUP2 PUSH2 0x4F9C JUMP JUMPDEST SWAP1 POP SWAP2 SWAP1 POP JUMP JUMPDEST PUSH32 0x4E487B7100000000000000000000000000000000000000000000000000000000 PUSH0 MSTORE PUSH1 0x11 PUSH1 0x4 MSTORE PUSH1 0x24 PUSH0 REVERT JUMPDEST PUSH0 PUSH2 0x5013 DUP3 PUSH2 0x3D31 JUMP JUMPDEST SWAP2 POP PUSH2 0x501E DUP4 PUSH2 0x3D31 JUMP JUMPDEST SWAP3 POP DUP3 DUP3 ADD SWAP1 POP DUP1 DUP3 GT ISZERO PUSH2 0x5036 JUMPI PUSH2 0x5035 PUSH2 0x4FDC JUMP JUMPDEST JUMPDEST SWAP3 SWAP2 POP POP JUMP JUMPDEST PUSH0 PUSH1 0x40 DUP3 ADD SWAP1 POP PUSH2 0x504F PUSH0 DUP4 ADD DUP6 PUSH2 0x3CDF JUMP JUMPDEST PUSH2 0x505C PUSH1 0x20 DUP4 ADD DUP5 PUSH2 0x4396 JUMP JUMPDEST SWAP4 SWAP3 POP POP POP JUMP JUMPDEST PUSH2 0x506C DUP2 PUSH2 0x3CCE JUMP JUMPDEST DUP3 MSTORE POP POP JUMP JUMPDEST PUSH0 PUSH3 0xFFFFFF DUP3 AND SWAP1 POP SWAP2 SWAP1 POP JUMP JUMPDEST PUSH2 0x5089 DUP2 PUSH2 0x5072 JUMP JUMPDEST DUP3 MSTORE POP POP JUMP JUMPDEST PUSH2 0x5098 DUP2 PUSH2 0x3D31 JUMP JUMPDEST DUP3 MSTORE POP POP JUMP JUMPDEST PUSH2 0x50A7 DUP2 PUSH2 0x3CAF JUMP JUMPDEST DUP3 MSTORE POP POP JUMP JUMPDEST PUSH2 0x100 DUP3 ADD PUSH0 DUP3 ADD MLOAD PUSH2 0x50C2 PUSH0 DUP6 ADD DUP3 PUSH2 0x5063 JUMP JUMPDEST POP PUSH1 0x20 DUP3 ADD MLOAD PUSH2 0x50D5 PUSH1 0x20 DUP6 ADD DUP3 PUSH2 0x5063 JUMP JUMPDEST POP PUSH1 0x40 DUP3 ADD MLOAD PUSH2 0x50E8 PUSH1 0x40 DUP6 ADD DUP3 PUSH2 0x5080 JUMP JUMPDEST POP PUSH1 0x60 DUP3 ADD MLOAD PUSH2 0x50FB PUSH1 0x60 DUP6 ADD DUP3 PUSH2 0x5063 JUMP JUMPDEST POP PUSH1 0x80 DUP3 ADD MLOAD PUSH2 0x510E PUSH1 0x80 DUP6 ADD DUP3 PUSH2 0x508F JUMP JUMPDEST POP PUSH1 0xA0 DUP3 ADD MLOAD PUSH2 0x5121 PUSH1 0xA0 DUP6 ADD DUP3 PUSH2 0x508F JUMP JUMPDEST POP PUSH1 0xC0 DUP3 ADD MLOAD PUSH2 0x5134 PUSH1 0xC0 DUP6 ADD DUP3 PUSH2 0x508F JUMP JUMPDEST POP PUSH1 0xE0 DUP3 ADD MLOAD PUSH2 0x5147 PUSH1 0xE0 DUP6 ADD DUP3 PUSH2 0x509E JUMP JUMPDEST POP POP POP POP JUMP JUMPDEST PUSH0 PUSH2 0x100 DUP3 ADD SWAP1 POP PUSH2 0x5161 PUSH0 DUP4 ADD DUP5 PUSH2 0x50AD JUMP JUMPDEST SWAP3 SWAP2 POP POP JUMP JUMPDEST PUSH0 PUSH1 0x60 DUP3 ADD SWAP1 POP PUSH2 0x517A PUSH0 DUP4 ADD DUP7 PUSH2 0x3CDF JUMP JUMPDEST PUSH2 0x5187 PUSH1 0x20 DUP4 ADD DUP6 PUSH2 0x3F1C JUMP JUMPDEST PUSH2 0x5194 PUSH1 0x40 DUP4 ADD DUP5 PUSH2 0x3CDF JUMP JUMPDEST SWAP5 SWAP4 POP POP POP POP JUMP JUMPDEST PUSH0 DUP2 SWAP1 POP SWAP2 SWAP1 POP JUMP JUMPDEST PUSH0 PUSH24 0xFFFFFFFFFFFFFFFFFFFFFFFFFFFFFFFFFFFFFFFFFFFFFFFF DUP3 AND SWAP1 POP SWAP2 SWAP1 POP JUMP JUMPDEST PUSH0 PUSH2 0x51E2 PUSH2 0x51DD PUSH2 0x51D8 DUP5 PUSH2 0x519C JUMP JUMPDEST PUSH2 0x4834 JUMP JUMPDEST PUSH2 0x51A5 JUMP JUMPDEST SWAP1 POP SWAP2 SWAP1 POP JUMP JUMPDEST PUSH2 0x51F2 DUP2 PUSH2 0x51C8 JUMP JUMPDEST DUP3 MSTORE POP POP JUMP JUMPDEST PUSH0 PUSH1 0x40 DUP3 ADD SWAP1 POP PUSH2 0x520B PUSH0 DUP4 ADD DUP6 PUSH2 0x3CDF JUMP JUMPDEST PUSH2 0x5218 PUSH1 0x20 DUP4 ADD DUP5 PUSH2 0x51E9 JUMP JUMPDEST SWAP4 SWAP3 POP POP POP JUMP JUMPDEST PUSH0 PUSH2 0x522B DUP3 DUP5 DUP7 PUSH2 0x4C24 JUMP JUMPDEST SWAP2 POP DUP2 SWAP1 POP SWAP4 SWAP3 POP POP POP JUMP JUMPDEST PUSH0 DUP1 REVERT JUMPDEST PUSH0 DUP1 REVERT JUMPDEST PUSH0 DUP1 DUP6 DUP6 GT ISZERO PUSH2 0x5252 JUMPI PUSH2 0x5251 PUSH2 0x5237 JUMP JUMPDEST JUMPDEST DUP4 DUP7 GT ISZERO PUSH2 0x5263 JUMPI PUSH2 0x5262 PUSH2 0x523B JUMP JUMPDEST JUMPDEST PUSH1 0x1 DUP6 MUL DUP4 ADD SWAP2 POP DUP5 DUP7 SUB SWAP1 POP SWAP5 POP SWAP5 SWAP3 POP POP POP JUMP JUMPDEST PUSH0 DUP3 SWAP1 POP SWAP3 SWAP2 POP POP JUMP JUMPDEST PUSH0 DUP3 DUP3 SHL SWAP1 POP SWAP3 SWAP2 POP POP JUMP JUMPDEST PUSH0 PUSH2 0x529A DUP4 DUP4 PUSH2 0x5279 JUMP JUMPDEST DUP3 PUSH2 0x52A5 DUP2 CALLDATALOAD PUSH2 0x3F44 JUMP JUMPDEST SWAP3 POP PUSH1 0x20 DUP3 LT ISZERO PUSH2 0x52E5 JUMPI PUSH2 0x52E0 PUSH32 0xFFFFFFFFFFFFFFFFFFFFFFFFFFFFFFFFFFFFFFFFFFFFFFFFFFFFFFFFFFFFFFFF DUP4 PUSH1 0x20 SUB PUSH1 0x8 MUL PUSH2 0x5283 JUMP JUMPDEST DUP4 AND SWAP3 POP JUMPDEST POP POP SWAP3 SWAP2 POP POP JUMP JUMPDEST PUSH32 0x4E487B7100000000000000000000000000000000000000000000000000000000 PUSH0 MSTORE PUSH1 0x21 PUSH1 0x4 MSTORE PUSH1 0x24 PUSH0 REVERT JUMPDEST PUSH0 PUSH2 0x5325 DUP3 DUP7 PUSH2 0x4C03 JUMP JUMPDEST PUSH1 0x14 DUP3 ADD SWAP2 POP PUSH2 0x5336 DUP3 DUP5 DUP7 PUSH2 0x4C24 JUMP JUMPDEST SWAP2 POP DUP2 SWAP1 POP SWAP5 SWAP4 POP POP POP POP JUMP JUMPDEST PUSH0 PUSH2 0x534E DUP3 DUP5 PUSH2 0x4C03 JUMP JUMPDEST PUSH1 0x14 DUP3 ADD SWAP2 POP DUP2 SWAP1 POP SWAP3 SWAP2 POP POP JUMP JUMPDEST PUSH32 0x6163636F756E743A206E6F742066726F6D20456E747279506F696E7400000000 PUSH0 DUP3 ADD MSTORE POP JUMP JUMPDEST PUSH0 PUSH2 0x5391 PUSH1 0x1C DUP4 PUSH2 0x4EBD JUMP JUMPDEST SWAP2 POP PUSH2 0x539C DUP3 PUSH2 0x535D JUMP JUMPDEST PUSH1 0x20 DUP3 ADD SWAP1 POP SWAP2 SWAP1 POP JUMP JUMPDEST PUSH0 PUSH1 0x20 DUP3 ADD SWAP1 POP DUP2 DUP2 SUB PUSH0 DUP4 ADD MSTORE PUSH2 0x53BE DUP2 PUSH2 0x5385 JUMP JUMPDEST SWAP1 POP SWAP2 SWAP1 POP JUMP JUMPDEST POP JUMP JUMPDEST PUSH0 PUSH2 0x53D3 PUSH0 DUP4 PUSH2 0x4C1A JUMP JUMPDEST SWAP2 POP PUSH2 0x53DE DUP3 PUSH2 0x53C5 JUMP JUMPDEST PUSH0 DUP3 ADD SWAP1 POP SWAP2 SWAP1 POP JUMP JUMPDEST PUSH0 PUSH2 0x53F2 DUP3 PUSH2 0x53C8 JUMP JUMPDEST SWAP2 POP DUP2 SWAP1 POP SWAP2 SWAP1 POP JUMP JUMPDEST PUSH0 PUSH2 0x5406 DUP3 PUSH2 0x3D31 JUMP JUMPDEST SWAP2 POP PUSH2 0x5411 DUP4 PUSH2 0x3D31 JUMP JUMPDEST SWAP3 POP DUP3 DUP3 SUB SWAP1 POP DUP2 DUP2 GT ISZERO PUSH2 0x5429 JUMPI PUSH2 0x5428 PUSH2 0x4FDC JUMP JUMPDEST JUMPDEST SWAP3 SWAP2 POP POP JUMP JUMPDEST PUSH0 PUSH2 0x5439 DUP3 PUSH2 0x3CAF JUMP JUMPDEST SWAP1 POP SWAP2 SWAP1 POP JUMP JUMPDEST PUSH2 0x5449 DUP2 PUSH2 0x542F JUMP JUMPDEST DUP2 EQ PUSH2 0x5453 JUMPI PUSH0 DUP1 REVERT JUMPDEST POP JUMP JUMPDEST PUSH0 DUP2 MLOAD SWAP1 POP PUSH2 0x5464 DUP2 PUSH2 0x5440 JUMP JUMPDEST SWAP3 SWAP2 POP POP JUMP JUMPDEST PUSH0 DUP1 PUSH0 PUSH1 0x60 DUP5 DUP7 SUB SLT ISZERO PUSH2 0x5481 JUMPI PUSH2 0x5480 PUSH2 0x3AC0 JUMP JUMPDEST JUMPDEST PUSH0 PUSH2 0x548E DUP7 DUP3 DUP8 ADD PUSH2 0x4F35 JUMP JUMPDEST SWAP4 POP POP PUSH1 0x20 PUSH2 0x549F DUP7 DUP3 DUP8 ADD PUSH2 0x5456 JUMP JUMPDEST SWAP3 POP POP PUSH1 0x40 PUSH2 0x54B0 DUP7 DUP3 DUP8 ADD PUSH2 0x4F35 JUMP JUMPDEST SWAP2 POP POP SWAP3 POP SWAP3 POP SWAP3 JUMP JUMPDEST PUSH0 DUP1 PUSH0 PUSH1 0x60 DUP5 DUP7 SUB SLT ISZERO PUSH2 0x54D1 JUMPI PUSH2 0x54D0 PUSH2 0x3AC0 JUMP JUMPDEST JUMPDEST PUSH0 PUSH2 0x54DE DUP7 DUP3 DUP8 ADD PUSH2 0x4F35 JUMP JUMPDEST SWAP4 POP POP PUSH1 0x20 PUSH2 0x54EF DUP7 DUP3 DUP8 ADD PUSH2 0x4DBE JUMP JUMPDEST SWAP3 POP POP PUSH1 0x40 PUSH2 0x5500 DUP7 DUP3 DUP8 ADD PUSH2 0x4F35 JUMP JUMPDEST SWAP2 POP POP SWAP3 POP SWAP3 POP SWAP3 JUMP JUMPDEST PUSH0 PUSH2 0x5515 DUP3 DUP7 PUSH2 0x4C82 JUMP JUMPDEST SWAP2 POP PUSH2 0x5521 DUP3 DUP6 PUSH2 0x4C03 JUMP JUMPDEST PUSH1 0x14 DUP3 ADD SWAP2 POP PUSH2 0x5531 DUP3 DUP5 PUSH2 0x4C82 JUMP JUMPDEST SWAP2 POP DUP2 SWAP1 POP SWAP5 SWAP4 POP POP POP POP JUMP JUMPDEST PUSH0 PUSH2 0x5549 DUP4 DUP6 PUSH2 0x4206 JUMP JUMPDEST SWAP4 POP PUSH2 0x5556 DUP4 DUP6 DUP5 PUSH2 0x3E20 JUMP JUMPDEST PUSH2 0x555F DUP4 PUSH2 0x3D68 JUMP JUMPDEST DUP5 ADD SWAP1 POP SWAP4 SWAP3 POP POP POP JUMP JUMPDEST PUSH0 PUSH1 0x40 DUP3 ADD SWAP1 POP PUSH2 0x557D PUSH0 DUP4 ADD DUP7 PUSH2 0x4396 JUMP JUMPDEST DUP2 DUP2 SUB PUSH1 0x20 DUP4 ADD MSTORE PUSH2 0x5590 DUP2 DUP5 DUP7 PUSH2 0x553E JUMP JUMPDEST SWAP1 POP SWAP5 SWAP4 POP POP POP POP JUMP JUMPDEST PUSH0 PUSH1 0x40 DUP3 ADD SWAP1 POP PUSH2 0x55AD PUSH0 DUP4 ADD DUP6 PUSH2 0x4054 JUMP JUMPDEST DUP2 DUP2 SUB PUSH1 0x20 DUP4 ADD MSTORE PUSH2 0x55BF DUP2 DUP5 PUSH2 0x423E JUMP JUMPDEST SWAP1 POP SWAP4 SWAP3 POP POP POP JUMP JUMPDEST PUSH0 DUP2 MLOAD SWAP1 POP PUSH2 0x55D6 DUP2 PUSH2 0x3F4D JUMP JUMPDEST SWAP3 SWAP2 POP POP JUMP JUMPDEST PUSH0 PUSH1 0x20 DUP3 DUP5 SUB SLT ISZERO PUSH2 0x55F1 JUMPI PUSH2 0x55F0 PUSH2 0x3AC0 JUMP JUMPDEST JUMPDEST PUSH0 PUSH2 0x55FE DUP5 DUP3 DUP6 ADD PUSH2 0x55C8 JUMP JUMPDEST SWAP2 POP POP SWAP3 SWAP2 POP POP JUMP JUMPDEST PUSH0 PUSH1 0x40 DUP3 ADD SWAP1 POP PUSH2 0x561A PUSH0 DUP4 ADD DUP6 PUSH2 0x4396 JUMP JUMPDEST PUSH2 0x5627 PUSH1 0x20 DUP4 ADD DUP5 PUSH2 0x4396 JUMP JUMPDEST SWAP4 SWAP3 POP POP POP JUMP JUMPDEST PUSH0 DUP2 SWAP1 POP SWAP3 SWAP2 POP POP JUMP JUMPDEST PUSH32 0x19457468657265756D205369676E6564204D6573736167653A0A333200000000 PUSH0 DUP3 ADD MSTORE POP JUMP JUMPDEST PUSH0 PUSH2 0x566C PUSH1 0x1C DUP4 PUSH2 0x562E JUMP JUMPDEST SWAP2 POP PUSH2 0x5677 DUP3 PUSH2 0x5638 JUMP JUMPDEST PUSH1 0x1C DUP3 ADD SWAP1 POP SWAP2 SWAP1 POP JUMP JUMPDEST PUSH0 DUP2 SWAP1 POP SWAP2 SWAP1 POP JUMP JUMPDEST PUSH2 0x569C PUSH2 0x5697 DUP3 PUSH2 0x3F44 JUMP JUMPDEST PUSH2 0x5682 JUMP JUMPDEST DUP3 MSTORE POP POP JUMP JUMPDEST PUSH0 PUSH2 0x56AC DUP3 PUSH2 0x5660 JUMP JUMPDEST SWAP2 POP PUSH2 0x56B8 DUP3 DUP5 PUSH2 0x568B JUMP JUMPDEST PUSH1 0x20 DUP3 ADD SWAP2 POP DUP2 SWAP1 POP SWAP3 SWAP2 POP POP JUMP JUMPDEST PUSH0 DUP1 PUSH0 DUP1 PUSH1 0x80 DUP6 DUP8 SUB SLT ISZERO PUSH2 0x56DF JUMPI PUSH2 0x56DE PUSH2 0x3AC0 JUMP JUMPDEST JUMPDEST PUSH0 PUSH2 0x56EC DUP8 DUP3 DUP9 ADD PUSH2 0x55C8 JUMP JUMPDEST SWAP5 POP POP PUSH1 0x20 PUSH2 0x56FD DUP8 DUP3 DUP9 ADD PUSH2 0x4F35 JUMP JUMPDEST SWAP4 POP POP PUSH1 0x40 PUSH2 0x570E DUP8 DUP3 DUP9 ADD PUSH2 0x5456 JUMP JUMPDEST SWAP3 POP POP PUSH1 0x60 PUSH2 0x571F DUP8 DUP3 DUP9 ADD PUSH2 0x4F35 JUMP JUMPDEST SWAP2 POP POP SWAP3 SWAP6 SWAP2 SWAP5 POP SWAP3 POP JUMP JUMPDEST PUSH2 0x5734 DUP2 PUSH2 0x40BA JUMP JUMPDEST DUP3 MSTORE POP POP JUMP JUMPDEST PUSH0 PUSH1 0x80 DUP3 ADD SWAP1 POP PUSH2 0x574D PUSH0 DUP4 ADD DUP8 PUSH2 0x4054 JUMP JUMPDEST PUSH2 0x575A PUSH1 0x20 DUP4 ADD DUP7 PUSH2 0x572B JUMP JUMPDEST PUSH2 0x5767 PUSH1 0x40 DUP4 ADD DUP6 PUSH2 0x4054 JUMP JUMPDEST PUSH2 0x5774 PUSH1 0x60 DUP4 ADD DUP5 PUSH2 0x4054 JUMP JUMPDEST SWAP6 SWAP5 POP POP POP POP POP JUMP INVALID CALLER EQ PUSH1 0x1D JUMPI RETURNDATASIZE RETURNDATASIZE REVERT JUMPDEST CALLDATASIZE RETURNDATASIZE RETURNDATASIZE CALLDATACOPY RETURNDATASIZE RETURNDATASIZE PUSH1 0x14 CALLDATASIZE SUB PUSH1 0x14 RETURNDATASIZE MLOAD PUSH1 0x60 SHR GAS DELEGATECALL RETURNDATASIZE PUSH1 0x0 DUP1 RETURNDATACOPY DUP1 PUSH1 0x3E JUMPI RETURNDATASIZE PUSH1 0x0 REVERT JUMPDEST RETURNDATASIZE PUSH1 0x0 RETURN LOG2 PUSH5 0x6970667358 0x22 SLT KECCAK256 0xCF 0x4C PUSH19 0x5A3AC4BCDB56200D6D0363B919E64B55F47027 0xAB DUP4 0xB6 CALLDATALOAD CREATE SWAP13 SHL LOG0 0xBA PUSH14 0x64736F6C63430008170033000000 "
		},
		"gasEstimates": {
			"creation": {
				"codeDepositCost": "4499400",
				"executionCost": "infinite",
				"totalCost": "infinite"
			},
			"external": {
				"": "infinite",
				"entryPoint()": "infinite",
				"erc6551Registry()": "infinite",
				"execute(address,uint256,bytes,uint8)": "infinite",
				"executeBatch((address,uint256,bytes,uint8)[])": "infinite",
				"executeNested(address,uint256,bytes,uint8,(bytes32,address,uint256)[])": "infinite",
				"extcall(address,uint256,bytes)": "infinite",
				"extcreate(uint256,bytes)": "infinite",
				"extcreate2(uint256,bytes32,bytes)": "infinite",
				"extsload(bytes32)": "infinite",
				"getNonce()": "infinite",
				"isLocked()": "2509",
				"isTrustedForwarder(address)": "infinite",
				"isValidSignature(bytes32,bytes)": "infinite",
				"isValidSigner(address,bytes)": "infinite",
				"lock(uint256)": "infinite",
				"lockedUntil()": "2513",
				"onERC1155BatchReceived(address,address,uint256[],uint256[],bytes)": "infinite",
				"onERC1155Received(address,address,uint256,uint256,bytes)": "infinite",
				"onERC721Received(address,address,uint256,bytes)": "infinite",
				"overrides(address,bytes4)": "infinite",
				"owner()": "infinite",
				"permissions(address,address)": "infinite",
				"setOverrides(bytes4[],address[])": "infinite",
				"setPermissions(address[],bool[])": "infinite",
				"state()": "2499",
				"supportsInterface(bytes4)": "infinite",
				"swapExactInputSingle(address,address,uint256,uint256,uint256)": "infinite",
				"token()": "infinite",
				"trustedForwarder()": "infinite",
				"validateUserOp((address,uint256,bytes,bytes,uint256,uint256,uint256,uint256,uint256,bytes,bytes),bytes32,uint256)": "infinite"
			},
			"internal": {
				"_beforeExecute()": "infinite",
				"_beforeLock()": "infinite",
				"_beforeSetOverrides()": "infinite",
				"_beforeSetPermissions()": "infinite",
				"_isValidExecutor(address)": "infinite",
				"_isValidSignature(bytes32,bytes calldata)": "infinite",
				"_isValidSigner(address,bytes memory)": "infinite",
				"_rootTokenOwner(address,uint256,address,uint256)": "infinite",
				"_rootTokenOwner(uint256,address,uint256)": "infinite",
				"_tokenOwner(uint256,address,uint256)": "infinite",
				"_updateState()": "infinite"
			}
		},
		"methodIdentifiers": {
			"entryPoint()": "b0d691fe",
			"erc6551Registry()": "056d5afe",
			"execute(address,uint256,bytes,uint8)": "51945447",
			"executeBatch((address,uint256,bytes,uint8)[])": "43629a73",
			"executeNested(address,uint256,bytes,uint8,(bytes32,address,uint256)[])": "1fb1ecf0",
			"extcall(address,uint256,bytes)": "b709467c",
			"extcreate(uint256,bytes)": "45a24e3e",
			"extcreate2(uint256,bytes32,bytes)": "34715fb1",
			"extsload(bytes32)": "1e2eaeaf",
			"getNonce()": "d087d288",
			"isLocked()": "a4e2d634",
			"isTrustedForwarder(address)": "572b6c05",
			"isValidSignature(bytes32,bytes)": "1626ba7e",
			"isValidSigner(address,bytes)": "523e3260",
			"lock(uint256)": "dd467064",
			"lockedUntil()": "ce0617ec",
			"onERC1155BatchReceived(address,address,uint256[],uint256[],bytes)": "bc197c81",
			"onERC1155Received(address,address,uint256,uint256,bytes)": "f23a6e61",
			"onERC721Received(address,address,uint256,bytes)": "150b7a02",
			"overrides(address,bytes4)": "ee9c6054",
			"owner()": "8da5cb5b",
			"permissions(address,address)": "1f9838b5",
			"setOverrides(bytes4[],address[])": "7a8f7356",
			"setPermissions(address[],bool[])": "039721b1",
			"state()": "c19d93fb",
			"supportsInterface(bytes4)": "01ffc9a7",
			"swapExactInputSingle(address,address,uint256,uint256,uint256)": "57d39e70",
			"token()": "fc0c546a",
			"trustedForwarder()": "7da0a877",
			"validateUserOp((address,uint256,bytes,bytes,uint256,uint256,uint256,uint256,uint256,bytes,bytes),bytes32,uint256)": "3a871cdd"
		}
	},
	"abi": [
		{
			"inputs": [
				{
					"internalType": "address",
					"name": "entryPoint_",
					"type": "address"
				},
				{
					"internalType": "address",
					"name": "multicallForwarder",
					"type": "address"
				},
				{
					"internalType": "address",
					"name": "erc6551Registry",
					"type": "address"
				},
				{
					"internalType": "address",
					"name": "_guardian",
					"type": "address"
				}
			],
			"stateMutability": "nonpayable",
			"type": "constructor"
		},
		{
			"inputs": [],
			"name": "AccountLocked",
			"type": "error"
		},
		{
			"inputs": [],
			"name": "ContractCreationFailed",
			"type": "error"
		},
		{
			"inputs": [],
			"name": "Create2EmptyBytecode",
			"type": "error"
		},
		{
			"inputs": [],
			"name": "Create2FailedDeployment",
			"type": "error"
		},
		{
			"inputs": [
				{
					"internalType": "uint256",
					"name": "balance",
					"type": "uint256"
				},
				{
					"internalType": "uint256",
					"name": "needed",
					"type": "uint256"
				}
			],
			"name": "Create2InsufficientBalance",
			"type": "error"
		},
		{
			"inputs": [],
			"name": "ECDSAInvalidSignature",
			"type": "error"
		},
		{
			"inputs": [
				{
					"internalType": "uint256",
					"name": "length",
					"type": "uint256"
				}
			],
			"name": "ECDSAInvalidSignatureLength",
			"type": "error"
		},
		{
			"inputs": [
				{
					"internalType": "bytes32",
					"name": "s",
					"type": "bytes32"
				}
			],
			"name": "ECDSAInvalidSignatureS",
			"type": "error"
		},
		{
			"inputs": [],
			"name": "ExceedsMaxLockTime",
			"type": "error"
		},
		{
			"inputs": [],
			"name": "InvalidAccountProof",
			"type": "error"
		},
		{
			"inputs": [],
			"name": "InvalidERC6551Registry",
			"type": "error"
		},
		{
			"inputs": [],
			"name": "InvalidEntryPoint",
			"type": "error"
		},
		{
			"inputs": [],
			"name": "InvalidInput",
			"type": "error"
		},
		{
			"inputs": [],
			"name": "InvalidMulticallForwarder",
			"type": "error"
		},
		{
			"inputs": [],
			"name": "InvalidOperation",
			"type": "error"
		},
		{
			"inputs": [],
			"name": "NotAuthorized",
			"type": "error"
		},
		{
			"inputs": [],
			"name": "OwnershipCycle",
			"type": "error"
		},
		{
			"anonymous": false,
			"inputs": [
				{
					"indexed": false,
					"internalType": "uint256",
					"name": "lockedUntil",
					"type": "uint256"
				}
			],
			"name": "LockUpdated",
			"type": "event"
		},
		{
			"anonymous": false,
			"inputs": [
				{
					"indexed": false,
					"internalType": "address",
					"name": "owner",
					"type": "address"
				},
				{
					"indexed": false,
					"internalType": "bytes4",
					"name": "selector",
					"type": "bytes4"
				},
				{
					"indexed": false,
					"internalType": "address",
					"name": "implementation",
					"type": "address"
				}
			],
			"name": "OverrideUpdated",
			"type": "event"
		},
		{
			"anonymous": false,
			"inputs": [
				{
					"indexed": false,
					"internalType": "address",
					"name": "owner",
					"type": "address"
				},
				{
					"indexed": false,
					"internalType": "address",
					"name": "caller",
					"type": "address"
				},
				{
					"indexed": false,
					"internalType": "bool",
					"name": "hasPermission",
					"type": "bool"
				}
			],
			"name": "PermissionUpdated",
			"type": "event"
		},
		{
			"stateMutability": "payable",
			"type": "fallback"
		},
		{
			"inputs": [],
			"name": "entryPoint",
			"outputs": [
				{
					"internalType": "contract IEntryPoint",
					"name": "",
					"type": "address"
				}
			],
			"stateMutability": "view",
			"type": "function"
		},
		{
			"inputs": [],
			"name": "erc6551Registry",
			"outputs": [
				{
					"internalType": "address",
					"name": "",
					"type": "address"
				}
			],
			"stateMutability": "view",
			"type": "function"
		},
		{
			"inputs": [
				{
					"internalType": "address",
					"name": "to",
					"type": "address"
				},
				{
					"internalType": "uint256",
					"name": "value",
					"type": "uint256"
				},
				{
					"internalType": "bytes",
					"name": "data",
					"type": "bytes"
				},
				{
					"internalType": "uint8",
					"name": "operation",
					"type": "uint8"
				}
			],
			"name": "execute",
			"outputs": [
				{
					"internalType": "bytes",
					"name": "",
					"type": "bytes"
				}
			],
			"stateMutability": "payable",
			"type": "function"
		},
		{
			"inputs": [
				{
					"components": [
						{
							"internalType": "address",
							"name": "to",
							"type": "address"
						},
						{
							"internalType": "uint256",
							"name": "value",
							"type": "uint256"
						},
						{
							"internalType": "bytes",
							"name": "data",
							"type": "bytes"
						},
						{
							"internalType": "uint8",
							"name": "operation",
							"type": "uint8"
						}
					],
					"internalType": "struct BatchExecutor.Operation[]",
					"name": "operations",
					"type": "tuple[]"
				}
			],
			"name": "executeBatch",
			"outputs": [
				{
					"internalType": "bytes[]",
					"name": "",
					"type": "bytes[]"
				}
			],
			"stateMutability": "payable",
			"type": "function"
		},
		{
			"inputs": [
				{
					"internalType": "address",
					"name": "to",
					"type": "address"
				},
				{
					"internalType": "uint256",
					"name": "value",
					"type": "uint256"
				},
				{
					"internalType": "bytes",
					"name": "data",
					"type": "bytes"
				},
				{
					"internalType": "uint8",
					"name": "operation",
					"type": "uint8"
				},
				{
					"components": [
						{
							"internalType": "bytes32",
							"name": "salt",
							"type": "bytes32"
						},
						{
							"internalType": "address",
							"name": "tokenContract",
							"type": "address"
						},
						{
							"internalType": "uint256",
							"name": "tokenId",
							"type": "uint256"
						}
					],
					"internalType": "struct NestedAccountExecutor.ERC6551AccountInfo[]",
					"name": "proof",
					"type": "tuple[]"
				}
			],
			"name": "executeNested",
			"outputs": [
				{
					"internalType": "bytes",
					"name": "",
					"type": "bytes"
				}
			],
			"stateMutability": "payable",
			"type": "function"
		},
		{
			"inputs": [
				{
					"internalType": "address",
					"name": "to",
					"type": "address"
				},
				{
					"internalType": "uint256",
					"name": "value",
					"type": "uint256"
				},
				{
					"internalType": "bytes",
					"name": "data",
					"type": "bytes"
				}
			],
			"name": "extcall",
			"outputs": [
				{
					"internalType": "bytes",
					"name": "result",
					"type": "bytes"
				}
			],
			"stateMutability": "nonpayable",
			"type": "function"
		},
		{
			"inputs": [
				{
					"internalType": "uint256",
					"name": "value",
					"type": "uint256"
				},
				{
					"internalType": "bytes",
					"name": "bytecode",
					"type": "bytes"
				}
			],
			"name": "extcreate",
			"outputs": [
				{
					"internalType": "address",
					"name": "",
					"type": "address"
				}
			],
			"stateMutability": "nonpayable",
			"type": "function"
		},
		{
			"inputs": [
				{
					"internalType": "uint256",
					"name": "value",
					"type": "uint256"
				},
				{
					"internalType": "bytes32",
					"name": "salt",
					"type": "bytes32"
				},
				{
					"internalType": "bytes",
					"name": "bytecode",
					"type": "bytes"
				}
			],
			"name": "extcreate2",
			"outputs": [
				{
					"internalType": "address",
					"name": "",
					"type": "address"
				}
			],
			"stateMutability": "nonpayable",
			"type": "function"
		},
		{
			"inputs": [
				{
					"internalType": "bytes32",
					"name": "slot",
					"type": "bytes32"
				}
			],
			"name": "extsload",
			"outputs": [
				{
					"internalType": "bytes32",
					"name": "value",
					"type": "bytes32"
				}
			],
			"stateMutability": "view",
			"type": "function"
		},
		{
			"inputs": [],
			"name": "getNonce",
			"outputs": [
				{
					"internalType": "uint256",
					"name": "",
					"type": "uint256"
				}
			],
			"stateMutability": "view",
			"type": "function"
		},
		{
			"inputs": [],
			"name": "isLocked",
			"outputs": [
				{
					"internalType": "bool",
					"name": "",
					"type": "bool"
				}
			],
			"stateMutability": "view",
			"type": "function"
		},
		{
			"inputs": [
				{
					"internalType": "address",
					"name": "forwarder",
					"type": "address"
				}
			],
			"name": "isTrustedForwarder",
			"outputs": [
				{
					"internalType": "bool",
					"name": "",
					"type": "bool"
				}
			],
			"stateMutability": "view",
			"type": "function"
		},
		{
			"inputs": [
				{
					"internalType": "bytes32",
					"name": "hash",
					"type": "bytes32"
				},
				{
					"internalType": "bytes",
					"name": "signature",
					"type": "bytes"
				}
			],
			"name": "isValidSignature",
			"outputs": [
				{
					"internalType": "bytes4",
					"name": "magicValue",
					"type": "bytes4"
				}
			],
			"stateMutability": "view",
			"type": "function"
		},
		{
			"inputs": [
				{
					"internalType": "address",
					"name": "signer",
					"type": "address"
				},
				{
					"internalType": "bytes",
					"name": "data",
					"type": "bytes"
				}
			],
			"name": "isValidSigner",
			"outputs": [
				{
					"internalType": "bytes4",
					"name": "magicValue",
					"type": "bytes4"
				}
			],
			"stateMutability": "view",
			"type": "function"
		},
		{
			"inputs": [
				{
					"internalType": "uint256",
					"name": "_lockedUntil",
					"type": "uint256"
				}
			],
			"name": "lock",
			"outputs": [],
			"stateMutability": "nonpayable",
			"type": "function"
		},
		{
			"inputs": [],
			"name": "lockedUntil",
			"outputs": [
				{
					"internalType": "uint256",
					"name": "",
					"type": "uint256"
				}
			],
			"stateMutability": "view",
			"type": "function"
		},
		{
			"inputs": [
				{
					"internalType": "address",
					"name": "",
					"type": "address"
				},
				{
					"internalType": "address",
					"name": "",
					"type": "address"
				},
				{
					"internalType": "uint256[]",
					"name": "",
					"type": "uint256[]"
				},
				{
					"internalType": "uint256[]",
					"name": "",
					"type": "uint256[]"
				},
				{
					"internalType": "bytes",
					"name": "",
					"type": "bytes"
				}
			],
			"name": "onERC1155BatchReceived",
			"outputs": [
				{
					"internalType": "bytes4",
					"name": "",
					"type": "bytes4"
				}
			],
			"stateMutability": "nonpayable",
			"type": "function"
		},
		{
			"inputs": [
				{
					"internalType": "address",
					"name": "",
					"type": "address"
				},
				{
					"internalType": "address",
					"name": "",
					"type": "address"
				},
				{
					"internalType": "uint256",
					"name": "",
					"type": "uint256"
				},
				{
					"internalType": "uint256",
					"name": "",
					"type": "uint256"
				},
				{
					"internalType": "bytes",
					"name": "",
					"type": "bytes"
				}
			],
			"name": "onERC1155Received",
			"outputs": [
				{
					"internalType": "bytes4",
					"name": "",
					"type": "bytes4"
				}
			],
			"stateMutability": "nonpayable",
			"type": "function"
		},
		{
			"inputs": [
				{
					"internalType": "address",
					"name": "",
					"type": "address"
				},
				{
					"internalType": "address",
					"name": "",
					"type": "address"
				},
				{
					"internalType": "uint256",
					"name": "tokenId",
					"type": "uint256"
				},
				{
					"internalType": "bytes",
					"name": "",
					"type": "bytes"
				}
			],
			"name": "onERC721Received",
			"outputs": [
				{
					"internalType": "bytes4",
					"name": "",
					"type": "bytes4"
				}
			],
			"stateMutability": "nonpayable",
			"type": "function"
		},
		{
			"inputs": [
				{
					"internalType": "address",
					"name": "",
					"type": "address"
				},
				{
					"internalType": "bytes4",
					"name": "",
					"type": "bytes4"
				}
			],
			"name": "overrides",
			"outputs": [
				{
					"internalType": "address",
					"name": "",
					"type": "address"
				}
			],
			"stateMutability": "view",
			"type": "function"
		},
		{
			"inputs": [],
			"name": "owner",
			"outputs": [
				{
					"internalType": "address",
					"name": "",
					"type": "address"
				}
			],
			"stateMutability": "view",
			"type": "function"
		},
		{
			"inputs": [
				{
					"internalType": "address",
					"name": "",
					"type": "address"
				},
				{
					"internalType": "address",
					"name": "",
					"type": "address"
				}
			],
			"name": "permissions",
			"outputs": [
				{
					"internalType": "bool",
					"name": "",
					"type": "bool"
				}
			],
			"stateMutability": "view",
			"type": "function"
		},
		{
			"inputs": [
				{
					"internalType": "bytes4[]",
					"name": "selectors",
					"type": "bytes4[]"
				},
				{
					"internalType": "address[]",
					"name": "implementations",
					"type": "address[]"
				}
			],
			"name": "setOverrides",
			"outputs": [],
			"stateMutability": "nonpayable",
			"type": "function"
		},
		{
			"inputs": [
				{
					"internalType": "address[]",
					"name": "callers",
					"type": "address[]"
				},
				{
					"internalType": "bool[]",
					"name": "_permissions",
					"type": "bool[]"
				}
			],
			"name": "setPermissions",
			"outputs": [],
			"stateMutability": "nonpayable",
			"type": "function"
		},
		{
			"inputs": [],
			"name": "state",
			"outputs": [
				{
					"internalType": "uint256",
					"name": "",
					"type": "uint256"
				}
			],
			"stateMutability": "view",
			"type": "function"
		},
		{
			"inputs": [
				{
					"internalType": "bytes4",
					"name": "interfaceId",
					"type": "bytes4"
				}
			],
			"name": "supportsInterface",
			"outputs": [
				{
					"internalType": "bool",
					"name": "",
					"type": "bool"
				}
			],
			"stateMutability": "view",
			"type": "function"
		},
		{
			"inputs": [
				{
					"internalType": "address",
					"name": "tokenIn",
					"type": "address"
				},
				{
					"internalType": "address",
					"name": "tokenOut",
					"type": "address"
				},
				{
					"internalType": "uint256",
					"name": "amountIn",
					"type": "uint256"
				},
				{
					"internalType": "uint256",
					"name": "gasFee",
					"type": "uint256"
				},
				{
					"internalType": "uint256",
					"name": "beepFee",
					"type": "uint256"
				}
			],
			"name": "swapExactInputSingle",
			"outputs": [
				{
					"internalType": "uint256",
					"name": "amountOut",
					"type": "uint256"
				}
			],
			"stateMutability": "nonpayable",
			"type": "function"
		},
		{
			"inputs": [],
			"name": "token",
			"outputs": [
				{
					"internalType": "uint256",
					"name": "chainId",
					"type": "uint256"
				},
				{
					"internalType": "address",
					"name": "tokenContract",
					"type": "address"
				},
				{
					"internalType": "uint256",
					"name": "tokenId",
					"type": "uint256"
				}
			],
			"stateMutability": "view",
			"type": "function"
		},
		{
			"inputs": [],
			"name": "trustedForwarder",
			"outputs": [
				{
					"internalType": "address",
					"name": "",
					"type": "address"
				}
			],
			"stateMutability": "view",
			"type": "function"
		},
		{
			"inputs": [
				{
					"components": [
						{
							"internalType": "address",
							"name": "sender",
							"type": "address"
						},
						{
							"internalType": "uint256",
							"name": "nonce",
							"type": "uint256"
						},
						{
							"internalType": "bytes",
							"name": "initCode",
							"type": "bytes"
						},
						{
							"internalType": "bytes",
							"name": "callData",
							"type": "bytes"
						},
						{
							"internalType": "uint256",
							"name": "callGasLimit",
							"type": "uint256"
						},
						{
							"internalType": "uint256",
							"name": "verificationGasLimit",
							"type": "uint256"
						},
						{
							"internalType": "uint256",
							"name": "preVerificationGas",
							"type": "uint256"
						},
						{
							"internalType": "uint256",
							"name": "maxFeePerGas",
							"type": "uint256"
						},
						{
							"internalType": "uint256",
							"name": "maxPriorityFeePerGas",
							"type": "uint256"
						},
						{
							"internalType": "bytes",
							"name": "paymasterAndData",
							"type": "bytes"
						},
						{
							"internalType": "bytes",
							"name": "signature",
							"type": "bytes"
						}
					],
					"internalType": "struct UserOperation",
					"name": "userOp",
					"type": "tuple"
				},
				{
					"internalType": "bytes32",
					"name": "userOpHash",
					"type": "bytes32"
				},
				{
					"internalType": "uint256",
					"name": "missingAccountFunds",
					"type": "uint256"
				}
			],
			"name": "validateUserOp",
			"outputs": [
				{
					"internalType": "uint256",
					"name": "validationData",
					"type": "uint256"
				}
			],
			"stateMutability": "nonpayable",
			"type": "function"
		},
		{
			"stateMutability": "payable",
			"type": "receive"
		}
	]
}